{
  "address": "0xFE39B4Aca17E7e2dd0136Fe4405A287D7bF9c276",
  "abi": [
    {
      "inputs": [
        {
          "internalType": "contract EasCarbonium",
          "name": "eas",
          "type": "address"
        },
        {
          "internalType": "contract CarbonCredits",
          "name": "erc1155Contract",
          "type": "address"
        }
      ],
      "stateMutability": "nonpayable",
      "type": "constructor"
    },
    {
      "anonymous": false,
      "inputs": [
        {
          "indexed": false,
          "internalType": "uint256",
          "name": "attestationId",
          "type": "uint256"
        },
        {
          "indexed": false,
          "internalType": "uint256",
          "name": "tokenId",
          "type": "uint256"
        }
      ],
      "name": "AttestMintSuccess",
      "type": "event"
    },
    {
      "inputs": [
        {
          "components": [
            {
              "internalType": "string",
              "name": "projectName",
              "type": "string"
            },
            {
              "internalType": "string",
              "name": "country",
              "type": "string"
            },
            {
              "internalType": "string",
              "name": "vintage",
              "type": "string"
            },
            {
              "internalType": "string",
              "name": "standard",
              "type": "string"
            },
            {
              "internalType": "uint256",
              "name": "methodology",
              "type": "uint256"
            },
            {
              "internalType": "uint256",
              "name": "creditAmount",
              "type": "uint256"
            },
            {
              "internalType": "string",
              "name": "issuerName",
              "type": "string"
            },
            {
              "internalType": "string",
              "name": "issuerCountry",
              "type": "string"
            }
          ],
          "internalType": "struct EasCarbonium.AttestationData",
          "name": "inputs",
          "type": "tuple"
        },
        {
          "internalType": "address",
          "name": "recptAddr",
          "type": "address"
        }
      ],
      "name": "attestUint",
      "outputs": [],
      "stateMutability": "nonpayable",
      "type": "function"
    }
  ],
  "transactionHash": "0xb8b29c1cfb649a5ecd4c49cdb87dac91fa5d9a18ee22b4087039fb14b994f7c4",
  "args": [
    "0xf63c588b6790a18a4414a90586EB4A37E8B82037",
    "0xf41b5E51904730703dbe9c5BA19275d40C643A74"
  ],
  "numDeployments": 2,
  "solcInputHash": "403f5dbd2591b6fcf064c453fbcf2dd6",
  "bytecode": "0x60a06040523480156200001157600080fd5b5060405162000bdb38038062000bdb833981810160405281019062000037919062000222565b600073ffffffffffffffffffffffffffffffffffffffff168273ffffffffffffffffffffffffffffffffffffffff16141580620000a15750600073ffffffffffffffffffffffffffffffffffffffff168173ffffffffffffffffffffffffffffffffffffffff1614155b620000e3576040517f08c379a0000000000000000000000000000000000000000000000000000000008152600401620000da90620002ca565b60405180910390fd5b8173ffffffffffffffffffffffffffffffffffffffff1660808173ffffffffffffffffffffffffffffffffffffffff1681525050806000806101000a81548173ffffffffffffffffffffffffffffffffffffffff021916908373ffffffffffffffffffffffffffffffffffffffff1602179055505050620002ec565b600080fd5b600073ffffffffffffffffffffffffffffffffffffffff82169050919050565b6000620001918262000164565b9050919050565b6000620001a58262000184565b9050919050565b620001b78162000198565b8114620001c357600080fd5b50565b600081519050620001d781620001ac565b92915050565b6000620001ea8262000184565b9050919050565b620001fc81620001dd565b81146200020857600080fd5b50565b6000815190506200021c81620001f1565b92915050565b600080604083850312156200023c576200023b6200015f565b5b60006200024c85828601620001c6565b92505060206200025f858286016200020b565b9150509250929050565b600082825260208201905092915050565b7f496e76616c696420416464726573730000000000000000000000000000000000600082015250565b6000620002b2600f8362000269565b9150620002bf826200027a565b602082019050919050565b60006020820190508181036000830152620002e581620002a3565b9050919050565b6080516108d4620003076000396000605001526108d46000f3fe608060405234801561001057600080fd5b506004361061002b5760003560e01c80636e13df8214610030575b600080fd5b61004a60048036038101906100459190610574565b61004c565b005b60007f000000000000000000000000000000000000000000000000000000000000000073ffffffffffffffffffffffffffffffffffffffff166368d5a71f84846040518363ffffffff1660e01b81526004016100a9929190610740565b6020604051808303816000875af11580156100c8573d6000803e3d6000fd5b505050506040513d601f19601f820116820180604052508101906100ec9190610785565b905060008111610131576040517f08c379a00000000000000000000000000000000000000000000000000000000081526004016101289061080f565b60405180910390fd5b60008054906101000a900473ffffffffffffffffffffffffffffffffffffffff1673ffffffffffffffffffffffffffffffffffffffff1663156e29f68385608001518660a001516040518463ffffffff1660e01b81526004016101969392919061083e565b600060405180830381600087803b1580156101b057600080fd5b505af11580156101c4573d6000803e3d6000fd5b505050507fbdcf0dbc458b845bec7abb141b4343302457fd5cf129365abd65d5f87aa6aa248184608001516040516101fd929190610875565b60405180910390a1505050565b6000604051905090565b600080fd5b600080fd5b600080fd5b6000601f19601f8301169050919050565b7f4e487b7100000000000000000000000000000000000000000000000000000000600052604160045260246000fd5b61026c82610223565b810181811067ffffffffffffffff8211171561028b5761028a610234565b5b80604052505050565b600061029e61020a565b90506102aa8282610263565b919050565b600080fd5b600080fd5b600080fd5b600067ffffffffffffffff8211156102d9576102d8610234565b5b6102e282610223565b9050602081019050919050565b82818337600083830152505050565b600061031161030c846102be565b610294565b90508281526020810184848401111561032d5761032c6102b9565b5b6103388482856102ef565b509392505050565b600082601f830112610355576103546102b4565b5b81356103658482602086016102fe565b91505092915050565b6000819050919050565b6103818161036e565b811461038c57600080fd5b50565b60008135905061039e81610378565b92915050565b600061010082840312156103bb576103ba61021e565b5b6103c6610100610294565b9050600082013567ffffffffffffffff8111156103e6576103e56102af565b5b6103f284828501610340565b600083015250602082013567ffffffffffffffff811115610416576104156102af565b5b61042284828501610340565b602083015250604082013567ffffffffffffffff811115610446576104456102af565b5b61045284828501610340565b604083015250606082013567ffffffffffffffff811115610476576104756102af565b5b61048284828501610340565b60608301525060806104968482850161038f565b60808301525060a06104aa8482850161038f565b60a08301525060c082013567ffffffffffffffff8111156104ce576104cd6102af565b5b6104da84828501610340565b60c08301525060e082013567ffffffffffffffff8111156104fe576104fd6102af565b5b61050a84828501610340565b60e08301525092915050565b600073ffffffffffffffffffffffffffffffffffffffff82169050919050565b600061054182610516565b9050919050565b61055181610536565b811461055c57600080fd5b50565b60008135905061056e81610548565b92915050565b6000806040838503121561058b5761058a610214565b5b600083013567ffffffffffffffff8111156105a9576105a8610219565b5b6105b5858286016103a4565b92505060206105c68582860161055f565b9150509250929050565b600081519050919050565b600082825260208201905092915050565b60005b8381101561060a5780820151818401526020810190506105ef565b60008484015250505050565b6000610621826105d0565b61062b81856105db565b935061063b8185602086016105ec565b61064481610223565b840191505092915050565b6106588161036e565b82525050565b600061010083016000830151848203600086015261067c8282610616565b915050602083015184820360208601526106968282610616565b915050604083015184820360408601526106b08282610616565b915050606083015184820360608601526106ca8282610616565b91505060808301516106df608086018261064f565b5060a08301516106f260a086018261064f565b5060c083015184820360c086015261070a8282610616565b91505060e083015184820360e08601526107248282610616565b9150508091505092915050565b61073a81610536565b82525050565b6000604082019050818103600083015261075a818561065e565b90506107696020830184610731565b9392505050565b60008151905061077f81610378565b92915050565b60006020828403121561079b5761079a610214565b5b60006107a984828501610770565b91505092915050565b600082825260208201905092915050565b7f4174746573746174696f6e206661696c65640000000000000000000000000000600082015250565b60006107f96012836107b2565b9150610804826107c3565b602082019050919050565b60006020820190508181036000830152610828816107ec565b9050919050565b6108388161036e565b82525050565b60006060820190506108536000830186610731565b610860602083018561082f565b61086d604083018461082f565b949350505050565b600060408201905061088a600083018561082f565b610897602083018461082f565b939250505056fea26469706673582212209058120e5debba382cfec88a401b73dc6dafac04970e834dc444964d9faf4e0164736f6c63430008130033",
  "devdoc": {
    "kind": "dev",
    "methods": {},
    "version": 1
  },
  "userdoc": {
    "kind": "user",
    "methods": {},
    "version": 1
  },
  "storageLayout": {
    "storage": [
      {
        "astId": 2905,
        "contract": "contracts/Attestation.sol:Attestation",
        "label": "_erc1155Contract",
        "offset": 0,
        "slot": "0",
        "type": "t_contract(CarbonCredits)3070"
      }
    ],
    "types": {
      "t_contract(CarbonCredits)3070": {
        "encoding": "inplace",
        "label": "contract CarbonCredits",
        "numberOfBytes": "20"
      }
    }
  }
}