{
  "address": "0xf41b5E51904730703dbe9c5BA19275d40C643A74",
  "abi": [
    {
      "inputs": [],
      "stateMutability": "nonpayable",
      "type": "constructor"
    },
    {
      "anonymous": false,
      "inputs": [
        {
          "indexed": true,
          "internalType": "address",
          "name": "account",
          "type": "address"
        },
        {
          "indexed": true,
          "internalType": "address",
          "name": "operator",
          "type": "address"
        },
        {
          "indexed": false,
          "internalType": "bool",
          "name": "approved",
          "type": "bool"
        }
      ],
      "name": "ApprovalForAll",
      "type": "event"
    },
    {
      "anonymous": false,
      "inputs": [
        {
          "indexed": true,
          "internalType": "address",
          "name": "previousOwner",
          "type": "address"
        },
        {
          "indexed": true,
          "internalType": "address",
          "name": "newOwner",
          "type": "address"
        }
      ],
      "name": "OwnershipTransferred",
      "type": "event"
    },
    {
      "anonymous": false,
      "inputs": [
        {
          "indexed": true,
          "internalType": "address",
          "name": "operator",
          "type": "address"
        },
        {
          "indexed": true,
          "internalType": "address",
          "name": "from",
          "type": "address"
        },
        {
          "indexed": true,
          "internalType": "address",
          "name": "to",
          "type": "address"
        },
        {
          "indexed": false,
          "internalType": "uint256[]",
          "name": "ids",
          "type": "uint256[]"
        },
        {
          "indexed": false,
          "internalType": "uint256[]",
          "name": "values",
          "type": "uint256[]"
        }
      ],
      "name": "TransferBatch",
      "type": "event"
    },
    {
      "anonymous": false,
      "inputs": [
        {
          "indexed": true,
          "internalType": "address",
          "name": "operator",
          "type": "address"
        },
        {
          "indexed": true,
          "internalType": "address",
          "name": "from",
          "type": "address"
        },
        {
          "indexed": true,
          "internalType": "address",
          "name": "to",
          "type": "address"
        },
        {
          "indexed": false,
          "internalType": "uint256",
          "name": "id",
          "type": "uint256"
        },
        {
          "indexed": false,
          "internalType": "uint256",
          "name": "value",
          "type": "uint256"
        }
      ],
      "name": "TransferSingle",
      "type": "event"
    },
    {
      "anonymous": false,
      "inputs": [
        {
          "indexed": false,
          "internalType": "string",
          "name": "value",
          "type": "string"
        },
        {
          "indexed": true,
          "internalType": "uint256",
          "name": "id",
          "type": "uint256"
        }
      ],
      "name": "URI",
      "type": "event"
    },
    {
      "inputs": [
        {
          "internalType": "address",
          "name": "account",
          "type": "address"
        },
        {
          "internalType": "uint256",
          "name": "id",
          "type": "uint256"
        }
      ],
      "name": "balanceOf",
      "outputs": [
        {
          "internalType": "uint256",
          "name": "",
          "type": "uint256"
        }
      ],
      "stateMutability": "view",
      "type": "function"
    },
    {
      "inputs": [
        {
          "internalType": "address[]",
          "name": "accounts",
          "type": "address[]"
        },
        {
          "internalType": "uint256[]",
          "name": "ids",
          "type": "uint256[]"
        }
      ],
      "name": "balanceOfBatch",
      "outputs": [
        {
          "internalType": "uint256[]",
          "name": "",
          "type": "uint256[]"
        }
      ],
      "stateMutability": "view",
      "type": "function"
    },
    {
      "inputs": [
        {
          "internalType": "address",
          "name": "account",
          "type": "address"
        },
        {
          "internalType": "uint256",
          "name": "id",
          "type": "uint256"
        },
        {
          "internalType": "uint256",
          "name": "amount",
          "type": "uint256"
        }
      ],
      "name": "burn",
      "outputs": [],
      "stateMutability": "nonpayable",
      "type": "function"
    },
    {
      "inputs": [
        {
          "internalType": "address",
          "name": "account",
          "type": "address"
        },
        {
          "internalType": "address",
          "name": "operator",
          "type": "address"
        }
      ],
      "name": "isApprovedForAll",
      "outputs": [
        {
          "internalType": "bool",
          "name": "",
          "type": "bool"
        }
      ],
      "stateMutability": "view",
      "type": "function"
    },
    {
      "inputs": [
        {
          "internalType": "address",
          "name": "account",
          "type": "address"
        },
        {
          "internalType": "uint256",
          "name": "id",
          "type": "uint256"
        },
        {
          "internalType": "uint256",
          "name": "amount",
          "type": "uint256"
        }
      ],
      "name": "mint",
      "outputs": [],
      "stateMutability": "nonpayable",
      "type": "function"
    },
    {
      "inputs": [],
      "name": "owner",
      "outputs": [
        {
          "internalType": "address",
          "name": "",
          "type": "address"
        }
      ],
      "stateMutability": "view",
      "type": "function"
    },
    {
      "inputs": [],
      "name": "renounceOwnership",
      "outputs": [],
      "stateMutability": "nonpayable",
      "type": "function"
    },
    {
      "inputs": [
        {
          "internalType": "address",
          "name": "from",
          "type": "address"
        },
        {
          "internalType": "address",
          "name": "to",
          "type": "address"
        },
        {
          "internalType": "uint256[]",
          "name": "ids",
          "type": "uint256[]"
        },
        {
          "internalType": "uint256[]",
          "name": "amounts",
          "type": "uint256[]"
        },
        {
          "internalType": "bytes",
          "name": "data",
          "type": "bytes"
        }
      ],
      "name": "safeBatchTransferFrom",
      "outputs": [],
      "stateMutability": "nonpayable",
      "type": "function"
    },
    {
      "inputs": [
        {
          "internalType": "address",
          "name": "from",
          "type": "address"
        },
        {
          "internalType": "address",
          "name": "to",
          "type": "address"
        },
        {
          "internalType": "uint256",
          "name": "id",
          "type": "uint256"
        },
        {
          "internalType": "uint256",
          "name": "amount",
          "type": "uint256"
        },
        {
          "internalType": "bytes",
          "name": "data",
          "type": "bytes"
        }
      ],
      "name": "safeTransferFrom",
      "outputs": [],
      "stateMutability": "nonpayable",
      "type": "function"
    },
    {
      "inputs": [
        {
          "internalType": "address",
          "name": "operator",
          "type": "address"
        },
        {
          "internalType": "bool",
          "name": "approved",
          "type": "bool"
        }
      ],
      "name": "setApprovalForAll",
      "outputs": [],
      "stateMutability": "nonpayable",
      "type": "function"
    },
    {
      "inputs": [
        {
          "internalType": "bytes4",
          "name": "interfaceId",
          "type": "bytes4"
        }
      ],
      "name": "supportsInterface",
      "outputs": [
        {
          "internalType": "bool",
          "name": "",
          "type": "bool"
        }
      ],
      "stateMutability": "view",
      "type": "function"
    },
    {
      "inputs": [
        {
          "internalType": "address",
          "name": "newOwner",
          "type": "address"
        }
      ],
      "name": "transferOwnership",
      "outputs": [],
      "stateMutability": "nonpayable",
      "type": "function"
    },
    {
      "inputs": [
        {
          "internalType": "uint256",
          "name": "",
          "type": "uint256"
        }
      ],
      "name": "uri",
      "outputs": [
        {
          "internalType": "string",
          "name": "",
          "type": "string"
        }
      ],
      "stateMutability": "view",
      "type": "function"
    }
  ],
  "transactionHash": "0xb66a3b5d79cfdc2900f68acc50de07e74e2d2ae9a54d3c962f781b18771c8d62",
  "args": [],
  "numDeployments": 1,
  "solcInputHash": "403f5dbd2591b6fcf064c453fbcf2dd6",
  "bytecode": "0x60806040523480156200001157600080fd5b506040518060400160405280600d81526020017f436172626f6e43726564697473000000000000000000000000000000000000008152506200005981620000ef60201b60201c565b506200007a6200006e6200010460201b60201c565b6200010c60201b60201c565b6200009f336001600a60405180602001604052806000815250620001d260201b60201c565b620000c4336002603260405180602001604052806000815250620001d260201b60201c565b620000e9336003606460405180602001604052806000815250620001d260201b60201c565b62000f90565b8060029081620001009190620008b0565b5050565b600033905090565b6000600360009054906101000a900473ffffffffffffffffffffffffffffffffffffffff16905081600360006101000a81548173ffffffffffffffffffffffffffffffffffffffff021916908373ffffffffffffffffffffffffffffffffffffffff1602179055508173ffffffffffffffffffffffffffffffffffffffff168173ffffffffffffffffffffffffffffffffffffffff167f8be0079c531659141344cd1fd0a4f28419497f9722a3daafe3b4186f6b6457e060405160405180910390a35050565b600073ffffffffffffffffffffffffffffffffffffffff168473ffffffffffffffffffffffffffffffffffffffff160362000244576040517f08c379a00000000000000000000000000000000000000000000000000000000081526004016200023b9062000a1e565b60405180910390fd5b6000620002566200010460201b60201c565b90506200028f8160008762000271886200039660201b60201c565b62000282886200039660201b60201c565b876200041760201b60201c565b8260008086815260200190815260200160002060008773ffffffffffffffffffffffffffffffffffffffff1673ffffffffffffffffffffffffffffffffffffffff1681526020019081526020016000206000828254620002f0919062000a6f565b925050819055508473ffffffffffffffffffffffffffffffffffffffff16600073ffffffffffffffffffffffffffffffffffffffff168273ffffffffffffffffffffffffffffffffffffffff167fc3d58168c5ae7397731d063d5bbf3d657854427343f4c083240f7aacaa2d0f6287876040516200037092919062000abb565b60405180910390a46200038f816000878787876200041f60201b60201c565b5050505050565b60606000600167ffffffffffffffff811115620003b857620003b762000641565b5b604051908082528060200260200182016040528015620003e75781602001602082028036833780820191505090505b509050828160008151811062000402576200040162000ae8565b5b60200260200101818152505080915050919050565b505050505050565b620004468473ffffffffffffffffffffffffffffffffffffffff166200061360201b60201c565b156200060b578373ffffffffffffffffffffffffffffffffffffffff1663f23a6e6187878686866040518663ffffffff1660e01b81526004016200048f95949392919062000bf6565b6020604051808303816000875af1925050508015620004ce57506040513d601f19601f82011682018060405250810190620004cb919062000cc6565b60015b6200057f57620004dd62000d05565b806308c379a003620005405750620004f462000d60565b8062000501575062000542565b806040517f08c379a000000000000000000000000000000000000000000000000000000000815260040162000537919062000e3c565b60405180910390fd5b505b6040517f08c379a0000000000000000000000000000000000000000000000000000000008152600401620005769062000ed6565b60405180910390fd5b63f23a6e6160e01b7bffffffffffffffffffffffffffffffffffffffffffffffffffffffff1916817bffffffffffffffffffffffffffffffffffffffffffffffffffffffff19161462000609576040517f08c379a0000000000000000000000000000000000000000000000000000000008152600401620006009062000f6e565b60405180910390fd5b505b505050505050565b6000808273ffffffffffffffffffffffffffffffffffffffff163b119050919050565b600081519050919050565b7f4e487b7100000000000000000000000000000000000000000000000000000000600052604160045260246000fd5b7f4e487b7100000000000000000000000000000000000000000000000000000000600052602260045260246000fd5b60006002820490506001821680620006b857607f821691505b602082108103620006ce57620006cd62000670565b5b50919050565b60008190508160005260206000209050919050565b60006020601f8301049050919050565b600082821b905092915050565b600060088302620007387fffffffffffffffffffffffffffffffffffffffffffffffffffffffffffffffff82620006f9565b620007448683620006f9565b95508019841693508086168417925050509392505050565b6000819050919050565b6000819050919050565b6000620007916200078b62000785846200075c565b62000766565b6200075c565b9050919050565b6000819050919050565b620007ad8362000770565b620007c5620007bc8262000798565b84845462000706565b825550505050565b600090565b620007dc620007cd565b620007e9818484620007a2565b505050565b5b81811015620008115762000805600082620007d2565b600181019050620007ef565b5050565b601f82111562000860576200082a81620006d4565b6200083584620006e9565b8101602085101562000845578190505b6200085d6200085485620006e9565b830182620007ee565b50505b505050565b600082821c905092915050565b6000620008856000198460080262000865565b1980831691505092915050565b6000620008a0838362000872565b9150826002028217905092915050565b620008bb8262000636565b67ffffffffffffffff811115620008d757620008d662000641565b5b620008e382546200069f565b620008f082828562000815565b600060209050601f83116001811462000928576000841562000913578287015190505b6200091f858262000892565b8655506200098f565b601f1984166200093886620006d4565b60005b8281101562000962578489015182556001820191506020850194506020810190506200093b565b868310156200098257848901516200097e601f89168262000872565b8355505b6001600288020188555050505b505050505050565b600082825260208201905092915050565b7f455243313135353a206d696e7420746f20746865207a65726f2061646472657360008201527f7300000000000000000000000000000000000000000000000000000000000000602082015250565b600062000a0660218362000997565b915062000a1382620009a8565b604082019050919050565b6000602082019050818103600083015262000a3981620009f7565b9050919050565b7f4e487b7100000000000000000000000000000000000000000000000000000000600052601160045260246000fd5b600062000a7c826200075c565b915062000a89836200075c565b925082820190508082111562000aa45762000aa362000a40565b5b92915050565b62000ab5816200075c565b82525050565b600060408201905062000ad2600083018562000aaa565b62000ae1602083018462000aaa565b9392505050565b7f4e487b7100000000000000000000000000000000000000000000000000000000600052603260045260246000fd5b600073ffffffffffffffffffffffffffffffffffffffff82169050919050565b600062000b448262000b17565b9050919050565b62000b568162000b37565b82525050565b600081519050919050565b600082825260208201905092915050565b60005b8381101562000b9857808201518184015260208101905062000b7b565b60008484015250505050565b6000601f19601f8301169050919050565b600062000bc28262000b5c565b62000bce818562000b67565b935062000be081856020860162000b78565b62000beb8162000ba4565b840191505092915050565b600060a08201905062000c0d600083018862000b4b565b62000c1c602083018762000b4b565b62000c2b604083018662000aaa565b62000c3a606083018562000aaa565b818103608083015262000c4e818462000bb5565b90509695505050505050565b6000604051905090565b600080fd5b60007fffffffff0000000000000000000000000000000000000000000000000000000082169050919050565b62000ca08162000c69565b811462000cac57600080fd5b50565b60008151905062000cc08162000c95565b92915050565b60006020828403121562000cdf5762000cde62000c64565b5b600062000cef8482850162000caf565b91505092915050565b60008160e01c9050919050565b600060033d111562000d275760046000803e62000d2460005162000cf8565b90505b90565b62000d358262000ba4565b810181811067ffffffffffffffff8211171562000d575762000d5662000641565b5b80604052505050565b600060443d1062000df85762000d7562000c5a565b60043d036004823e80513d602482011167ffffffffffffffff8211171562000d9f57505062000df8565b808201805167ffffffffffffffff81111562000dbf575050505062000df8565b80602083010160043d03850181111562000dde57505050505062000df8565b62000def8260200185018662000d2a565b82955050505050505b90565b600062000e088262000636565b62000e14818562000997565b935062000e2681856020860162000b78565b62000e318162000ba4565b840191505092915050565b6000602082019050818103600083015262000e58818462000dfb565b905092915050565b7f455243313135353a207472616e7366657220746f206e6f6e204552433131353560008201527f526563656976657220696d706c656d656e746572000000000000000000000000602082015250565b600062000ebe60348362000997565b915062000ecb8262000e60565b604082019050919050565b6000602082019050818103600083015262000ef18162000eaf565b9050919050565b7f455243313135353a204552433131353552656365697665722072656a6563746560008201527f6420746f6b656e73000000000000000000000000000000000000000000000000602082015250565b600062000f5660288362000997565b915062000f638262000ef8565b604082019050919050565b6000602082019050818103600083015262000f898162000f47565b9050919050565b6130378062000fa06000396000f3fe608060405234801561001057600080fd5b50600436106100ce5760003560e01c8063715018a61161008c578063e985e9c511610066578063e985e9c51461020f578063f242432a1461023f578063f2fde38b1461025b578063f5298aca14610277576100ce565b8063715018a6146101cb5780638da5cb5b146101d5578063a22cb465146101f3576100ce565b8062fdd58e146100d357806301ffc9a7146101035780630e89341c14610133578063156e29f6146101635780632eb2c2d61461017f5780634e1273f41461019b575b600080fd5b6100ed60048036038101906100e89190611b0f565b610293565b6040516100fa9190611b5e565b60405180910390f35b61011d60048036038101906101189190611bd1565b61035b565b60405161012a9190611c19565b60405180910390f35b61014d60048036038101906101489190611c34565b61043d565b60405161015a9190611cf1565b60405180910390f35b61017d60048036038101906101789190611d13565b6104d1565b005b61019960048036038101906101949190611f63565b6104f1565b005b6101b560048036038101906101b091906120f5565b610592565b6040516101c2919061222b565b60405180910390f35b6101d36106ab565b005b6101dd610733565b6040516101ea919061225c565b60405180910390f35b61020d600480360381019061020891906122a3565b61075d565b005b610229600480360381019061022491906122e3565b610773565b6040516102369190611c19565b60405180910390f35b61025960048036038101906102549190612323565b610807565b005b610275600480360381019061027091906123ba565b6108a8565b005b610291600480360381019061028c9190611d13565b61099f565b005b60008073ffffffffffffffffffffffffffffffffffffffff168373ffffffffffffffffffffffffffffffffffffffff1603610303576040517f08c379a00000000000000000000000000000000000000000000000000000000081526004016102fa90612459565b60405180910390fd5b60008083815260200190815260200160002060008473ffffffffffffffffffffffffffffffffffffffff1673ffffffffffffffffffffffffffffffffffffffff16815260200190815260200160002054905092915050565b60007fd9b67a26000000000000000000000000000000000000000000000000000000007bffffffffffffffffffffffffffffffffffffffffffffffffffffffff1916827bffffffffffffffffffffffffffffffffffffffffffffffffffffffff1916148061042657507f0e89341c000000000000000000000000000000000000000000000000000000007bffffffffffffffffffffffffffffffffffffffffffffffffffffffff1916827bffffffffffffffffffffffffffffffffffffffffffffffffffffffff1916145b80610436575061043582610a2b565b5b9050919050565b60606002805461044c906124a8565b80601f0160208091040260200160405190810160405280929190818152602001828054610478906124a8565b80156104c55780601f1061049a576101008083540402835291602001916104c5565b820191906000526020600020905b8154815290600101906020018083116104a857829003601f168201915b50505050509050919050565b6104ec83838360405180602001604052806000815250610a95565b505050565b6104f9610c2a565b73ffffffffffffffffffffffffffffffffffffffff168573ffffffffffffffffffffffffffffffffffffffff16148061053f575061053e85610539610c2a565b610773565b5b61057e576040517f08c379a00000000000000000000000000000000000000000000000000000000081526004016105759061254b565b60405180910390fd5b61058b8585858585610c32565b5050505050565b606081518351146105d8576040517f08c379a00000000000000000000000000000000000000000000000000000000081526004016105cf906125dd565b60405180910390fd5b6000835167ffffffffffffffff8111156105f5576105f4611d6b565b5b6040519080825280602002602001820160405280156106235781602001602082028036833780820191505090505b50905060005b84518110156106a057610670858281518110610648576106476125fd565b5b6020026020010151858381518110610663576106626125fd565b5b6020026020010151610293565b828281518110610683576106826125fd565b5b602002602001018181525050806106999061265b565b9050610629565b508091505092915050565b6106b3610c2a565b73ffffffffffffffffffffffffffffffffffffffff166106d1610733565b73ffffffffffffffffffffffffffffffffffffffff1614610727576040517f08c379a000000000000000000000000000000000000000000000000000000000815260040161071e906126ef565b60405180910390fd5b6107316000610f45565b565b6000600360009054906101000a900473ffffffffffffffffffffffffffffffffffffffff16905090565b61076f610768610c2a565b838361100b565b5050565b6000600160008473ffffffffffffffffffffffffffffffffffffffff1673ffffffffffffffffffffffffffffffffffffffff16815260200190815260200160002060008373ffffffffffffffffffffffffffffffffffffffff1673ffffffffffffffffffffffffffffffffffffffff16815260200190815260200160002060009054906101000a900460ff16905092915050565b61080f610c2a565b73ffffffffffffffffffffffffffffffffffffffff168573ffffffffffffffffffffffffffffffffffffffff16148061085557506108548561084f610c2a565b610773565b5b610894576040517f08c379a000000000000000000000000000000000000000000000000000000000815260040161088b90612781565b60405180910390fd5b6108a18585858585611177565b5050505050565b6108b0610c2a565b73ffffffffffffffffffffffffffffffffffffffff166108ce610733565b73ffffffffffffffffffffffffffffffffffffffff1614610924576040517f08c379a000000000000000000000000000000000000000000000000000000000815260040161091b906126ef565b60405180910390fd5b600073ffffffffffffffffffffffffffffffffffffffff168173ffffffffffffffffffffffffffffffffffffffff1603610993576040517f08c379a000000000000000000000000000000000000000000000000000000000815260040161098a90612813565b60405180910390fd5b61099c81610f45565b50565b6109a7610c2a565b73ffffffffffffffffffffffffffffffffffffffff166109c5610733565b73ffffffffffffffffffffffffffffffffffffffff1614610a1b576040517f08c379a0000000000000000000000000000000000000000000000000000000008152600401610a12906126ef565b60405180910390fd5b610a268383836113f8565b505050565b60007f01ffc9a7000000000000000000000000000000000000000000000000000000007bffffffffffffffffffffffffffffffffffffffffffffffffffffffff1916827bffffffffffffffffffffffffffffffffffffffffffffffffffffffff1916149050919050565b600073ffffffffffffffffffffffffffffffffffffffff168473ffffffffffffffffffffffffffffffffffffffff1603610b04576040517f08c379a0000000000000000000000000000000000000000000000000000000008152600401610afb906128a5565b60405180910390fd5b6000610b0e610c2a565b9050610b2f81600087610b2088611614565b610b2988611614565b8761168e565b8260008086815260200190815260200160002060008773ffffffffffffffffffffffffffffffffffffffff1673ffffffffffffffffffffffffffffffffffffffff1681526020019081526020016000206000828254610b8e91906128c5565b925050819055508473ffffffffffffffffffffffffffffffffffffffff16600073ffffffffffffffffffffffffffffffffffffffff168273ffffffffffffffffffffffffffffffffffffffff167fc3d58168c5ae7397731d063d5bbf3d657854427343f4c083240f7aacaa2d0f628787604051610c0c9291906128f9565b60405180910390a4610c2381600087878787611696565b5050505050565b600033905090565b8151835114610c76576040517f08c379a0000000000000000000000000000000000000000000000000000000008152600401610c6d90612994565b60405180910390fd5b600073ffffffffffffffffffffffffffffffffffffffff168473ffffffffffffffffffffffffffffffffffffffff1603610ce5576040517f08c379a0000000000000000000000000000000000000000000000000000000008152600401610cdc90612a26565b60405180910390fd5b6000610cef610c2a565b9050610cff81878787878761168e565b60005b8451811015610eb0576000858281518110610d2057610d1f6125fd565b5b602002602001015190506000858381518110610d3f57610d3e6125fd565b5b60200260200101519050600080600084815260200190815260200160002060008b73ffffffffffffffffffffffffffffffffffffffff1673ffffffffffffffffffffffffffffffffffffffff16815260200190815260200160002054905081811015610de0576040517f08c379a0000000000000000000000000000000000000000000000000000000008152600401610dd790612ab8565b60405180910390fd5b81810360008085815260200190815260200160002060008c73ffffffffffffffffffffffffffffffffffffffff1673ffffffffffffffffffffffffffffffffffffffff168152602001908152602001600020819055508160008085815260200190815260200160002060008b73ffffffffffffffffffffffffffffffffffffffff1673ffffffffffffffffffffffffffffffffffffffff1681526020019081526020016000206000828254610e9591906128c5565b9250508190555050505080610ea99061265b565b9050610d02565b508473ffffffffffffffffffffffffffffffffffffffff168673ffffffffffffffffffffffffffffffffffffffff168273ffffffffffffffffffffffffffffffffffffffff167f4a39dc06d4c0dbc64b70af90fd698a233a518aa5d07e595d983b8c0526c8f7fb8787604051610f27929190612ad8565b60405180910390a4610f3d81878787878761186d565b505050505050565b6000600360009054906101000a900473ffffffffffffffffffffffffffffffffffffffff16905081600360006101000a81548173ffffffffffffffffffffffffffffffffffffffff021916908373ffffffffffffffffffffffffffffffffffffffff1602179055508173ffffffffffffffffffffffffffffffffffffffff168173ffffffffffffffffffffffffffffffffffffffff167f8be0079c531659141344cd1fd0a4f28419497f9722a3daafe3b4186f6b6457e060405160405180910390a35050565b8173ffffffffffffffffffffffffffffffffffffffff168373ffffffffffffffffffffffffffffffffffffffff1603611079576040517f08c379a000000000000000000000000000000000000000000000000000000000815260040161107090612b81565b60405180910390fd5b80600160008573ffffffffffffffffffffffffffffffffffffffff1673ffffffffffffffffffffffffffffffffffffffff16815260200190815260200160002060008473ffffffffffffffffffffffffffffffffffffffff1673ffffffffffffffffffffffffffffffffffffffff16815260200190815260200160002060006101000a81548160ff0219169083151502179055508173ffffffffffffffffffffffffffffffffffffffff168373ffffffffffffffffffffffffffffffffffffffff167f17307eab39ab6107e8899845ad3d59bd9653f200f220920489ca2b5937696c318360405161116a9190611c19565b60405180910390a3505050565b600073ffffffffffffffffffffffffffffffffffffffff168473ffffffffffffffffffffffffffffffffffffffff16036111e6576040517f08c379a00000000000000000000000000000000000000000000000000000000081526004016111dd90612a26565b60405180910390fd5b60006111f0610c2a565b905061121081878761120188611614565b61120a88611614565b8761168e565b600080600086815260200190815260200160002060008873ffffffffffffffffffffffffffffffffffffffff1673ffffffffffffffffffffffffffffffffffffffff168152602001908152602001600020549050838110156112a7576040517f08c379a000000000000000000000000000000000000000000000000000000000815260040161129e90612ab8565b60405180910390fd5b83810360008087815260200190815260200160002060008973ffffffffffffffffffffffffffffffffffffffff1673ffffffffffffffffffffffffffffffffffffffff168152602001908152602001600020819055508360008087815260200190815260200160002060008873ffffffffffffffffffffffffffffffffffffffff1673ffffffffffffffffffffffffffffffffffffffff168152602001908152602001600020600082825461135c91906128c5565b925050819055508573ffffffffffffffffffffffffffffffffffffffff168773ffffffffffffffffffffffffffffffffffffffff168373ffffffffffffffffffffffffffffffffffffffff167fc3d58168c5ae7397731d063d5bbf3d657854427343f4c083240f7aacaa2d0f6288886040516113d99291906128f9565b60405180910390a46113ef828888888888611696565b50505050505050565b600073ffffffffffffffffffffffffffffffffffffffff168373ffffffffffffffffffffffffffffffffffffffff1603611467576040517f08c379a000000000000000000000000000000000000000000000000000000000815260040161145e90612c13565b60405180910390fd5b6000611471610c2a565b90506114a18185600061148387611614565b61148c87611614565b6040518060200160405280600081525061168e565b600080600085815260200190815260200160002060008673ffffffffffffffffffffffffffffffffffffffff1673ffffffffffffffffffffffffffffffffffffffff16815260200190815260200160002054905082811015611538576040517f08c379a000000000000000000000000000000000000000000000000000000000815260040161152f90612ca5565b60405180910390fd5b82810360008086815260200190815260200160002060008773ffffffffffffffffffffffffffffffffffffffff1673ffffffffffffffffffffffffffffffffffffffff16815260200190815260200160002081905550600073ffffffffffffffffffffffffffffffffffffffff168573ffffffffffffffffffffffffffffffffffffffff168373ffffffffffffffffffffffffffffffffffffffff167fc3d58168c5ae7397731d063d5bbf3d657854427343f4c083240f7aacaa2d0f6287876040516116059291906128f9565b60405180910390a45050505050565b60606000600167ffffffffffffffff81111561163357611632611d6b565b5b6040519080825280602002602001820160405280156116615781602001602082028036833780820191505090505b5090508281600081518110611679576116786125fd565b5b60200260200101818152505080915050919050565b505050505050565b6116b58473ffffffffffffffffffffffffffffffffffffffff16611a44565b15611865578373ffffffffffffffffffffffffffffffffffffffff1663f23a6e6187878686866040518663ffffffff1660e01b81526004016116fb959493929190612d1a565b6020604051808303816000875af192505050801561173757506040513d601f19601f820116820180604052508101906117349190612d89565b60015b6117dc57611743612dc3565b806308c379a00361179f5750611757612de5565b8061176257506117a1565b806040517f08c379a00000000000000000000000000000000000000000000000000000000081526004016117969190611cf1565b60405180910390fd5b505b6040517f08c379a00000000000000000000000000000000000000000000000000000000081526004016117d390612ee7565b60405180910390fd5b63f23a6e6160e01b7bffffffffffffffffffffffffffffffffffffffffffffffffffffffff1916817bffffffffffffffffffffffffffffffffffffffffffffffffffffffff191614611863576040517f08c379a000000000000000000000000000000000000000000000000000000000815260040161185a90612f79565b60405180910390fd5b505b505050505050565b61188c8473ffffffffffffffffffffffffffffffffffffffff16611a44565b15611a3c578373ffffffffffffffffffffffffffffffffffffffff1663bc197c8187878686866040518663ffffffff1660e01b81526004016118d2959493929190612f99565b6020604051808303816000875af192505050801561190e57506040513d601f19601f8201168201806040525081019061190b9190612d89565b60015b6119b35761191a612dc3565b806308c379a003611976575061192e612de5565b806119395750611978565b806040517f08c379a000000000000000000000000000000000000000000000000000000000815260040161196d9190611cf1565b60405180910390fd5b505b6040517f08c379a00000000000000000000000000000000000000000000000000000000081526004016119aa90612ee7565b60405180910390fd5b63bc197c8160e01b7bffffffffffffffffffffffffffffffffffffffffffffffffffffffff1916817bffffffffffffffffffffffffffffffffffffffffffffffffffffffff191614611a3a576040517f08c379a0000000000000000000000000000000000000000000000000000000008152600401611a3190612f79565b60405180910390fd5b505b505050505050565b6000808273ffffffffffffffffffffffffffffffffffffffff163b119050919050565b6000604051905090565b600080fd5b600080fd5b600073ffffffffffffffffffffffffffffffffffffffff82169050919050565b6000611aa682611a7b565b9050919050565b611ab681611a9b565b8114611ac157600080fd5b50565b600081359050611ad381611aad565b92915050565b6000819050919050565b611aec81611ad9565b8114611af757600080fd5b50565b600081359050611b0981611ae3565b92915050565b60008060408385031215611b2657611b25611a71565b5b6000611b3485828601611ac4565b9250506020611b4585828601611afa565b9150509250929050565b611b5881611ad9565b82525050565b6000602082019050611b736000830184611b4f565b92915050565b60007fffffffff0000000000000000000000000000000000000000000000000000000082169050919050565b611bae81611b79565b8114611bb957600080fd5b50565b600081359050611bcb81611ba5565b92915050565b600060208284031215611be757611be6611a71565b5b6000611bf584828501611bbc565b91505092915050565b60008115159050919050565b611c1381611bfe565b82525050565b6000602082019050611c2e6000830184611c0a565b92915050565b600060208284031215611c4a57611c49611a71565b5b6000611c5884828501611afa565b91505092915050565b600081519050919050565b600082825260208201905092915050565b60005b83811015611c9b578082015181840152602081019050611c80565b60008484015250505050565b6000601f19601f8301169050919050565b6000611cc382611c61565b611ccd8185611c6c565b9350611cdd818560208601611c7d565b611ce681611ca7565b840191505092915050565b60006020820190508181036000830152611d0b8184611cb8565b905092915050565b600080600060608486031215611d2c57611d2b611a71565b5b6000611d3a86828701611ac4565b9350506020611d4b86828701611afa565b9250506040611d5c86828701611afa565b9150509250925092565b600080fd5b7f4e487b7100000000000000000000000000000000000000000000000000000000600052604160045260246000fd5b611da382611ca7565b810181811067ffffffffffffffff82111715611dc257611dc1611d6b565b5b80604052505050565b6000611dd5611a67565b9050611de18282611d9a565b919050565b600067ffffffffffffffff821115611e0157611e00611d6b565b5b602082029050602081019050919050565b600080fd5b6000611e2a611e2584611de6565b611dcb565b90508083825260208201905060208402830185811115611e4d57611e4c611e12565b5b835b81811015611e765780611e628882611afa565b845260208401935050602081019050611e4f565b5050509392505050565b600082601f830112611e9557611e94611d66565b5b8135611ea5848260208601611e17565b91505092915050565b600080fd5b600067ffffffffffffffff821115611ece57611ecd611d6b565b5b611ed782611ca7565b9050602081019050919050565b82818337600083830152505050565b6000611f06611f0184611eb3565b611dcb565b905082815260208101848484011115611f2257611f21611eae565b5b611f2d848285611ee4565b509392505050565b600082601f830112611f4a57611f49611d66565b5b8135611f5a848260208601611ef3565b91505092915050565b600080600080600060a08688031215611f7f57611f7e611a71565b5b6000611f8d88828901611ac4565b9550506020611f9e88828901611ac4565b945050604086013567ffffffffffffffff811115611fbf57611fbe611a76565b5b611fcb88828901611e80565b935050606086013567ffffffffffffffff811115611fec57611feb611a76565b5b611ff888828901611e80565b925050608086013567ffffffffffffffff81111561201957612018611a76565b5b61202588828901611f35565b9150509295509295909350565b600067ffffffffffffffff82111561204d5761204c611d6b565b5b602082029050602081019050919050565b600061207161206c84612032565b611dcb565b9050808382526020820190506020840283018581111561209457612093611e12565b5b835b818110156120bd57806120a98882611ac4565b845260208401935050602081019050612096565b5050509392505050565b600082601f8301126120dc576120db611d66565b5b81356120ec84826020860161205e565b91505092915050565b6000806040838503121561210c5761210b611a71565b5b600083013567ffffffffffffffff81111561212a57612129611a76565b5b612136858286016120c7565b925050602083013567ffffffffffffffff81111561215757612156611a76565b5b61216385828601611e80565b9150509250929050565b600081519050919050565b600082825260208201905092915050565b6000819050602082019050919050565b6121a281611ad9565b82525050565b60006121b48383612199565b60208301905092915050565b6000602082019050919050565b60006121d88261216d565b6121e28185612178565b93506121ed83612189565b8060005b8381101561221e57815161220588826121a8565b9750612210836121c0565b9250506001810190506121f1565b5085935050505092915050565b6000602082019050818103600083015261224581846121cd565b905092915050565b61225681611a9b565b82525050565b6000602082019050612271600083018461224d565b92915050565b61228081611bfe565b811461228b57600080fd5b50565b60008135905061229d81612277565b92915050565b600080604083850312156122ba576122b9611a71565b5b60006122c885828601611ac4565b92505060206122d98582860161228e565b9150509250929050565b600080604083850312156122fa576122f9611a71565b5b600061230885828601611ac4565b925050602061231985828601611ac4565b9150509250929050565b600080600080600060a0868803121561233f5761233e611a71565b5b600061234d88828901611ac4565b955050602061235e88828901611ac4565b945050604061236f88828901611afa565b935050606061238088828901611afa565b925050608086013567ffffffffffffffff8111156123a1576123a0611a76565b5b6123ad88828901611f35565b9150509295509295909350565b6000602082840312156123d0576123cf611a71565b5b60006123de84828501611ac4565b91505092915050565b7f455243313135353a2062616c616e636520717565727920666f7220746865207a60008201527f65726f2061646472657373000000000000000000000000000000000000000000602082015250565b6000612443602b83611c6c565b915061244e826123e7565b604082019050919050565b6000602082019050818103600083015261247281612436565b9050919050565b7f4e487b7100000000000000000000000000000000000000000000000000000000600052602260045260246000fd5b600060028204905060018216806124c057607f821691505b6020821081036124d3576124d2612479565b5b50919050565b7f455243313135353a207472616e736665722063616c6c6572206973206e6f742060008201527f6f776e6572206e6f7220617070726f7665640000000000000000000000000000602082015250565b6000612535603283611c6c565b9150612540826124d9565b604082019050919050565b6000602082019050818103600083015261256481612528565b9050919050565b7f455243313135353a206163636f756e747320616e6420696473206c656e67746860008201527f206d69736d617463680000000000000000000000000000000000000000000000602082015250565b60006125c7602983611c6c565b91506125d28261256b565b604082019050919050565b600060208201905081810360008301526125f6816125ba565b9050919050565b7f4e487b7100000000000000000000000000000000000000000000000000000000600052603260045260246000fd5b7f4e487b7100000000000000000000000000000000000000000000000000000000600052601160045260246000fd5b600061266682611ad9565b91507fffffffffffffffffffffffffffffffffffffffffffffffffffffffffffffffff82036126985761269761262c565b5b600182019050919050565b7f4f776e61626c653a2063616c6c6572206973206e6f7420746865206f776e6572600082015250565b60006126d9602083611c6c565b91506126e4826126a3565b602082019050919050565b60006020820190508181036000830152612708816126cc565b9050919050565b7f455243313135353a2063616c6c6572206973206e6f74206f776e6572206e6f7260008201527f20617070726f7665640000000000000000000000000000000000000000000000602082015250565b600061276b602983611c6c565b91506127768261270f565b604082019050919050565b6000602082019050818103600083015261279a8161275e565b9050919050565b7f4f776e61626c653a206e6577206f776e657220697320746865207a65726f206160008201527f6464726573730000000000000000000000000000000000000000000000000000602082015250565b60006127fd602683611c6c565b9150612808826127a1565b604082019050919050565b6000602082019050818103600083015261282c816127f0565b9050919050565b7f455243313135353a206d696e7420746f20746865207a65726f2061646472657360008201527f7300000000000000000000000000000000000000000000000000000000000000602082015250565b600061288f602183611c6c565b915061289a82612833565b604082019050919050565b600060208201905081810360008301526128be81612882565b9050919050565b60006128d082611ad9565b91506128db83611ad9565b92508282019050808211156128f3576128f261262c565b5b92915050565b600060408201905061290e6000830185611b4f565b61291b6020830184611b4f565b9392505050565b7f455243313135353a2069647320616e6420616d6f756e7473206c656e6774682060008201527f6d69736d61746368000000000000000000000000000000000000000000000000602082015250565b600061297e602883611c6c565b915061298982612922565b604082019050919050565b600060208201905081810360008301526129ad81612971565b9050919050565b7f455243313135353a207472616e7366657220746f20746865207a65726f20616460008201527f6472657373000000000000000000000000000000000000000000000000000000602082015250565b6000612a10602583611c6c565b9150612a1b826129b4565b604082019050919050565b60006020820190508181036000830152612a3f81612a03565b9050919050565b7f455243313135353a20696e73756666696369656e742062616c616e636520666f60008201527f72207472616e7366657200000000000000000000000000000000000000000000602082015250565b6000612aa2602a83611c6c565b9150612aad82612a46565b604082019050919050565b60006020820190508181036000830152612ad181612a95565b9050919050565b60006040820190508181036000830152612af281856121cd565b90508181036020830152612b0681846121cd565b90509392505050565b7f455243313135353a2073657474696e6720617070726f76616c2073746174757360008201527f20666f722073656c660000000000000000000000000000000000000000000000602082015250565b6000612b6b602983611c6c565b9150612b7682612b0f565b604082019050919050565b60006020820190508181036000830152612b9a81612b5e565b9050919050565b7f455243313135353a206275726e2066726f6d20746865207a65726f206164647260008201527f6573730000000000000000000000000000000000000000000000000000000000602082015250565b6000612bfd602383611c6c565b9150612c0882612ba1565b604082019050919050565b60006020820190508181036000830152612c2c81612bf0565b9050919050565b7f455243313135353a206275726e20616d6f756e7420657863656564732062616c60008201527f616e636500000000000000000000000000000000000000000000000000000000602082015250565b6000612c8f602483611c6c565b9150612c9a82612c33565b604082019050919050565b60006020820190508181036000830152612cbe81612c82565b9050919050565b600081519050919050565b600082825260208201905092915050565b6000612cec82612cc5565b612cf68185612cd0565b9350612d06818560208601611c7d565b612d0f81611ca7565b840191505092915050565b600060a082019050612d2f600083018861224d565b612d3c602083018761224d565b612d496040830186611b4f565b612d566060830185611b4f565b8181036080830152612d688184612ce1565b90509695505050505050565b600081519050612d8381611ba5565b92915050565b600060208284031215612d9f57612d9e611a71565b5b6000612dad84828501612d74565b91505092915050565b60008160e01c9050919050565b600060033d1115612de25760046000803e612ddf600051612db6565b90505b90565b600060443d10612e7257612df7611a67565b60043d036004823e80513d602482011167ffffffffffffffff82111715612e1f575050612e72565b808201805167ffffffffffffffff811115612e3d5750505050612e72565b80602083010160043d038501811115612e5a575050505050612e72565b612e6982602001850186611d9a565b82955050505050505b90565b7f455243313135353a207472616e7366657220746f206e6f6e204552433131353560008201527f526563656976657220696d706c656d656e746572000000000000000000000000602082015250565b6000612ed1603483611c6c565b9150612edc82612e75565b604082019050919050565b60006020820190508181036000830152612f0081612ec4565b9050919050565b7f455243313135353a204552433131353552656365697665722072656a6563746560008201527f6420746f6b656e73000000000000000000000000000000000000000000000000602082015250565b6000612f63602883611c6c565b9150612f6e82612f07565b604082019050919050565b60006020820190508181036000830152612f9281612f56565b9050919050565b600060a082019050612fae600083018861224d565b612fbb602083018761224d565b8181036040830152612fcd81866121cd565b90508181036060830152612fe181856121cd565b90508181036080830152612ff58184612ce1565b9050969550505050505056fea2646970667358221220633cb5c10b9b0f3242ba5ecbbaae4a1ddd60d8c408869197f67b657b25ff843464736f6c63430008130033",
  "devdoc": {
    "events": {
      "ApprovalForAll(address,address,bool)": {
        "details": "Emitted when `account` grants or revokes permission to `operator` to transfer their tokens, according to `approved`."
      },
      "TransferBatch(address,address,address,uint256[],uint256[])": {
        "details": "Equivalent to multiple {TransferSingle} events, where `operator`, `from` and `to` are the same for all transfers."
      },
      "TransferSingle(address,address,address,uint256,uint256)": {
        "details": "Emitted when `value` tokens of token type `id` are transferred from `from` to `to` by `operator`."
      },
      "URI(string,uint256)": {
        "details": "Emitted when the URI for token type `id` changes to `value`, if it is a non-programmatic URI. If an {URI} event was emitted for `id`, the standard https://eips.ethereum.org/EIPS/eip-1155#metadata-extensions[guarantees] that `value` will equal the value returned by {IERC1155MetadataURI-uri}."
      }
    },
    "kind": "dev",
    "methods": {
      "balanceOf(address,uint256)": {
        "details": "See {IERC1155-balanceOf}. Requirements: - `account` cannot be the zero address."
      },
      "balanceOfBatch(address[],uint256[])": {
        "details": "See {IERC1155-balanceOfBatch}. Requirements: - `accounts` and `ids` must have the same length."
      },
      "isApprovedForAll(address,address)": {
        "details": "See {IERC1155-isApprovedForAll}."
      },
      "owner()": {
        "details": "Returns the address of the current owner."
      },
      "renounceOwnership()": {
        "details": "Leaves the contract without owner. It will not be possible to call `onlyOwner` functions anymore. Can only be called by the current owner. NOTE: Renouncing ownership will leave the contract without an owner, thereby removing any functionality that is only available to the owner."
      },
      "safeBatchTransferFrom(address,address,uint256[],uint256[],bytes)": {
        "details": "See {IERC1155-safeBatchTransferFrom}."
      },
      "safeTransferFrom(address,address,uint256,uint256,bytes)": {
        "details": "See {IERC1155-safeTransferFrom}."
      },
      "setApprovalForAll(address,bool)": {
        "details": "See {IERC1155-setApprovalForAll}."
      },
      "supportsInterface(bytes4)": {
        "details": "See {IERC165-supportsInterface}."
      },
      "transferOwnership(address)": {
        "details": "Transfers ownership of the contract to a new account (`newOwner`). Can only be called by the current owner."
      },
      "uri(uint256)": {
        "details": "See {IERC1155MetadataURI-uri}. This implementation returns the same URI for *all* token types. It relies on the token type ID substitution mechanism https://eips.ethereum.org/EIPS/eip-1155#metadata[defined in the EIP]. Clients calling this function must replace the `\\{id\\}` substring with the actual token type ID."
      }
    },
    "version": 1
  },
  "userdoc": {
    "kind": "user",
    "methods": {},
    "version": 1
  },
  "storageLayout": {
    "storage": [
      {
        "astId": 130,
        "contract": "contracts/CarbonCredits.sol:CarbonCredits",
        "label": "_balances",
        "offset": 0,
        "slot": "0",
        "type": "t_mapping(t_uint256,t_mapping(t_address,t_uint256))"
      },
      {
        "astId": 136,
        "contract": "contracts/CarbonCredits.sol:CarbonCredits",
        "label": "_operatorApprovals",
        "offset": 0,
        "slot": "1",
        "type": "t_mapping(t_address,t_mapping(t_address,t_bool))"
      },
      {
        "astId": 138,
        "contract": "contracts/CarbonCredits.sol:CarbonCredits",
        "label": "_uri",
        "offset": 0,
        "slot": "2",
        "type": "t_string_storage"
      },
      {
        "astId": 7,
        "contract": "contracts/CarbonCredits.sol:CarbonCredits",
        "label": "_owner",
        "offset": 0,
        "slot": "3",
        "type": "t_address"
      }
    ],
    "types": {
      "t_address": {
        "encoding": "inplace",
        "label": "address",
        "numberOfBytes": "20"
      },
      "t_bool": {
        "encoding": "inplace",
        "label": "bool",
        "numberOfBytes": "1"
      },
      "t_mapping(t_address,t_bool)": {
        "encoding": "mapping",
        "key": "t_address",
        "label": "mapping(address => bool)",
        "numberOfBytes": "32",
        "value": "t_bool"
      },
      "t_mapping(t_address,t_mapping(t_address,t_bool))": {
        "encoding": "mapping",
        "key": "t_address",
        "label": "mapping(address => mapping(address => bool))",
        "numberOfBytes": "32",
        "value": "t_mapping(t_address,t_bool)"
      },
      "t_mapping(t_address,t_uint256)": {
        "encoding": "mapping",
        "key": "t_address",
        "label": "mapping(address => uint256)",
        "numberOfBytes": "32",
        "value": "t_uint256"
      },
      "t_mapping(t_uint256,t_mapping(t_address,t_uint256))": {
        "encoding": "mapping",
        "key": "t_uint256",
        "label": "mapping(uint256 => mapping(address => uint256))",
        "numberOfBytes": "32",
        "value": "t_mapping(t_address,t_uint256)"
      },
      "t_string_storage": {
        "encoding": "bytes",
        "label": "string",
        "numberOfBytes": "32"
      },
      "t_uint256": {
        "encoding": "inplace",
        "label": "uint256",
        "numberOfBytes": "32"
      }
    }
  }
}