{
  "address": "0x2A8d933C1644dBC51811E41860E9cB6aa80e50e9",
  "abi": [
    {
      "inputs": [
        {
          "internalType": "address",
          "name": "_erc1155Token",
          "type": "address"
        },
        {
          "internalType": "address",
          "name": "_erc20Token",
          "type": "address"
        }
      ],
      "stateMutability": "nonpayable",
      "type": "constructor"
    },
    {
      "anonymous": false,
      "inputs": [
        {
          "indexed": true,
          "internalType": "address",
          "name": "account",
          "type": "address"
        },
        {
          "indexed": false,
          "internalType": "uint256",
          "name": "tokenId",
          "type": "uint256"
        },
        {
          "indexed": false,
          "internalType": "uint256",
          "name": "amount",
          "type": "uint256"
        }
      ],
      "name": "Deposit",
      "type": "event"
    },
    {
      "anonymous": false,
      "inputs": [
        {
          "indexed": true,
          "internalType": "address",
          "name": "previousOwner",
          "type": "address"
        },
        {
          "indexed": true,
          "internalType": "address",
          "name": "newOwner",
          "type": "address"
        }
      ],
      "name": "OwnershipTransferred",
      "type": "event"
    },
    {
      "anonymous": false,
      "inputs": [
        {
          "indexed": true,
          "internalType": "address",
          "name": "user",
          "type": "address"
        },
        {
          "indexed": false,
          "internalType": "uint256",
          "name": "tokenId",
          "type": "uint256"
        },
        {
          "indexed": false,
          "internalType": "uint256",
          "name": "erc1155Amount",
          "type": "uint256"
        },
        {
          "indexed": false,
          "internalType": "uint256",
          "name": "erc20Amount",
          "type": "uint256"
        }
      ],
      "name": "SwapERC1155ForERC20",
      "type": "event"
    },
    {
      "anonymous": false,
      "inputs": [
        {
          "indexed": true,
          "internalType": "address",
          "name": "user",
          "type": "address"
        },
        {
          "indexed": false,
          "internalType": "uint256",
          "name": "erc20Amount",
          "type": "uint256"
        },
        {
          "indexed": false,
          "internalType": "uint256",
          "name": "tokenId",
          "type": "uint256"
        },
        {
          "indexed": false,
          "internalType": "uint256",
          "name": "erc1155Amount",
          "type": "uint256"
        }
      ],
      "name": "SwapERC20ForERC1155",
      "type": "event"
    },
    {
      "anonymous": false,
      "inputs": [
        {
          "indexed": true,
          "internalType": "address",
          "name": "account",
          "type": "address"
        },
        {
          "indexed": false,
          "internalType": "uint256",
          "name": "tokenId",
          "type": "uint256"
        },
        {
          "indexed": false,
          "internalType": "uint256",
          "name": "amount",
          "type": "uint256"
        }
      ],
      "name": "Withdrawal",
      "type": "event"
    },
    {
      "inputs": [],
      "name": "erc1155Token",
      "outputs": [
        {
          "internalType": "contract IERC1155",
          "name": "",
          "type": "address"
        }
      ],
      "stateMutability": "view",
      "type": "function"
    },
    {
      "inputs": [],
      "name": "erc20Token",
      "outputs": [
        {
          "internalType": "contract IERC20",
          "name": "",
          "type": "address"
        }
      ],
      "stateMutability": "view",
      "type": "function"
    },
    {
      "inputs": [
        {
          "internalType": "uint256",
          "name": "erc1155Amount",
          "type": "uint256"
        },
        {
          "internalType": "uint256",
          "name": "tokenId",
          "type": "uint256"
        }
      ],
      "name": "getQuoteERC1155ToERC20",
      "outputs": [
        {
          "internalType": "uint256",
          "name": "erc20Amount",
          "type": "uint256"
        }
      ],
      "stateMutability": "view",
      "type": "function"
    },
    {
      "inputs": [
        {
          "internalType": "uint256",
          "name": "erc20Amount",
          "type": "uint256"
        },
        {
          "internalType": "uint256",
          "name": "tokenId",
          "type": "uint256"
        }
      ],
      "name": "getQuoteERC20ToERC1155",
      "outputs": [
        {
          "internalType": "uint256",
          "name": "erc1155Amount",
          "type": "uint256"
        }
      ],
      "stateMutability": "view",
      "type": "function"
    },
    {
      "inputs": [
        {
          "internalType": "address",
          "name": "",
          "type": "address"
        },
        {
          "internalType": "address",
          "name": "",
          "type": "address"
        },
        {
          "internalType": "uint256[]",
          "name": "",
          "type": "uint256[]"
        },
        {
          "internalType": "uint256[]",
          "name": "",
          "type": "uint256[]"
        },
        {
          "internalType": "bytes",
          "name": "",
          "type": "bytes"
        }
      ],
      "name": "onERC1155BatchReceived",
      "outputs": [
        {
          "internalType": "bytes4",
          "name": "",
          "type": "bytes4"
        }
      ],
      "stateMutability": "nonpayable",
      "type": "function"
    },
    {
      "inputs": [
        {
          "internalType": "address",
          "name": "",
          "type": "address"
        },
        {
          "internalType": "address",
          "name": "",
          "type": "address"
        },
        {
          "internalType": "uint256",
          "name": "",
          "type": "uint256"
        },
        {
          "internalType": "uint256",
          "name": "",
          "type": "uint256"
        },
        {
          "internalType": "bytes",
          "name": "",
          "type": "bytes"
        }
      ],
      "name": "onERC1155Received",
      "outputs": [
        {
          "internalType": "bytes4",
          "name": "",
          "type": "bytes4"
        }
      ],
      "stateMutability": "nonpayable",
      "type": "function"
    },
    {
      "inputs": [],
      "name": "owner",
      "outputs": [
        {
          "internalType": "address",
          "name": "",
          "type": "address"
        }
      ],
      "stateMutability": "view",
      "type": "function"
    },
    {
      "inputs": [],
      "name": "renounceOwnership",
      "outputs": [],
      "stateMutability": "nonpayable",
      "type": "function"
    },
    {
      "inputs": [
        {
          "internalType": "bytes4",
          "name": "interfaceId",
          "type": "bytes4"
        }
      ],
      "name": "supportsInterface",
      "outputs": [
        {
          "internalType": "bool",
          "name": "",
          "type": "bool"
        }
      ],
      "stateMutability": "view",
      "type": "function"
    },
    {
      "inputs": [
        {
          "internalType": "uint256",
          "name": "tokenId",
          "type": "uint256"
        },
        {
          "internalType": "uint256",
          "name": "erc1155Amount",
          "type": "uint256"
        }
      ],
      "name": "swapERC1155ForERC20",
      "outputs": [],
      "stateMutability": "nonpayable",
      "type": "function"
    },
    {
      "inputs": [
        {
          "internalType": "uint256",
          "name": "erc20Amount",
          "type": "uint256"
        },
        {
          "internalType": "uint256",
          "name": "tokenId",
          "type": "uint256"
        }
      ],
      "name": "swapERC20ForERC1155",
      "outputs": [],
      "stateMutability": "nonpayable",
      "type": "function"
    },
    {
      "inputs": [
        {
          "internalType": "address",
          "name": "newOwner",
          "type": "address"
        }
      ],
      "name": "transferOwnership",
      "outputs": [],
      "stateMutability": "nonpayable",
      "type": "function"
    }
  ],
  "transactionHash": "0x768625b2a65d7ee4a0fa72cf5f3feb27d629d8464a8c971d158358138616b1a1",
  "args": [
    "0xf41b5E51904730703dbe9c5BA19275d40C643A74",
    "0x60e5AE2BBecB3294a458f563b464395F4DE493a4"
  ],
  "numDeployments": 1,
  "solcInputHash": "679e7405be37d997deced7f7e35e9dad",
  "bytecode": "0x60806040523480156200001157600080fd5b5060405162001bdb38038062001bdb833981810160405281019062000037919062000217565b620000576200004b620000e160201b60201c565b620000e960201b60201c565b81600160006101000a81548173ffffffffffffffffffffffffffffffffffffffff021916908373ffffffffffffffffffffffffffffffffffffffff16021790555080600260006101000a81548173ffffffffffffffffffffffffffffffffffffffff021916908373ffffffffffffffffffffffffffffffffffffffff16021790555050506200025e565b600033905090565b60008060009054906101000a900473ffffffffffffffffffffffffffffffffffffffff169050816000806101000a81548173ffffffffffffffffffffffffffffffffffffffff021916908373ffffffffffffffffffffffffffffffffffffffff1602179055508173ffffffffffffffffffffffffffffffffffffffff168173ffffffffffffffffffffffffffffffffffffffff167f8be0079c531659141344cd1fd0a4f28419497f9722a3daafe3b4186f6b6457e060405160405180910390a35050565b600080fd5b600073ffffffffffffffffffffffffffffffffffffffff82169050919050565b6000620001df82620001b2565b9050919050565b620001f181620001d2565b8114620001fd57600080fd5b50565b6000815190506200021181620001e6565b92915050565b60008060408385031215620002315762000230620001ad565b5b6000620002418582860162000200565b9250506020620002548582860162000200565b9150509250929050565b61196d806200026e6000396000f3fe608060405234801561001057600080fd5b50600436106100b45760003560e01c8063bc124c5811610071578063bc124c581461017d578063bc197c8114610199578063c215a97c146101c9578063d7695990146101e5578063f23a6e6114610215578063f2fde38b14610245576100b4565b806301ffc9a7146100b957806321f42268146100e9578063715018a6146101075780638a13eea7146101115780638da5cb5b1461012f57806393068df21461014d575b600080fd5b6100d360048036038101906100ce9190610e89565b610261565b6040516100e09190610ed1565b60405180910390f35b6100f16102db565b6040516100fe9190610f6b565b60405180910390f35b61010f610301565b005b610119610389565b6040516101269190610fa7565b60405180910390f35b6101376103af565b6040516101449190610fe3565b60405180910390f35b61016760048036038101906101629190611034565b6103d8565b6040516101749190611083565b60405180910390f35b61019760048036038101906101929190611034565b61058c565b005b6101b360048036038101906101ae91906112d8565b6107b8565b6040516101c091906113b6565b60405180910390f35b6101e360048036038101906101de9190611034565b6107cd565b005b6101ff60048036038101906101fa9190611034565b6109fb565b60405161020c9190611083565b60405180910390f35b61022f600480360381019061022a91906113d1565b610baf565b60405161023c91906113b6565b60405180910390f35b61025f600480360381019061025a9190611468565b610bc4565b005b60007f4e2312e0000000000000000000000000000000000000000000000000000000007bffffffffffffffffffffffffffffffffffffffffffffffffffffffff1916827bffffffffffffffffffffffffffffffffffffffffffffffffffffffff191614806102d457506102d382610cbb565b5b9050919050565b600160009054906101000a900473ffffffffffffffffffffffffffffffffffffffff1681565b610309610d25565b73ffffffffffffffffffffffffffffffffffffffff166103276103af565b73ffffffffffffffffffffffffffffffffffffffff161461037d576040517f08c379a0000000000000000000000000000000000000000000000000000000008152600401610374906114f2565b60405180910390fd5b6103876000610d2d565b565b600260009054906101000a900473ffffffffffffffffffffffffffffffffffffffff1681565b60008060009054906101000a900473ffffffffffffffffffffffffffffffffffffffff16905090565b600080831161041c576040517f08c379a00000000000000000000000000000000000000000000000000000000081526004016104139061155e565b60405180910390fd5b6000600260009054906101000a900473ffffffffffffffffffffffffffffffffffffffff1673ffffffffffffffffffffffffffffffffffffffff166370a08231306040518263ffffffff1660e01b81526004016104799190610fe3565b602060405180830381865afa158015610496573d6000803e3d6000fd5b505050506040513d601f19601f820116820180604052508101906104ba9190611593565b90506000600160009054906101000a900473ffffffffffffffffffffffffffffffffffffffff1673ffffffffffffffffffffffffffffffffffffffff1662fdd58e30866040518363ffffffff1660e01b815260040161051a9291906115c0565b602060405180830381865afa158015610537573d6000803e3d6000fd5b505050506040513d601f19601f8201168201806040525081019061055b9190611593565b9050610582826105748388610df190919063ffffffff16565b610e0790919063ffffffff16565b9250505092915050565b600081116105cf576040517f08c379a00000000000000000000000000000000000000000000000000000000081526004016105c690611635565b60405180910390fd5b60006105db82846109fb565b9050600160009054906101000a900473ffffffffffffffffffffffffffffffffffffffff1673ffffffffffffffffffffffffffffffffffffffff1663f242432a333086866040518563ffffffff1660e01b815260040161063e949392919061168c565b600060405180830381600087803b15801561065857600080fd5b505af115801561066c573d6000803e3d6000fd5b50505050600260009054906101000a900473ffffffffffffffffffffffffffffffffffffffff1673ffffffffffffffffffffffffffffffffffffffff1663a9059cbb33836040518363ffffffff1660e01b81526004016106cd9291906115c0565b6020604051808303816000875af11580156106ec573d6000803e3d6000fd5b505050506040513d601f19601f820116820180604052508101906107109190611710565b503373ffffffffffffffffffffffffffffffffffffffff167fdf273cb619d95419a9cd0ec88123a0538c85064229baa6363788f743fff90deb848460405161075992919061173d565b60405180910390a23373ffffffffffffffffffffffffffffffffffffffff167f048b2ef2f7efb11fef3b83a2e524d39e3d9366a7cd9a756981f750e5ab527db48484846040516107ab93929190611766565b60405180910390a2505050565b600063bc197c8160e01b905095945050505050565b60008211610810576040517f08c379a00000000000000000000000000000000000000000000000000000000081526004016108079061155e565b60405180910390fd5b600061081c83836103d8565b9050600260009054906101000a900473ffffffffffffffffffffffffffffffffffffffff1673ffffffffffffffffffffffffffffffffffffffff166323b872dd3330866040518463ffffffff1660e01b815260040161087d9392919061179d565b6020604051808303816000875af115801561089c573d6000803e3d6000fd5b505050506040513d601f19601f820116820180604052508101906108c09190611710565b50600160009054906101000a900473ffffffffffffffffffffffffffffffffffffffff1673ffffffffffffffffffffffffffffffffffffffff1663f242432a333085856040518563ffffffff1660e01b8152600401610922949392919061168c565b600060405180830381600087803b15801561093c57600080fd5b505af1158015610950573d6000803e3d6000fd5b505050503373ffffffffffffffffffffffffffffffffffffffff167f90890809c654f11d6e72a28fa60149770a0d11ec6c92319d6ceb2bb0a4ea1a15838360405161099c92919061173d565b60405180910390a23373ffffffffffffffffffffffffffffffffffffffff167f72d229d9b6fbfec38d163ea1310b2549d831f540e79b7194a93fe94b843789878484846040516109ee93929190611766565b60405180910390a2505050565b6000808311610a3f576040517f08c379a0000000000000000000000000000000000000000000000000000000008152600401610a3690611635565b60405180910390fd5b6000600260009054906101000a900473ffffffffffffffffffffffffffffffffffffffff1673ffffffffffffffffffffffffffffffffffffffff166370a08231306040518263ffffffff1660e01b8152600401610a9c9190610fe3565b602060405180830381865afa158015610ab9573d6000803e3d6000fd5b505050506040513d601f19601f82011682018060405250810190610add9190611593565b90506000600160009054906101000a900473ffffffffffffffffffffffffffffffffffffffff1673ffffffffffffffffffffffffffffffffffffffff1662fdd58e30866040518363ffffffff1660e01b8152600401610b3d9291906115c0565b602060405180830381865afa158015610b5a573d6000803e3d6000fd5b505050506040513d601f19601f82011682018060405250810190610b7e9190611593565b9050610ba581610b978488610df190919063ffffffff16565b610e0790919063ffffffff16565b9250505092915050565b600063f23a6e6160e01b905095945050505050565b610bcc610d25565b73ffffffffffffffffffffffffffffffffffffffff16610bea6103af565b73ffffffffffffffffffffffffffffffffffffffff1614610c40576040517f08c379a0000000000000000000000000000000000000000000000000000000008152600401610c37906114f2565b60405180910390fd5b600073ffffffffffffffffffffffffffffffffffffffff168173ffffffffffffffffffffffffffffffffffffffff1603610caf576040517f08c379a0000000000000000000000000000000000000000000000000000000008152600401610ca690611846565b60405180910390fd5b610cb881610d2d565b50565b60007f01ffc9a7000000000000000000000000000000000000000000000000000000007bffffffffffffffffffffffffffffffffffffffffffffffffffffffff1916827bffffffffffffffffffffffffffffffffffffffffffffffffffffffff1916149050919050565b600033905090565b60008060009054906101000a900473ffffffffffffffffffffffffffffffffffffffff169050816000806101000a81548173ffffffffffffffffffffffffffffffffffffffff021916908373ffffffffffffffffffffffffffffffffffffffff1602179055508173ffffffffffffffffffffffffffffffffffffffff168173ffffffffffffffffffffffffffffffffffffffff167f8be0079c531659141344cd1fd0a4f28419497f9722a3daafe3b4186f6b6457e060405160405180910390a35050565b60008183610dff9190611895565b905092915050565b60008183610e159190611906565b905092915050565b6000604051905090565b600080fd5b600080fd5b60007fffffffff0000000000000000000000000000000000000000000000000000000082169050919050565b610e6681610e31565b8114610e7157600080fd5b50565b600081359050610e8381610e5d565b92915050565b600060208284031215610e9f57610e9e610e27565b5b6000610ead84828501610e74565b91505092915050565b60008115159050919050565b610ecb81610eb6565b82525050565b6000602082019050610ee66000830184610ec2565b92915050565b600073ffffffffffffffffffffffffffffffffffffffff82169050919050565b6000819050919050565b6000610f31610f2c610f2784610eec565b610f0c565b610eec565b9050919050565b6000610f4382610f16565b9050919050565b6000610f5582610f38565b9050919050565b610f6581610f4a565b82525050565b6000602082019050610f806000830184610f5c565b92915050565b6000610f9182610f38565b9050919050565b610fa181610f86565b82525050565b6000602082019050610fbc6000830184610f98565b92915050565b6000610fcd82610eec565b9050919050565b610fdd81610fc2565b82525050565b6000602082019050610ff86000830184610fd4565b92915050565b6000819050919050565b61101181610ffe565b811461101c57600080fd5b50565b60008135905061102e81611008565b92915050565b6000806040838503121561104b5761104a610e27565b5b60006110598582860161101f565b925050602061106a8582860161101f565b9150509250929050565b61107d81610ffe565b82525050565b60006020820190506110986000830184611074565b92915050565b6110a781610fc2565b81146110b257600080fd5b50565b6000813590506110c48161109e565b92915050565b600080fd5b6000601f19601f8301169050919050565b7f4e487b7100000000000000000000000000000000000000000000000000000000600052604160045260246000fd5b611118826110cf565b810181811067ffffffffffffffff82111715611137576111366110e0565b5b80604052505050565b600061114a610e1d565b9050611156828261110f565b919050565b600067ffffffffffffffff821115611176576111756110e0565b5b602082029050602081019050919050565b600080fd5b600061119f61119a8461115b565b611140565b905080838252602082019050602084028301858111156111c2576111c1611187565b5b835b818110156111eb57806111d7888261101f565b8452602084019350506020810190506111c4565b5050509392505050565b600082601f83011261120a576112096110ca565b5b813561121a84826020860161118c565b91505092915050565b600080fd5b600067ffffffffffffffff821115611243576112426110e0565b5b61124c826110cf565b9050602081019050919050565b82818337600083830152505050565b600061127b61127684611228565b611140565b90508281526020810184848401111561129757611296611223565b5b6112a2848285611259565b509392505050565b600082601f8301126112bf576112be6110ca565b5b81356112cf848260208601611268565b91505092915050565b600080600080600060a086880312156112f4576112f3610e27565b5b6000611302888289016110b5565b9550506020611313888289016110b5565b945050604086013567ffffffffffffffff81111561133457611333610e2c565b5b611340888289016111f5565b935050606086013567ffffffffffffffff81111561136157611360610e2c565b5b61136d888289016111f5565b925050608086013567ffffffffffffffff81111561138e5761138d610e2c565b5b61139a888289016112aa565b9150509295509295909350565b6113b081610e31565b82525050565b60006020820190506113cb60008301846113a7565b92915050565b600080600080600060a086880312156113ed576113ec610e27565b5b60006113fb888289016110b5565b955050602061140c888289016110b5565b945050604061141d8882890161101f565b935050606061142e8882890161101f565b925050608086013567ffffffffffffffff81111561144f5761144e610e2c565b5b61145b888289016112aa565b9150509295509295909350565b60006020828403121561147e5761147d610e27565b5b600061148c848285016110b5565b91505092915050565b600082825260208201905092915050565b7f4f776e61626c653a2063616c6c6572206973206e6f7420746865206f776e6572600082015250565b60006114dc602083611495565b91506114e7826114a6565b602082019050919050565b6000602082019050818103600083015261150b816114cf565b9050919050565b7f496e76616c696420455243323020616d6f756e74000000000000000000000000600082015250565b6000611548601483611495565b915061155382611512565b602082019050919050565b600060208201905081810360008301526115778161153b565b9050919050565b60008151905061158d81611008565b92915050565b6000602082840312156115a9576115a8610e27565b5b60006115b78482850161157e565b91505092915050565b60006040820190506115d56000830185610fd4565b6115e26020830184611074565b9392505050565b7f496e76616c6964204552433131353520616d6f756e7400000000000000000000600082015250565b600061161f601683611495565b915061162a826115e9565b602082019050919050565b6000602082019050818103600083015261164e81611612565b9050919050565b600082825260208201905092915050565b50565b6000611676600083611655565b915061168182611666565b600082019050919050565b600060a0820190506116a16000830187610fd4565b6116ae6020830186610fd4565b6116bb6040830185611074565b6116c86060830184611074565b81810360808301526116d981611669565b905095945050505050565b6116ed81610eb6565b81146116f857600080fd5b50565b60008151905061170a816116e4565b92915050565b60006020828403121561172657611725610e27565b5b6000611734848285016116fb565b91505092915050565b60006040820190506117526000830185611074565b61175f6020830184611074565b9392505050565b600060608201905061177b6000830186611074565b6117886020830185611074565b6117956040830184611074565b949350505050565b60006060820190506117b26000830186610fd4565b6117bf6020830185610fd4565b6117cc6040830184611074565b949350505050565b7f4f776e61626c653a206e6577206f776e657220697320746865207a65726f206160008201527f6464726573730000000000000000000000000000000000000000000000000000602082015250565b6000611830602683611495565b915061183b826117d4565b604082019050919050565b6000602082019050818103600083015261185f81611823565b9050919050565b7f4e487b7100000000000000000000000000000000000000000000000000000000600052601160045260246000fd5b60006118a082610ffe565b91506118ab83610ffe565b92508282026118b981610ffe565b915082820484148315176118d0576118cf611866565b5b5092915050565b7f4e487b7100000000000000000000000000000000000000000000000000000000600052601260045260246000fd5b600061191182610ffe565b915061191c83610ffe565b92508261192c5761192b6118d7565b5b82820490509291505056fea264697066735822122072c3f15d32b6ddefd026e5b641cfb7ac33771f40d2475465e76d6b402f609c1264736f6c63430008130033",
  "devdoc": {
    "kind": "dev",
    "methods": {
      "owner()": {
        "details": "Returns the address of the current owner."
      },
      "renounceOwnership()": {
        "details": "Leaves the contract without owner. It will not be possible to call `onlyOwner` functions anymore. Can only be called by the current owner. NOTE: Renouncing ownership will leave the contract without an owner, thereby removing any functionality that is only available to the owner."
      },
      "supportsInterface(bytes4)": {
        "details": "See {IERC165-supportsInterface}."
      },
      "transferOwnership(address)": {
        "details": "Transfers ownership of the contract to a new account (`newOwner`). Can only be called by the current owner."
      }
    },
    "version": 1
  },
  "userdoc": {
    "kind": "user",
    "methods": {},
    "version": 1
  },
  "storageLayout": {
    "storage": [
      {
        "astId": 7,
        "contract": "contracts/LiquidityPool.sol:LiquidityPool",
        "label": "_owner",
        "offset": 0,
        "slot": "0",
        "type": "t_address"
      },
      {
        "astId": 820,
        "contract": "contracts/LiquidityPool.sol:LiquidityPool",
        "label": "erc1155Token",
        "offset": 0,
        "slot": "1",
        "type": "t_contract(IERC1155)226"
      },
      {
        "astId": 823,
        "contract": "contracts/LiquidityPool.sol:LiquidityPool",
        "label": "erc20Token",
        "offset": 0,
        "slot": "2",
        "type": "t_contract(IERC20)430"
      }
    ],
    "types": {
      "t_address": {
        "encoding": "inplace",
        "label": "address",
        "numberOfBytes": "20"
      },
      "t_contract(IERC1155)226": {
        "encoding": "inplace",
        "label": "contract IERC1155",
        "numberOfBytes": "20"
      },
      "t_contract(IERC20)430": {
        "encoding": "inplace",
        "label": "contract IERC20",
        "numberOfBytes": "20"
      }
    }
  }
}