{
  "address": "0x9fE46736679d2D9a65F0992F2272dE9f3c7fa6e0",
  "abi": [
    {
      "inputs": [
        {
          "internalType": "contract IEAS",
          "name": "eas",
          "type": "address"
        },
        {
          "internalType": "contract CarbonCredits",
          "name": "erc1155Contract",
          "type": "address"
        }
      ],
      "stateMutability": "nonpayable",
      "type": "constructor"
    },
    {
      "inputs": [],
      "name": "InvalidEAS",
      "type": "error"
    },
    {
      "inputs": [
        {
          "internalType": "bytes32",
          "name": "schema",
          "type": "bytes32"
        },
        {
          "internalType": "string",
          "name": "projectName",
          "type": "string"
        },
        {
          "internalType": "string",
          "name": "country",
          "type": "string"
        },
        {
          "internalType": "string",
          "name": "vintage",
          "type": "string"
        },
        {
          "internalType": "string",
          "name": "standard",
          "type": "string"
        },
        {
          "internalType": "string",
          "name": "methodology",
          "type": "string"
        },
        {
          "internalType": "string",
          "name": "creditAmount",
          "type": "string"
        },
        {
          "internalType": "string",
          "name": "issuerName",
          "type": "string"
        },
        {
          "internalType": "string",
          "name": "issuerCountry",
          "type": "string"
        },
        {
          "internalType": "address",
          "name": "recptAddr",
          "type": "address"
        }
      ],
      "name": "attestUint",
      "outputs": [],
      "stateMutability": "nonpayable",
      "type": "function"
    }
  ],
  "transactionHash": "0xa63cb7ef50242ff71dde8036e006b934510762dab8f081cb31e459cf892e30fa",
  "args": [
    "0xaEF4103A04090071165F78D45D83A0C0782c2B2a",
    "0xe7f1725E7734CE288F8367e1Bb143E90bb3F0512"
  ],
  "numDeployments": 1,
  "solcInputHash": "9996f6a30320215623989b3843d5590d",
  "bytecode": "0x60a06040523480156200001157600080fd5b5060405162000cca38038062000cca833981810160405281019062000037919062000216565b600073ffffffffffffffffffffffffffffffffffffffff168273ffffffffffffffffffffffffffffffffffffffff1614806200009f5750600073ffffffffffffffffffffffffffffffffffffffff168173ffffffffffffffffffffffffffffffffffffffff16145b15620000d7576040517f83780ffe00000000000000000000000000000000000000000000000000000000815260040160405180910390fd5b8173ffffffffffffffffffffffffffffffffffffffff1660808173ffffffffffffffffffffffffffffffffffffffff1681525050806000806101000a81548173ffffffffffffffffffffffffffffffffffffffff021916908373ffffffffffffffffffffffffffffffffffffffff16021790555050506200025d565b600080fd5b600073ffffffffffffffffffffffffffffffffffffffff82169050919050565b6000620001858262000158565b9050919050565b6000620001998262000178565b9050919050565b620001ab816200018c565b8114620001b757600080fd5b50565b600081519050620001cb81620001a0565b92915050565b6000620001de8262000178565b9050919050565b620001f081620001d1565b8114620001fc57600080fd5b50565b6000815190506200021081620001e5565b92915050565b6000806040838503121562000230576200022f62000153565b5b60006200024085828601620001ba565b92505060206200025385828601620001ff565b9150509250929050565b608051610a5262000278600039600060500152610a526000f3fe608060405234801561001057600080fd5b506004361061002b5760003560e01c80634e6a3cd514610030575b600080fd5b61004a60048036038101906100459190610447565b61004c565b005b60007f000000000000000000000000000000000000000000000000000000000000000073ffffffffffffffffffffffffffffffffffffffff1663f17325e760405180604001604052808e81526020016040518060c001604052808773ffffffffffffffffffffffffffffffffffffffff168152602001600067ffffffffffffffff1681526020016001151581526020016000801b81526020018f8f8f8f8f8f8f8f604051602001610104989796959493929190610685565b604051602081830303815290604052815260200160008152508152506040518263ffffffff1660e01b815260040161013c91906108cb565b6020604051808303816000875af115801561015b573d6000803e3d6000fd5b505050506040513d601f19601f8201168201806040525081019061017f9190610902565b90506000801b81111561024c5760008660405160200161019f919061096b565b6040516020818303038152906040528051906020012060001c905060008054906101000a900473ffffffffffffffffffffffffffffffffffffffff1673ffffffffffffffffffffffffffffffffffffffff1663156e29f6848360016040518463ffffffff1660e01b8152600401610218939291906109e5565b600060405180830381600087803b15801561023257600080fd5b505af1158015610246573d6000803e3d6000fd5b50505050505b5050505050505050505050565b6000604051905090565b600080fd5b600080fd5b6000819050919050565b6102808161026d565b811461028b57600080fd5b50565b60008135905061029d81610277565b92915050565b600080fd5b600080fd5b6000601f19601f8301169050919050565b7f4e487b7100000000000000000000000000000000000000000000000000000000600052604160045260246000fd5b6102f6826102ad565b810181811067ffffffffffffffff82111715610315576103146102be565b5b80604052505050565b6000610328610259565b905061033482826102ed565b919050565b600067ffffffffffffffff821115610354576103536102be565b5b61035d826102ad565b9050602081019050919050565b82818337600083830152505050565b600061038c61038784610339565b61031e565b9050828152602081018484840111156103a8576103a76102a8565b5b6103b384828561036a565b509392505050565b600082601f8301126103d0576103cf6102a3565b5b81356103e0848260208601610379565b91505092915050565b600073ffffffffffffffffffffffffffffffffffffffff82169050919050565b6000610414826103e9565b9050919050565b61042481610409565b811461042f57600080fd5b50565b6000813590506104418161041b565b92915050565b6000806000806000806000806000806101408b8d03121561046b5761046a610263565b5b60006104798d828e0161028e565b9a505060208b013567ffffffffffffffff81111561049a57610499610268565b5b6104a68d828e016103bb565b99505060408b013567ffffffffffffffff8111156104c7576104c6610268565b5b6104d38d828e016103bb565b98505060608b013567ffffffffffffffff8111156104f4576104f3610268565b5b6105008d828e016103bb565b97505060808b013567ffffffffffffffff81111561052157610520610268565b5b61052d8d828e016103bb565b96505060a08b013567ffffffffffffffff81111561054e5761054d610268565b5b61055a8d828e016103bb565b95505060c08b013567ffffffffffffffff81111561057b5761057a610268565b5b6105878d828e016103bb565b94505060e08b013567ffffffffffffffff8111156105a8576105a7610268565b5b6105b48d828e016103bb565b9350506101008b013567ffffffffffffffff8111156105d6576105d5610268565b5b6105e28d828e016103bb565b9250506101206105f48d828e01610432565b9150509295989b9194979a5092959850565b600081519050919050565b600082825260208201905092915050565b60005b83811015610640578082015181840152602081019050610625565b60008484015250505050565b600061065782610606565b6106618185610611565b9350610671818560208601610622565b61067a816102ad565b840191505092915050565b60006101008201905081810360008301526106a0818b61064c565b905081810360208301526106b4818a61064c565b905081810360408301526106c8818961064c565b905081810360608301526106dc818861064c565b905081810360808301526106f0818761064c565b905081810360a0830152610704818661064c565b905081810360c0830152610718818561064c565b905081810360e083015261072c818461064c565b90509998505050505050505050565b6107448161026d565b82525050565b61075381610409565b82525050565b600067ffffffffffffffff82169050919050565b61077681610759565b82525050565b60008115159050919050565b6107918161077c565b82525050565b600081519050919050565b600082825260208201905092915050565b60006107be82610797565b6107c881856107a2565b93506107d8818560208601610622565b6107e1816102ad565b840191505092915050565b6000819050919050565b6107ff816107ec565b82525050565b600060c08301600083015161081d600086018261074a565b506020830151610830602086018261076d565b5060408301516108436040860182610788565b506060830151610856606086018261073b565b506080830151848203608086015261086e82826107b3565b91505060a083015161088360a08601826107f6565b508091505092915050565b60006040830160008301516108a6600086018261073b565b50602083015184820360208601526108be8282610805565b9150508091505092915050565b600060208201905081810360008301526108e5818461088e565b905092915050565b6000815190506108fc81610277565b92915050565b60006020828403121561091857610917610263565b5b6000610926848285016108ed565b91505092915050565b600081905092915050565b600061094582610606565b61094f818561092f565b935061095f818560208601610622565b80840191505092915050565b6000610977828461093a565b915081905092915050565b61098b81610409565b82525050565b61099a816107ec565b82525050565b6000819050919050565b6000819050919050565b60006109cf6109ca6109c5846109a0565b6109aa565b6107ec565b9050919050565b6109df816109b4565b82525050565b60006060820190506109fa6000830186610982565b610a076020830185610991565b610a1460408301846109d6565b94935050505056fea2646970667358221220520ca1e51e59af4053d9288af722fba8dee7c2e6e54499c2a49411199872dcba64736f6c63430008130033",
  "devdoc": {
    "kind": "dev",
    "methods": {},
    "version": 1
  },
  "userdoc": {
    "kind": "user",
    "methods": {},
    "version": 1
  },
  "storageLayout": {
    "storage": [
      {
        "astId": 2211,
        "contract": "contracts/Attestation.sol:Attestation",
        "label": "_erc1155Contract",
        "offset": 0,
        "slot": "0",
        "type": "t_contract(CarbonCredits)2409"
      }
    ],
    "types": {
      "t_contract(CarbonCredits)2409": {
        "encoding": "inplace",
        "label": "contract CarbonCredits",
        "numberOfBytes": "20"
      }
    }
  }
}