{
  "address": "0xe7f1725E7734CE288F8367e1Bb143E90bb3F0512",
  "abi": [
    {
      "inputs": [],
      "stateMutability": "nonpayable",
      "type": "constructor"
    },
    {
      "anonymous": false,
      "inputs": [
        {
          "indexed": true,
          "internalType": "address",
          "name": "account",
          "type": "address"
        },
        {
          "indexed": true,
          "internalType": "address",
          "name": "operator",
          "type": "address"
        },
        {
          "indexed": false,
          "internalType": "bool",
          "name": "approved",
          "type": "bool"
        }
      ],
      "name": "ApprovalForAll",
      "type": "event"
    },
    {
      "anonymous": false,
      "inputs": [
        {
          "indexed": true,
          "internalType": "address",
          "name": "previousOwner",
          "type": "address"
        },
        {
          "indexed": true,
          "internalType": "address",
          "name": "newOwner",
          "type": "address"
        }
      ],
      "name": "OwnershipTransferred",
      "type": "event"
    },
    {
      "anonymous": false,
      "inputs": [
        {
          "indexed": true,
          "internalType": "address",
          "name": "operator",
          "type": "address"
        },
        {
          "indexed": true,
          "internalType": "address",
          "name": "from",
          "type": "address"
        },
        {
          "indexed": true,
          "internalType": "address",
          "name": "to",
          "type": "address"
        },
        {
          "indexed": false,
          "internalType": "uint256[]",
          "name": "ids",
          "type": "uint256[]"
        },
        {
          "indexed": false,
          "internalType": "uint256[]",
          "name": "values",
          "type": "uint256[]"
        }
      ],
      "name": "TransferBatch",
      "type": "event"
    },
    {
      "anonymous": false,
      "inputs": [
        {
          "indexed": true,
          "internalType": "address",
          "name": "operator",
          "type": "address"
        },
        {
          "indexed": true,
          "internalType": "address",
          "name": "from",
          "type": "address"
        },
        {
          "indexed": true,
          "internalType": "address",
          "name": "to",
          "type": "address"
        },
        {
          "indexed": false,
          "internalType": "uint256",
          "name": "id",
          "type": "uint256"
        },
        {
          "indexed": false,
          "internalType": "uint256",
          "name": "value",
          "type": "uint256"
        }
      ],
      "name": "TransferSingle",
      "type": "event"
    },
    {
      "anonymous": false,
      "inputs": [
        {
          "indexed": false,
          "internalType": "string",
          "name": "value",
          "type": "string"
        },
        {
          "indexed": true,
          "internalType": "uint256",
          "name": "id",
          "type": "uint256"
        }
      ],
      "name": "URI",
      "type": "event"
    },
    {
      "inputs": [
        {
          "internalType": "address",
          "name": "account",
          "type": "address"
        },
        {
          "internalType": "uint256",
          "name": "id",
          "type": "uint256"
        }
      ],
      "name": "balanceOf",
      "outputs": [
        {
          "internalType": "uint256",
          "name": "",
          "type": "uint256"
        }
      ],
      "stateMutability": "view",
      "type": "function"
    },
    {
      "inputs": [
        {
          "internalType": "address[]",
          "name": "accounts",
          "type": "address[]"
        },
        {
          "internalType": "uint256[]",
          "name": "ids",
          "type": "uint256[]"
        }
      ],
      "name": "balanceOfBatch",
      "outputs": [
        {
          "internalType": "uint256[]",
          "name": "",
          "type": "uint256[]"
        }
      ],
      "stateMutability": "view",
      "type": "function"
    },
    {
      "inputs": [
        {
          "internalType": "address",
          "name": "account",
          "type": "address"
        },
        {
          "internalType": "uint256",
          "name": "id",
          "type": "uint256"
        },
        {
          "internalType": "uint256",
          "name": "amount",
          "type": "uint256"
        }
      ],
      "name": "burn",
      "outputs": [],
      "stateMutability": "nonpayable",
      "type": "function"
    },
    {
      "inputs": [
        {
          "internalType": "address",
          "name": "account",
          "type": "address"
        },
        {
          "internalType": "address",
          "name": "operator",
          "type": "address"
        }
      ],
      "name": "isApprovedForAll",
      "outputs": [
        {
          "internalType": "bool",
          "name": "",
          "type": "bool"
        }
      ],
      "stateMutability": "view",
      "type": "function"
    },
    {
      "inputs": [
        {
          "internalType": "address",
          "name": "account",
          "type": "address"
        },
        {
          "internalType": "uint256",
          "name": "id",
          "type": "uint256"
        },
        {
          "internalType": "uint256",
          "name": "amount",
          "type": "uint256"
        }
      ],
      "name": "mint",
      "outputs": [],
      "stateMutability": "nonpayable",
      "type": "function"
    },
    {
      "inputs": [],
      "name": "owner",
      "outputs": [
        {
          "internalType": "address",
          "name": "",
          "type": "address"
        }
      ],
      "stateMutability": "view",
      "type": "function"
    },
    {
      "inputs": [],
      "name": "renounceOwnership",
      "outputs": [],
      "stateMutability": "nonpayable",
      "type": "function"
    },
    {
      "inputs": [
        {
          "internalType": "address",
          "name": "from",
          "type": "address"
        },
        {
          "internalType": "address",
          "name": "to",
          "type": "address"
        },
        {
          "internalType": "uint256[]",
          "name": "ids",
          "type": "uint256[]"
        },
        {
          "internalType": "uint256[]",
          "name": "amounts",
          "type": "uint256[]"
        },
        {
          "internalType": "bytes",
          "name": "data",
          "type": "bytes"
        }
      ],
      "name": "safeBatchTransferFrom",
      "outputs": [],
      "stateMutability": "nonpayable",
      "type": "function"
    },
    {
      "inputs": [
        {
          "internalType": "address",
          "name": "from",
          "type": "address"
        },
        {
          "internalType": "address",
          "name": "to",
          "type": "address"
        },
        {
          "internalType": "uint256",
          "name": "id",
          "type": "uint256"
        },
        {
          "internalType": "uint256",
          "name": "amount",
          "type": "uint256"
        },
        {
          "internalType": "bytes",
          "name": "data",
          "type": "bytes"
        }
      ],
      "name": "safeTransferFrom",
      "outputs": [],
      "stateMutability": "nonpayable",
      "type": "function"
    },
    {
      "inputs": [
        {
          "internalType": "address",
          "name": "operator",
          "type": "address"
        },
        {
          "internalType": "bool",
          "name": "approved",
          "type": "bool"
        }
      ],
      "name": "setApprovalForAll",
      "outputs": [],
      "stateMutability": "nonpayable",
      "type": "function"
    },
    {
      "inputs": [
        {
          "internalType": "bytes4",
          "name": "interfaceId",
          "type": "bytes4"
        }
      ],
      "name": "supportsInterface",
      "outputs": [
        {
          "internalType": "bool",
          "name": "",
          "type": "bool"
        }
      ],
      "stateMutability": "view",
      "type": "function"
    },
    {
      "inputs": [
        {
          "internalType": "address",
          "name": "newOwner",
          "type": "address"
        }
      ],
      "name": "transferOwnership",
      "outputs": [],
      "stateMutability": "nonpayable",
      "type": "function"
    },
    {
      "inputs": [
        {
          "internalType": "uint256",
          "name": "",
          "type": "uint256"
        }
      ],
      "name": "uri",
      "outputs": [
        {
          "internalType": "string",
          "name": "",
          "type": "string"
        }
      ],
      "stateMutability": "view",
      "type": "function"
    }
  ],
  "transactionHash": "0x4f37369b4ed5aace10cecda045449b729e5697b61a0f8a8c416d0345e605132c",
  "args": [],
  "numDeployments": 1,
  "solcInputHash": "9996f6a30320215623989b3843d5590d",
  "bytecode": "0x60806040523480156200001157600080fd5b506040518060400160405280600d81526020017f436172626f6e43726564697473000000000000000000000000000000000000008152506200005981620000ef60201b60201c565b506200007a6200006e6200010460201b60201c565b6200010c60201b60201c565b6200009f336001606460405180602001604052806000815250620001d260201b60201c565b620000c4336002606460405180602001604052806000815250620001d260201b60201c565b620000e9336003606460405180602001604052806000815250620001d260201b60201c565b62000f90565b8060029081620001009190620008b0565b5050565b600033905090565b6000600360009054906101000a900473ffffffffffffffffffffffffffffffffffffffff16905081600360006101000a81548173ffffffffffffffffffffffffffffffffffffffff021916908373ffffffffffffffffffffffffffffffffffffffff1602179055508173ffffffffffffffffffffffffffffffffffffffff168173ffffffffffffffffffffffffffffffffffffffff167f8be0079c531659141344cd1fd0a4f28419497f9722a3daafe3b4186f6b6457e060405160405180910390a35050565b600073ffffffffffffffffffffffffffffffffffffffff168473ffffffffffffffffffffffffffffffffffffffff160362000244576040517f08c379a00000000000000000000000000000000000000000000000000000000081526004016200023b9062000a1e565b60405180910390fd5b6000620002566200010460201b60201c565b90506200028f8160008762000271886200039660201b60201c565b62000282886200039660201b60201c565b876200041760201b60201c565b8260008086815260200190815260200160002060008773ffffffffffffffffffffffffffffffffffffffff1673ffffffffffffffffffffffffffffffffffffffff1681526020019081526020016000206000828254620002f0919062000a6f565b925050819055508473ffffffffffffffffffffffffffffffffffffffff16600073ffffffffffffffffffffffffffffffffffffffff168273ffffffffffffffffffffffffffffffffffffffff167fc3d58168c5ae7397731d063d5bbf3d657854427343f4c083240f7aacaa2d0f6287876040516200037092919062000abb565b60405180910390a46200038f816000878787876200041f60201b60201c565b5050505050565b60606000600167ffffffffffffffff811115620003b857620003b762000641565b5b604051908082528060200260200182016040528015620003e75781602001602082028036833780820191505090505b509050828160008151811062000402576200040162000ae8565b5b60200260200101818152505080915050919050565b505050505050565b620004468473ffffffffffffffffffffffffffffffffffffffff166200061360201b60201c565b156200060b578373ffffffffffffffffffffffffffffffffffffffff1663f23a6e6187878686866040518663ffffffff1660e01b81526004016200048f95949392919062000bf6565b6020604051808303816000875af1925050508015620004ce57506040513d601f19601f82011682018060405250810190620004cb919062000cc6565b60015b6200057f57620004dd62000d05565b806308c379a003620005405750620004f462000d60565b8062000501575062000542565b806040517f08c379a000000000000000000000000000000000000000000000000000000000815260040162000537919062000e3c565b60405180910390fd5b505b6040517f08c379a0000000000000000000000000000000000000000000000000000000008152600401620005769062000ed6565b60405180910390fd5b63f23a6e6160e01b7bffffffffffffffffffffffffffffffffffffffffffffffffffffffff1916817bffffffffffffffffffffffffffffffffffffffffffffffffffffffff19161462000609576040517f08c379a0000000000000000000000000000000000000000000000000000000008152600401620006009062000f6e565b60405180910390fd5b505b505050505050565b6000808273ffffffffffffffffffffffffffffffffffffffff163b119050919050565b600081519050919050565b7f4e487b7100000000000000000000000000000000000000000000000000000000600052604160045260246000fd5b7f4e487b7100000000000000000000000000000000000000000000000000000000600052602260045260246000fd5b60006002820490506001821680620006b857607f821691505b602082108103620006ce57620006cd62000670565b5b50919050565b60008190508160005260206000209050919050565b60006020601f8301049050919050565b600082821b905092915050565b600060088302620007387fffffffffffffffffffffffffffffffffffffffffffffffffffffffffffffffff82620006f9565b620007448683620006f9565b95508019841693508086168417925050509392505050565b6000819050919050565b6000819050919050565b6000620007916200078b62000785846200075c565b62000766565b6200075c565b9050919050565b6000819050919050565b620007ad8362000770565b620007c5620007bc8262000798565b84845462000706565b825550505050565b600090565b620007dc620007cd565b620007e9818484620007a2565b505050565b5b81811015620008115762000805600082620007d2565b600181019050620007ef565b5050565b601f82111562000860576200082a81620006d4565b6200083584620006e9565b8101602085101562000845578190505b6200085d6200085485620006e9565b830182620007ee565b50505b505050565b600082821c905092915050565b6000620008856000198460080262000865565b1980831691505092915050565b6000620008a0838362000872565b9150826002028217905092915050565b620008bb8262000636565b67ffffffffffffffff811115620008d757620008d662000641565b5b620008e382546200069f565b620008f082828562000815565b600060209050601f83116001811462000928576000841562000913578287015190505b6200091f858262000892565b8655506200098f565b601f1984166200093886620006d4565b60005b8281101562000962578489015182556001820191506020850194506020810190506200093b565b868310156200098257848901516200097e601f89168262000872565b8355505b6001600288020188555050505b505050505050565b600082825260208201905092915050565b7f455243313135353a206d696e7420746f20746865207a65726f2061646472657360008201527f7300000000000000000000000000000000000000000000000000000000000000602082015250565b600062000a0660218362000997565b915062000a1382620009a8565b604082019050919050565b6000602082019050818103600083015262000a3981620009f7565b9050919050565b7f4e487b7100000000000000000000000000000000000000000000000000000000600052601160045260246000fd5b600062000a7c826200075c565b915062000a89836200075c565b925082820190508082111562000aa45762000aa362000a40565b5b92915050565b62000ab5816200075c565b82525050565b600060408201905062000ad2600083018562000aaa565b62000ae1602083018462000aaa565b9392505050565b7f4e487b7100000000000000000000000000000000000000000000000000000000600052603260045260246000fd5b600073ffffffffffffffffffffffffffffffffffffffff82169050919050565b600062000b448262000b17565b9050919050565b62000b568162000b37565b82525050565b600081519050919050565b600082825260208201905092915050565b60005b8381101562000b9857808201518184015260208101905062000b7b565b60008484015250505050565b6000601f19601f8301169050919050565b600062000bc28262000b5c565b62000bce818562000b67565b935062000be081856020860162000b78565b62000beb8162000ba4565b840191505092915050565b600060a08201905062000c0d600083018862000b4b565b62000c1c602083018762000b4b565b62000c2b604083018662000aaa565b62000c3a606083018562000aaa565b818103608083015262000c4e818462000bb5565b90509695505050505050565b6000604051905090565b600080fd5b60007fffffffff0000000000000000000000000000000000000000000000000000000082169050919050565b62000ca08162000c69565b811462000cac57600080fd5b50565b60008151905062000cc08162000c95565b92915050565b60006020828403121562000cdf5762000cde62000c64565b5b600062000cef8482850162000caf565b91505092915050565b60008160e01c9050919050565b600060033d111562000d275760046000803e62000d2460005162000cf8565b90505b90565b62000d358262000ba4565b810181811067ffffffffffffffff8211171562000d575762000d5662000641565b5b80604052505050565b600060443d1062000df85762000d7562000c5a565b60043d036004823e80513d602482011167ffffffffffffffff8211171562000d9f57505062000df8565b808201805167ffffffffffffffff81111562000dbf575050505062000df8565b80602083010160043d03850181111562000dde57505050505062000df8565b62000def8260200185018662000d2a565b82955050505050505b90565b600062000e088262000636565b62000e14818562000997565b935062000e2681856020860162000b78565b62000e318162000ba4565b840191505092915050565b6000602082019050818103600083015262000e58818462000dfb565b905092915050565b7f455243313135353a207472616e7366657220746f206e6f6e204552433131353560008201527f526563656976657220696d706c656d656e746572000000000000000000000000602082015250565b600062000ebe60348362000997565b915062000ecb8262000e60565b604082019050919050565b6000602082019050818103600083015262000ef18162000eaf565b9050919050565b7f455243313135353a204552433131353552656365697665722072656a6563746560008201527f6420746f6b656e73000000000000000000000000000000000000000000000000602082015250565b600062000f5660288362000997565b915062000f638262000ef8565b604082019050919050565b6000602082019050818103600083015262000f898162000f47565b9050919050565b6130b38062000fa06000396000f3fe608060405234801561001057600080fd5b50600436106100ce5760003560e01c8063715018a61161008c578063e985e9c511610066578063e985e9c51461020f578063f242432a1461023f578063f2fde38b1461025b578063f5298aca14610277576100ce565b8063715018a6146101cb5780638da5cb5b146101d5578063a22cb465146101f3576100ce565b8062fdd58e146100d357806301ffc9a7146101035780630e89341c14610133578063156e29f6146101635780632eb2c2d61461017f5780634e1273f41461019b575b600080fd5b6100ed60048036038101906100e89190611b8b565b610293565b6040516100fa9190611bda565b60405180910390f35b61011d60048036038101906101189190611c4d565b61035b565b60405161012a9190611c95565b60405180910390f35b61014d60048036038101906101489190611cb0565b61043d565b60405161015a9190611d6d565b60405180910390f35b61017d60048036038101906101789190611d8f565b6104d1565b005b61019960048036038101906101949190611fdf565b61056d565b005b6101b560048036038101906101b09190612171565b61060e565b6040516101c291906122a7565b60405180910390f35b6101d3610727565b005b6101dd6107af565b6040516101ea91906122d8565b60405180910390f35b61020d6004803603810190610208919061231f565b6107d9565b005b6102296004803603810190610224919061235f565b6107ef565b6040516102369190611c95565b60405180910390f35b6102596004803603810190610254919061239f565b610883565b005b61027560048036038101906102709190612436565b610924565b005b610291600480360381019061028c9190611d8f565b610a1b565b005b60008073ffffffffffffffffffffffffffffffffffffffff168373ffffffffffffffffffffffffffffffffffffffff1603610303576040517f08c379a00000000000000000000000000000000000000000000000000000000081526004016102fa906124d5565b60405180910390fd5b60008083815260200190815260200160002060008473ffffffffffffffffffffffffffffffffffffffff1673ffffffffffffffffffffffffffffffffffffffff16815260200190815260200160002054905092915050565b60007fd9b67a26000000000000000000000000000000000000000000000000000000007bffffffffffffffffffffffffffffffffffffffffffffffffffffffff1916827bffffffffffffffffffffffffffffffffffffffffffffffffffffffff1916148061042657507f0e89341c000000000000000000000000000000000000000000000000000000007bffffffffffffffffffffffffffffffffffffffffffffffffffffffff1916827bffffffffffffffffffffffffffffffffffffffffffffffffffffffff1916145b80610436575061043582610aa7565b5b9050919050565b60606002805461044c90612524565b80601f016020809104026020016040519081016040528092919081815260200182805461047890612524565b80156104c55780601f1061049a576101008083540402835291602001916104c5565b820191906000526020600020905b8154815290600101906020018083116104a857829003601f168201915b50505050509050919050565b6104d9610b11565b73ffffffffffffffffffffffffffffffffffffffff166104f76107af565b73ffffffffffffffffffffffffffffffffffffffff161461054d576040517f08c379a0000000000000000000000000000000000000000000000000000000008152600401610544906125a1565b60405180910390fd5b61056883838360405180602001604052806000815250610b19565b505050565b610575610b11565b73ffffffffffffffffffffffffffffffffffffffff168573ffffffffffffffffffffffffffffffffffffffff1614806105bb57506105ba856105b5610b11565b6107ef565b5b6105fa576040517f08c379a00000000000000000000000000000000000000000000000000000000081526004016105f190612633565b60405180910390fd5b6106078585858585610cae565b5050505050565b60608151835114610654576040517f08c379a000000000000000000000000000000000000000000000000000000000815260040161064b906126c5565b60405180910390fd5b6000835167ffffffffffffffff81111561067157610670611de7565b5b60405190808252806020026020018201604052801561069f5781602001602082028036833780820191505090505b50905060005b845181101561071c576106ec8582815181106106c4576106c36126e5565b5b60200260200101518583815181106106df576106de6126e5565b5b6020026020010151610293565b8282815181106106ff576106fe6126e5565b5b6020026020010181815250508061071590612743565b90506106a5565b508091505092915050565b61072f610b11565b73ffffffffffffffffffffffffffffffffffffffff1661074d6107af565b73ffffffffffffffffffffffffffffffffffffffff16146107a3576040517f08c379a000000000000000000000000000000000000000000000000000000000815260040161079a906125a1565b60405180910390fd5b6107ad6000610fc1565b565b6000600360009054906101000a900473ffffffffffffffffffffffffffffffffffffffff16905090565b6107eb6107e4610b11565b8383611087565b5050565b6000600160008473ffffffffffffffffffffffffffffffffffffffff1673ffffffffffffffffffffffffffffffffffffffff16815260200190815260200160002060008373ffffffffffffffffffffffffffffffffffffffff1673ffffffffffffffffffffffffffffffffffffffff16815260200190815260200160002060009054906101000a900460ff16905092915050565b61088b610b11565b73ffffffffffffffffffffffffffffffffffffffff168573ffffffffffffffffffffffffffffffffffffffff1614806108d157506108d0856108cb610b11565b6107ef565b5b610910576040517f08c379a0000000000000000000000000000000000000000000000000000000008152600401610907906127fd565b60405180910390fd5b61091d85858585856111f3565b5050505050565b61092c610b11565b73ffffffffffffffffffffffffffffffffffffffff1661094a6107af565b73ffffffffffffffffffffffffffffffffffffffff16146109a0576040517f08c379a0000000000000000000000000000000000000000000000000000000008152600401610997906125a1565b60405180910390fd5b600073ffffffffffffffffffffffffffffffffffffffff168173ffffffffffffffffffffffffffffffffffffffff1603610a0f576040517f08c379a0000000000000000000000000000000000000000000000000000000008152600401610a069061288f565b60405180910390fd5b610a1881610fc1565b50565b610a23610b11565b73ffffffffffffffffffffffffffffffffffffffff16610a416107af565b73ffffffffffffffffffffffffffffffffffffffff1614610a97576040517f08c379a0000000000000000000000000000000000000000000000000000000008152600401610a8e906125a1565b60405180910390fd5b610aa2838383611474565b505050565b60007f01ffc9a7000000000000000000000000000000000000000000000000000000007bffffffffffffffffffffffffffffffffffffffffffffffffffffffff1916827bffffffffffffffffffffffffffffffffffffffffffffffffffffffff1916149050919050565b600033905090565b600073ffffffffffffffffffffffffffffffffffffffff168473ffffffffffffffffffffffffffffffffffffffff1603610b88576040517f08c379a0000000000000000000000000000000000000000000000000000000008152600401610b7f90612921565b60405180910390fd5b6000610b92610b11565b9050610bb381600087610ba488611690565b610bad88611690565b8761170a565b8260008086815260200190815260200160002060008773ffffffffffffffffffffffffffffffffffffffff1673ffffffffffffffffffffffffffffffffffffffff1681526020019081526020016000206000828254610c129190612941565b925050819055508473ffffffffffffffffffffffffffffffffffffffff16600073ffffffffffffffffffffffffffffffffffffffff168273ffffffffffffffffffffffffffffffffffffffff167fc3d58168c5ae7397731d063d5bbf3d657854427343f4c083240f7aacaa2d0f628787604051610c90929190612975565b60405180910390a4610ca781600087878787611712565b5050505050565b8151835114610cf2576040517f08c379a0000000000000000000000000000000000000000000000000000000008152600401610ce990612a10565b60405180910390fd5b600073ffffffffffffffffffffffffffffffffffffffff168473ffffffffffffffffffffffffffffffffffffffff1603610d61576040517f08c379a0000000000000000000000000000000000000000000000000000000008152600401610d5890612aa2565b60405180910390fd5b6000610d6b610b11565b9050610d7b81878787878761170a565b60005b8451811015610f2c576000858281518110610d9c57610d9b6126e5565b5b602002602001015190506000858381518110610dbb57610dba6126e5565b5b60200260200101519050600080600084815260200190815260200160002060008b73ffffffffffffffffffffffffffffffffffffffff1673ffffffffffffffffffffffffffffffffffffffff16815260200190815260200160002054905081811015610e5c576040517f08c379a0000000000000000000000000000000000000000000000000000000008152600401610e5390612b34565b60405180910390fd5b81810360008085815260200190815260200160002060008c73ffffffffffffffffffffffffffffffffffffffff1673ffffffffffffffffffffffffffffffffffffffff168152602001908152602001600020819055508160008085815260200190815260200160002060008b73ffffffffffffffffffffffffffffffffffffffff1673ffffffffffffffffffffffffffffffffffffffff1681526020019081526020016000206000828254610f119190612941565b9250508190555050505080610f2590612743565b9050610d7e565b508473ffffffffffffffffffffffffffffffffffffffff168673ffffffffffffffffffffffffffffffffffffffff168273ffffffffffffffffffffffffffffffffffffffff167f4a39dc06d4c0dbc64b70af90fd698a233a518aa5d07e595d983b8c0526c8f7fb8787604051610fa3929190612b54565b60405180910390a4610fb98187878787876118e9565b505050505050565b6000600360009054906101000a900473ffffffffffffffffffffffffffffffffffffffff16905081600360006101000a81548173ffffffffffffffffffffffffffffffffffffffff021916908373ffffffffffffffffffffffffffffffffffffffff1602179055508173ffffffffffffffffffffffffffffffffffffffff168173ffffffffffffffffffffffffffffffffffffffff167f8be0079c531659141344cd1fd0a4f28419497f9722a3daafe3b4186f6b6457e060405160405180910390a35050565b8173ffffffffffffffffffffffffffffffffffffffff168373ffffffffffffffffffffffffffffffffffffffff16036110f5576040517f08c379a00000000000000000000000000000000000000000000000000000000081526004016110ec90612bfd565b60405180910390fd5b80600160008573ffffffffffffffffffffffffffffffffffffffff1673ffffffffffffffffffffffffffffffffffffffff16815260200190815260200160002060008473ffffffffffffffffffffffffffffffffffffffff1673ffffffffffffffffffffffffffffffffffffffff16815260200190815260200160002060006101000a81548160ff0219169083151502179055508173ffffffffffffffffffffffffffffffffffffffff168373ffffffffffffffffffffffffffffffffffffffff167f17307eab39ab6107e8899845ad3d59bd9653f200f220920489ca2b5937696c31836040516111e69190611c95565b60405180910390a3505050565b600073ffffffffffffffffffffffffffffffffffffffff168473ffffffffffffffffffffffffffffffffffffffff1603611262576040517f08c379a000000000000000000000000000000000000000000000000000000000815260040161125990612aa2565b60405180910390fd5b600061126c610b11565b905061128c81878761127d88611690565b61128688611690565b8761170a565b600080600086815260200190815260200160002060008873ffffffffffffffffffffffffffffffffffffffff1673ffffffffffffffffffffffffffffffffffffffff16815260200190815260200160002054905083811015611323576040517f08c379a000000000000000000000000000000000000000000000000000000000815260040161131a90612b34565b60405180910390fd5b83810360008087815260200190815260200160002060008973ffffffffffffffffffffffffffffffffffffffff1673ffffffffffffffffffffffffffffffffffffffff168152602001908152602001600020819055508360008087815260200190815260200160002060008873ffffffffffffffffffffffffffffffffffffffff1673ffffffffffffffffffffffffffffffffffffffff16815260200190815260200160002060008282546113d89190612941565b925050819055508573ffffffffffffffffffffffffffffffffffffffff168773ffffffffffffffffffffffffffffffffffffffff168373ffffffffffffffffffffffffffffffffffffffff167fc3d58168c5ae7397731d063d5bbf3d657854427343f4c083240f7aacaa2d0f628888604051611455929190612975565b60405180910390a461146b828888888888611712565b50505050505050565b600073ffffffffffffffffffffffffffffffffffffffff168373ffffffffffffffffffffffffffffffffffffffff16036114e3576040517f08c379a00000000000000000000000000000000000000000000000000000000081526004016114da90612c8f565b60405180910390fd5b60006114ed610b11565b905061151d818560006114ff87611690565b61150887611690565b6040518060200160405280600081525061170a565b600080600085815260200190815260200160002060008673ffffffffffffffffffffffffffffffffffffffff1673ffffffffffffffffffffffffffffffffffffffff168152602001908152602001600020549050828110156115b4576040517f08c379a00000000000000000000000000000000000000000000000000000000081526004016115ab90612d21565b60405180910390fd5b82810360008086815260200190815260200160002060008773ffffffffffffffffffffffffffffffffffffffff1673ffffffffffffffffffffffffffffffffffffffff16815260200190815260200160002081905550600073ffffffffffffffffffffffffffffffffffffffff168573ffffffffffffffffffffffffffffffffffffffff168373ffffffffffffffffffffffffffffffffffffffff167fc3d58168c5ae7397731d063d5bbf3d657854427343f4c083240f7aacaa2d0f628787604051611681929190612975565b60405180910390a45050505050565b60606000600167ffffffffffffffff8111156116af576116ae611de7565b5b6040519080825280602002602001820160405280156116dd5781602001602082028036833780820191505090505b50905082816000815181106116f5576116f46126e5565b5b60200260200101818152505080915050919050565b505050505050565b6117318473ffffffffffffffffffffffffffffffffffffffff16611ac0565b156118e1578373ffffffffffffffffffffffffffffffffffffffff1663f23a6e6187878686866040518663ffffffff1660e01b8152600401611777959493929190612d96565b6020604051808303816000875af19250505080156117b357506040513d601f19601f820116820180604052508101906117b09190612e05565b60015b611858576117bf612e3f565b806308c379a00361181b57506117d3612e61565b806117de575061181d565b806040517f08c379a00000000000000000000000000000000000000000000000000000000081526004016118129190611d6d565b60405180910390fd5b505b6040517f08c379a000000000000000000000000000000000000000000000000000000000815260040161184f90612f63565b60405180910390fd5b63f23a6e6160e01b7bffffffffffffffffffffffffffffffffffffffffffffffffffffffff1916817bffffffffffffffffffffffffffffffffffffffffffffffffffffffff1916146118df576040517f08c379a00000000000000000000000000000000000000000000000000000000081526004016118d690612ff5565b60405180910390fd5b505b505050505050565b6119088473ffffffffffffffffffffffffffffffffffffffff16611ac0565b15611ab8578373ffffffffffffffffffffffffffffffffffffffff1663bc197c8187878686866040518663ffffffff1660e01b815260040161194e959493929190613015565b6020604051808303816000875af192505050801561198a57506040513d601f19601f820116820180604052508101906119879190612e05565b60015b611a2f57611996612e3f565b806308c379a0036119f257506119aa612e61565b806119b557506119f4565b806040517f08c379a00000000000000000000000000000000000000000000000000000000081526004016119e99190611d6d565b60405180910390fd5b505b6040517f08c379a0000000000000000000000000000000000000000000000000000000008152600401611a2690612f63565b60405180910390fd5b63bc197c8160e01b7bffffffffffffffffffffffffffffffffffffffffffffffffffffffff1916817bffffffffffffffffffffffffffffffffffffffffffffffffffffffff191614611ab6576040517f08c379a0000000000000000000000000000000000000000000000000000000008152600401611aad90612ff5565b60405180910390fd5b505b505050505050565b6000808273ffffffffffffffffffffffffffffffffffffffff163b119050919050565b6000604051905090565b600080fd5b600080fd5b600073ffffffffffffffffffffffffffffffffffffffff82169050919050565b6000611b2282611af7565b9050919050565b611b3281611b17565b8114611b3d57600080fd5b50565b600081359050611b4f81611b29565b92915050565b6000819050919050565b611b6881611b55565b8114611b7357600080fd5b50565b600081359050611b8581611b5f565b92915050565b60008060408385031215611ba257611ba1611aed565b5b6000611bb085828601611b40565b9250506020611bc185828601611b76565b9150509250929050565b611bd481611b55565b82525050565b6000602082019050611bef6000830184611bcb565b92915050565b60007fffffffff0000000000000000000000000000000000000000000000000000000082169050919050565b611c2a81611bf5565b8114611c3557600080fd5b50565b600081359050611c4781611c21565b92915050565b600060208284031215611c6357611c62611aed565b5b6000611c7184828501611c38565b91505092915050565b60008115159050919050565b611c8f81611c7a565b82525050565b6000602082019050611caa6000830184611c86565b92915050565b600060208284031215611cc657611cc5611aed565b5b6000611cd484828501611b76565b91505092915050565b600081519050919050565b600082825260208201905092915050565b60005b83811015611d17578082015181840152602081019050611cfc565b60008484015250505050565b6000601f19601f8301169050919050565b6000611d3f82611cdd565b611d498185611ce8565b9350611d59818560208601611cf9565b611d6281611d23565b840191505092915050565b60006020820190508181036000830152611d878184611d34565b905092915050565b600080600060608486031215611da857611da7611aed565b5b6000611db686828701611b40565b9350506020611dc786828701611b76565b9250506040611dd886828701611b76565b9150509250925092565b600080fd5b7f4e487b7100000000000000000000000000000000000000000000000000000000600052604160045260246000fd5b611e1f82611d23565b810181811067ffffffffffffffff82111715611e3e57611e3d611de7565b5b80604052505050565b6000611e51611ae3565b9050611e5d8282611e16565b919050565b600067ffffffffffffffff821115611e7d57611e7c611de7565b5b602082029050602081019050919050565b600080fd5b6000611ea6611ea184611e62565b611e47565b90508083825260208201905060208402830185811115611ec957611ec8611e8e565b5b835b81811015611ef25780611ede8882611b76565b845260208401935050602081019050611ecb565b5050509392505050565b600082601f830112611f1157611f10611de2565b5b8135611f21848260208601611e93565b91505092915050565b600080fd5b600067ffffffffffffffff821115611f4a57611f49611de7565b5b611f5382611d23565b9050602081019050919050565b82818337600083830152505050565b6000611f82611f7d84611f2f565b611e47565b905082815260208101848484011115611f9e57611f9d611f2a565b5b611fa9848285611f60565b509392505050565b600082601f830112611fc657611fc5611de2565b5b8135611fd6848260208601611f6f565b91505092915050565b600080600080600060a08688031215611ffb57611ffa611aed565b5b600061200988828901611b40565b955050602061201a88828901611b40565b945050604086013567ffffffffffffffff81111561203b5761203a611af2565b5b61204788828901611efc565b935050606086013567ffffffffffffffff81111561206857612067611af2565b5b61207488828901611efc565b925050608086013567ffffffffffffffff81111561209557612094611af2565b5b6120a188828901611fb1565b9150509295509295909350565b600067ffffffffffffffff8211156120c9576120c8611de7565b5b602082029050602081019050919050565b60006120ed6120e8846120ae565b611e47565b905080838252602082019050602084028301858111156121105761210f611e8e565b5b835b8181101561213957806121258882611b40565b845260208401935050602081019050612112565b5050509392505050565b600082601f83011261215857612157611de2565b5b81356121688482602086016120da565b91505092915050565b6000806040838503121561218857612187611aed565b5b600083013567ffffffffffffffff8111156121a6576121a5611af2565b5b6121b285828601612143565b925050602083013567ffffffffffffffff8111156121d3576121d2611af2565b5b6121df85828601611efc565b9150509250929050565b600081519050919050565b600082825260208201905092915050565b6000819050602082019050919050565b61221e81611b55565b82525050565b60006122308383612215565b60208301905092915050565b6000602082019050919050565b6000612254826121e9565b61225e81856121f4565b935061226983612205565b8060005b8381101561229a5781516122818882612224565b975061228c8361223c565b92505060018101905061226d565b5085935050505092915050565b600060208201905081810360008301526122c18184612249565b905092915050565b6122d281611b17565b82525050565b60006020820190506122ed60008301846122c9565b92915050565b6122fc81611c7a565b811461230757600080fd5b50565b600081359050612319816122f3565b92915050565b6000806040838503121561233657612335611aed565b5b600061234485828601611b40565b92505060206123558582860161230a565b9150509250929050565b6000806040838503121561237657612375611aed565b5b600061238485828601611b40565b925050602061239585828601611b40565b9150509250929050565b600080600080600060a086880312156123bb576123ba611aed565b5b60006123c988828901611b40565b95505060206123da88828901611b40565b94505060406123eb88828901611b76565b93505060606123fc88828901611b76565b925050608086013567ffffffffffffffff81111561241d5761241c611af2565b5b61242988828901611fb1565b9150509295509295909350565b60006020828403121561244c5761244b611aed565b5b600061245a84828501611b40565b91505092915050565b7f455243313135353a2062616c616e636520717565727920666f7220746865207a60008201527f65726f2061646472657373000000000000000000000000000000000000000000602082015250565b60006124bf602b83611ce8565b91506124ca82612463565b604082019050919050565b600060208201905081810360008301526124ee816124b2565b9050919050565b7f4e487b7100000000000000000000000000000000000000000000000000000000600052602260045260246000fd5b6000600282049050600182168061253c57607f821691505b60208210810361254f5761254e6124f5565b5b50919050565b7f4f776e61626c653a2063616c6c6572206973206e6f7420746865206f776e6572600082015250565b600061258b602083611ce8565b915061259682612555565b602082019050919050565b600060208201905081810360008301526125ba8161257e565b9050919050565b7f455243313135353a207472616e736665722063616c6c6572206973206e6f742060008201527f6f776e6572206e6f7220617070726f7665640000000000000000000000000000602082015250565b600061261d603283611ce8565b9150612628826125c1565b604082019050919050565b6000602082019050818103600083015261264c81612610565b9050919050565b7f455243313135353a206163636f756e747320616e6420696473206c656e67746860008201527f206d69736d617463680000000000000000000000000000000000000000000000602082015250565b60006126af602983611ce8565b91506126ba82612653565b604082019050919050565b600060208201905081810360008301526126de816126a2565b9050919050565b7f4e487b7100000000000000000000000000000000000000000000000000000000600052603260045260246000fd5b7f4e487b7100000000000000000000000000000000000000000000000000000000600052601160045260246000fd5b600061274e82611b55565b91507fffffffffffffffffffffffffffffffffffffffffffffffffffffffffffffffff82036127805761277f612714565b5b600182019050919050565b7f455243313135353a2063616c6c6572206973206e6f74206f776e6572206e6f7260008201527f20617070726f7665640000000000000000000000000000000000000000000000602082015250565b60006127e7602983611ce8565b91506127f28261278b565b604082019050919050565b60006020820190508181036000830152612816816127da565b9050919050565b7f4f776e61626c653a206e6577206f776e657220697320746865207a65726f206160008201527f6464726573730000000000000000000000000000000000000000000000000000602082015250565b6000612879602683611ce8565b91506128848261281d565b604082019050919050565b600060208201905081810360008301526128a88161286c565b9050919050565b7f455243313135353a206d696e7420746f20746865207a65726f2061646472657360008201527f7300000000000000000000000000000000000000000000000000000000000000602082015250565b600061290b602183611ce8565b9150612916826128af565b604082019050919050565b6000602082019050818103600083015261293a816128fe565b9050919050565b600061294c82611b55565b915061295783611b55565b925082820190508082111561296f5761296e612714565b5b92915050565b600060408201905061298a6000830185611bcb565b6129976020830184611bcb565b9392505050565b7f455243313135353a2069647320616e6420616d6f756e7473206c656e6774682060008201527f6d69736d61746368000000000000000000000000000000000000000000000000602082015250565b60006129fa602883611ce8565b9150612a058261299e565b604082019050919050565b60006020820190508181036000830152612a29816129ed565b9050919050565b7f455243313135353a207472616e7366657220746f20746865207a65726f20616460008201527f6472657373000000000000000000000000000000000000000000000000000000602082015250565b6000612a8c602583611ce8565b9150612a9782612a30565b604082019050919050565b60006020820190508181036000830152612abb81612a7f565b9050919050565b7f455243313135353a20696e73756666696369656e742062616c616e636520666f60008201527f72207472616e7366657200000000000000000000000000000000000000000000602082015250565b6000612b1e602a83611ce8565b9150612b2982612ac2565b604082019050919050565b60006020820190508181036000830152612b4d81612b11565b9050919050565b60006040820190508181036000830152612b6e8185612249565b90508181036020830152612b828184612249565b90509392505050565b7f455243313135353a2073657474696e6720617070726f76616c2073746174757360008201527f20666f722073656c660000000000000000000000000000000000000000000000602082015250565b6000612be7602983611ce8565b9150612bf282612b8b565b604082019050919050565b60006020820190508181036000830152612c1681612bda565b9050919050565b7f455243313135353a206275726e2066726f6d20746865207a65726f206164647260008201527f6573730000000000000000000000000000000000000000000000000000000000602082015250565b6000612c79602383611ce8565b9150612c8482612c1d565b604082019050919050565b60006020820190508181036000830152612ca881612c6c565b9050919050565b7f455243313135353a206275726e20616d6f756e7420657863656564732062616c60008201527f616e636500000000000000000000000000000000000000000000000000000000602082015250565b6000612d0b602483611ce8565b9150612d1682612caf565b604082019050919050565b60006020820190508181036000830152612d3a81612cfe565b9050919050565b600081519050919050565b600082825260208201905092915050565b6000612d6882612d41565b612d728185612d4c565b9350612d82818560208601611cf9565b612d8b81611d23565b840191505092915050565b600060a082019050612dab60008301886122c9565b612db860208301876122c9565b612dc56040830186611bcb565b612dd26060830185611bcb565b8181036080830152612de48184612d5d565b90509695505050505050565b600081519050612dff81611c21565b92915050565b600060208284031215612e1b57612e1a611aed565b5b6000612e2984828501612df0565b91505092915050565b60008160e01c9050919050565b600060033d1115612e5e5760046000803e612e5b600051612e32565b90505b90565b600060443d10612eee57612e73611ae3565b60043d036004823e80513d602482011167ffffffffffffffff82111715612e9b575050612eee565b808201805167ffffffffffffffff811115612eb95750505050612eee565b80602083010160043d038501811115612ed6575050505050612eee565b612ee582602001850186611e16565b82955050505050505b90565b7f455243313135353a207472616e7366657220746f206e6f6e204552433131353560008201527f526563656976657220696d706c656d656e746572000000000000000000000000602082015250565b6000612f4d603483611ce8565b9150612f5882612ef1565b604082019050919050565b60006020820190508181036000830152612f7c81612f40565b9050919050565b7f455243313135353a204552433131353552656365697665722072656a6563746560008201527f6420746f6b656e73000000000000000000000000000000000000000000000000602082015250565b6000612fdf602883611ce8565b9150612fea82612f83565b604082019050919050565b6000602082019050818103600083015261300e81612fd2565b9050919050565b600060a08201905061302a60008301886122c9565b61303760208301876122c9565b81810360408301526130498186612249565b9050818103606083015261305d8185612249565b905081810360808301526130718184612d5d565b9050969550505050505056fea2646970667358221220617a5e01f9859b1c099167064abef2fc31662139cccbbd90ca3cec982eb9bf2f64736f6c63430008130033",
  "devdoc": {
    "events": {
      "ApprovalForAll(address,address,bool)": {
        "details": "Emitted when `account` grants or revokes permission to `operator` to transfer their tokens, according to `approved`."
      },
      "TransferBatch(address,address,address,uint256[],uint256[])": {
        "details": "Equivalent to multiple {TransferSingle} events, where `operator`, `from` and `to` are the same for all transfers."
      },
      "TransferSingle(address,address,address,uint256,uint256)": {
        "details": "Emitted when `value` tokens of token type `id` are transferred from `from` to `to` by `operator`."
      },
      "URI(string,uint256)": {
        "details": "Emitted when the URI for token type `id` changes to `value`, if it is a non-programmatic URI. If an {URI} event was emitted for `id`, the standard https://eips.ethereum.org/EIPS/eip-1155#metadata-extensions[guarantees] that `value` will equal the value returned by {IERC1155MetadataURI-uri}."
      }
    },
    "kind": "dev",
    "methods": {
      "balanceOf(address,uint256)": {
        "details": "See {IERC1155-balanceOf}. Requirements: - `account` cannot be the zero address."
      },
      "balanceOfBatch(address[],uint256[])": {
        "details": "See {IERC1155-balanceOfBatch}. Requirements: - `accounts` and `ids` must have the same length."
      },
      "isApprovedForAll(address,address)": {
        "details": "See {IERC1155-isApprovedForAll}."
      },
      "owner()": {
        "details": "Returns the address of the current owner."
      },
      "renounceOwnership()": {
        "details": "Leaves the contract without owner. It will not be possible to call `onlyOwner` functions anymore. Can only be called by the current owner. NOTE: Renouncing ownership will leave the contract without an owner, thereby removing any functionality that is only available to the owner."
      },
      "safeBatchTransferFrom(address,address,uint256[],uint256[],bytes)": {
        "details": "See {IERC1155-safeBatchTransferFrom}."
      },
      "safeTransferFrom(address,address,uint256,uint256,bytes)": {
        "details": "See {IERC1155-safeTransferFrom}."
      },
      "setApprovalForAll(address,bool)": {
        "details": "See {IERC1155-setApprovalForAll}."
      },
      "supportsInterface(bytes4)": {
        "details": "See {IERC165-supportsInterface}."
      },
      "transferOwnership(address)": {
        "details": "Transfers ownership of the contract to a new account (`newOwner`). Can only be called by the current owner."
      },
      "uri(uint256)": {
        "details": "See {IERC1155MetadataURI-uri}. This implementation returns the same URI for *all* token types. It relies on the token type ID substitution mechanism https://eips.ethereum.org/EIPS/eip-1155#metadata[defined in the EIP]. Clients calling this function must replace the `\\{id\\}` substring with the actual token type ID."
      }
    },
    "version": 1
  },
  "userdoc": {
    "kind": "user",
    "methods": {},
    "version": 1
  },
  "storageLayout": {
    "storage": [
      {
        "astId": 591,
        "contract": "contracts/CarbonCredits.sol:CarbonCredits",
        "label": "_balances",
        "offset": 0,
        "slot": "0",
        "type": "t_mapping(t_uint256,t_mapping(t_address,t_uint256))"
      },
      {
        "astId": 597,
        "contract": "contracts/CarbonCredits.sol:CarbonCredits",
        "label": "_operatorApprovals",
        "offset": 0,
        "slot": "1",
        "type": "t_mapping(t_address,t_mapping(t_address,t_bool))"
      },
      {
        "astId": 599,
        "contract": "contracts/CarbonCredits.sol:CarbonCredits",
        "label": "_uri",
        "offset": 0,
        "slot": "2",
        "type": "t_string_storage"
      },
      {
        "astId": 468,
        "contract": "contracts/CarbonCredits.sol:CarbonCredits",
        "label": "_owner",
        "offset": 0,
        "slot": "3",
        "type": "t_address"
      }
    ],
    "types": {
      "t_address": {
        "encoding": "inplace",
        "label": "address",
        "numberOfBytes": "20"
      },
      "t_bool": {
        "encoding": "inplace",
        "label": "bool",
        "numberOfBytes": "1"
      },
      "t_mapping(t_address,t_bool)": {
        "encoding": "mapping",
        "key": "t_address",
        "label": "mapping(address => bool)",
        "numberOfBytes": "32",
        "value": "t_bool"
      },
      "t_mapping(t_address,t_mapping(t_address,t_bool))": {
        "encoding": "mapping",
        "key": "t_address",
        "label": "mapping(address => mapping(address => bool))",
        "numberOfBytes": "32",
        "value": "t_mapping(t_address,t_bool)"
      },
      "t_mapping(t_address,t_uint256)": {
        "encoding": "mapping",
        "key": "t_address",
        "label": "mapping(address => uint256)",
        "numberOfBytes": "32",
        "value": "t_uint256"
      },
      "t_mapping(t_uint256,t_mapping(t_address,t_uint256))": {
        "encoding": "mapping",
        "key": "t_uint256",
        "label": "mapping(uint256 => mapping(address => uint256))",
        "numberOfBytes": "32",
        "value": "t_mapping(t_address,t_uint256)"
      },
      "t_string_storage": {
        "encoding": "bytes",
        "label": "string",
        "numberOfBytes": "32"
      },
      "t_uint256": {
        "encoding": "inplace",
        "label": "uint256",
        "numberOfBytes": "32"
      }
    }
  }
}