{
  "address": "0x4EE425E64fE58563F7A4288072B8cDf9b816c3B6",
  "abi": [
    {
      "inputs": [
        {
          "internalType": "contract IEAS",
          "name": "eas",
          "type": "address"
        },
        {
          "internalType": "contract CarbonCredits",
          "name": "erc1155Contract",
          "type": "address"
        }
      ],
      "stateMutability": "nonpayable",
      "type": "constructor"
    },
    {
      "inputs": [],
      "name": "InvalidEAS",
      "type": "error"
    },
    {
      "anonymous": false,
      "inputs": [
        {
          "indexed": false,
          "internalType": "bytes32",
          "name": "attestationId",
          "type": "bytes32"
        },
        {
          "indexed": false,
          "internalType": "uint256",
          "name": "tokenId",
          "type": "uint256"
        }
      ],
      "name": "AttestMintSuccess",
      "type": "event"
    },
    {
      "inputs": [
        {
          "internalType": "bytes32",
          "name": "schema",
          "type": "bytes32"
        },
        {
          "components": [
            {
              "internalType": "string",
              "name": "projectName",
              "type": "string"
            },
            {
              "internalType": "string",
              "name": "country",
              "type": "string"
            },
            {
              "internalType": "string",
              "name": "vintage",
              "type": "string"
            },
            {
              "internalType": "string",
              "name": "standard",
              "type": "string"
            },
            {
              "internalType": "uint256",
              "name": "methodology",
              "type": "uint256"
            },
            {
              "internalType": "uint256",
              "name": "creditAmount",
              "type": "uint256"
            },
            {
              "internalType": "string",
              "name": "issuerName",
              "type": "string"
            },
            {
              "internalType": "string",
              "name": "issuerCountry",
              "type": "string"
            }
          ],
          "internalType": "struct Attestation.AttestationParams",
          "name": "inputs",
          "type": "tuple"
        },
        {
          "internalType": "address",
          "name": "recptAddr",
          "type": "address"
        }
      ],
      "name": "attestUint",
      "outputs": [],
      "stateMutability": "nonpayable",
      "type": "function"
    }
  ],
  "transactionHash": "0x3ec1b5d42f3dba75b43042a82b19e555587bebc97b28e028725dbe8abd90e598",
  "args": [
    "0xaEF4103A04090071165F78D45D83A0C0782c2B2a",
    "0x3223dc5213747413597b2347998c6D04232474fe"
  ],
  "numDeployments": 1,
  "solcInputHash": "fec37670b0e77591d618f1f60c077806",
  "bytecode": "0x60a06040523480156200001157600080fd5b5060405162000d8938038062000d89833981810160405281019062000037919062000216565b600073ffffffffffffffffffffffffffffffffffffffff168273ffffffffffffffffffffffffffffffffffffffff1614806200009f5750600073ffffffffffffffffffffffffffffffffffffffff168173ffffffffffffffffffffffffffffffffffffffff16145b15620000d7576040517f83780ffe00000000000000000000000000000000000000000000000000000000815260040160405180910390fd5b8173ffffffffffffffffffffffffffffffffffffffff1660808173ffffffffffffffffffffffffffffffffffffffff1681525050806000806101000a81548173ffffffffffffffffffffffffffffffffffffffff021916908373ffffffffffffffffffffffffffffffffffffffff16021790555050506200025d565b600080fd5b600073ffffffffffffffffffffffffffffffffffffffff82169050919050565b6000620001858262000158565b9050919050565b6000620001998262000178565b9050919050565b620001ab816200018c565b8114620001b757600080fd5b50565b600081519050620001cb81620001a0565b92915050565b6000620001de8262000178565b9050919050565b620001f081620001d1565b8114620001fc57600080fd5b50565b6000815190506200021081620001e5565b92915050565b6000806040838503121562000230576200022f62000153565b5b60006200024085828601620001ba565b92505060206200025385828601620001ff565b9150509250929050565b608051610b1162000278600039600060500152610b116000f3fe608060405234801561001057600080fd5b506004361061002b5760003560e01c80634486541714610030575b600080fd5b61004a60048036038101906100459190610662565b61004c565b005b60007f000000000000000000000000000000000000000000000000000000000000000073ffffffffffffffffffffffffffffffffffffffff1663f17325e760405180604001604052808781526020016040518060c001604052808773ffffffffffffffffffffffffffffffffffffffff168152602001600067ffffffffffffffff1681526020016001151581526020016000801b8152602001886000015189602001518a604001518b606001518c608001518d60a001518e60c001518f60e0015160405160200161012498979695949392919061075f565b604051602081830303815290604052815260200160008152508152506040518263ffffffff1660e01b815260040161015c919061098d565b6020604051808303816000875af115801561017b573d6000803e3d6000fd5b505050506040513d601f19601f8201168201806040525081019061019f91906109c4565b90506000602060ff16116101e8576040517f08c379a00000000000000000000000000000000000000000000000000000000081526004016101df90610a3d565b60405180910390fd5b60008054906101000a900473ffffffffffffffffffffffffffffffffffffffff1673ffffffffffffffffffffffffffffffffffffffff1663156e29f68385608001518660a001516040518463ffffffff1660e01b815260040161024d93929190610a6c565b600060405180830381600087803b15801561026757600080fd5b505af115801561027b573d6000803e3d6000fd5b505050507f183a5eb61503e379c52071c7a369296ec14a1060ba411f3051e32f0508957feb8184608001516040516102b4929190610ab2565b60405180910390a150505050565b6000604051905090565b600080fd5b600080fd5b6000819050919050565b6102e9816102d6565b81146102f457600080fd5b50565b600081359050610306816102e0565b92915050565b600080fd5b6000601f19601f8301169050919050565b7f4e487b7100000000000000000000000000000000000000000000000000000000600052604160045260246000fd5b61035a82610311565b810181811067ffffffffffffffff8211171561037957610378610322565b5b80604052505050565b600061038c6102c2565b90506103988282610351565b919050565b600080fd5b600080fd5b600080fd5b600067ffffffffffffffff8211156103c7576103c6610322565b5b6103d082610311565b9050602081019050919050565b82818337600083830152505050565b60006103ff6103fa846103ac565b610382565b90508281526020810184848401111561041b5761041a6103a7565b5b6104268482856103dd565b509392505050565b600082601f830112610443576104426103a2565b5b81356104538482602086016103ec565b91505092915050565b6000819050919050565b61046f8161045c565b811461047a57600080fd5b50565b60008135905061048c81610466565b92915050565b600061010082840312156104a9576104a861030c565b5b6104b4610100610382565b9050600082013567ffffffffffffffff8111156104d4576104d361039d565b5b6104e08482850161042e565b600083015250602082013567ffffffffffffffff8111156105045761050361039d565b5b6105108482850161042e565b602083015250604082013567ffffffffffffffff8111156105345761053361039d565b5b6105408482850161042e565b604083015250606082013567ffffffffffffffff8111156105645761056361039d565b5b6105708482850161042e565b60608301525060806105848482850161047d565b60808301525060a06105988482850161047d565b60a08301525060c082013567ffffffffffffffff8111156105bc576105bb61039d565b5b6105c88482850161042e565b60c08301525060e082013567ffffffffffffffff8111156105ec576105eb61039d565b5b6105f88482850161042e565b60e08301525092915050565b600073ffffffffffffffffffffffffffffffffffffffff82169050919050565b600061062f82610604565b9050919050565b61063f81610624565b811461064a57600080fd5b50565b60008135905061065c81610636565b92915050565b60008060006060848603121561067b5761067a6102cc565b5b6000610689868287016102f7565b935050602084013567ffffffffffffffff8111156106aa576106a96102d1565b5b6106b686828701610492565b92505060406106c78682870161064d565b9150509250925092565b600081519050919050565b600082825260208201905092915050565b60005b8381101561070b5780820151818401526020810190506106f0565b60008484015250505050565b6000610722826106d1565b61072c81856106dc565b935061073c8185602086016106ed565b61074581610311565b840191505092915050565b6107598161045c565b82525050565b600061010082019050818103600083015261077a818b610717565b9050818103602083015261078e818a610717565b905081810360408301526107a28189610717565b905081810360608301526107b68188610717565b90506107c56080830187610750565b6107d260a0830186610750565b81810360c08301526107e48185610717565b905081810360e08301526107f88184610717565b90509998505050505050505050565b610810816102d6565b82525050565b61081f81610624565b82525050565b600067ffffffffffffffff82169050919050565b61084281610825565b82525050565b60008115159050919050565b61085d81610848565b82525050565b600081519050919050565b600082825260208201905092915050565b600061088a82610863565b610894818561086e565b93506108a48185602086016106ed565b6108ad81610311565b840191505092915050565b6108c18161045c565b82525050565b600060c0830160008301516108df6000860182610816565b5060208301516108f26020860182610839565b5060408301516109056040860182610854565b5060608301516109186060860182610807565b5060808301518482036080860152610930828261087f565b91505060a083015161094560a08601826108b8565b508091505092915050565b60006040830160008301516109686000860182610807565b506020830151848203602086015261098082826108c7565b9150508091505092915050565b600060208201905081810360008301526109a78184610950565b905092915050565b6000815190506109be816102e0565b92915050565b6000602082840312156109da576109d96102cc565b5b60006109e8848285016109af565b91505092915050565b7f4174746573746174696f6e206661696c65640000000000000000000000000000600082015250565b6000610a276012836106dc565b9150610a32826109f1565b602082019050919050565b60006020820190508181036000830152610a5681610a1a565b9050919050565b610a6681610624565b82525050565b6000606082019050610a816000830186610a5d565b610a8e6020830185610750565b610a9b6040830184610750565b949350505050565b610aac816102d6565b82525050565b6000604082019050610ac76000830185610aa3565b610ad46020830184610750565b939250505056fea264697066735822122030705a755ac1305338b4fc2d914f48b58d41af19e8c38399bfc338edef02fccb64736f6c63430008130033",
  "devdoc": {
    "kind": "dev",
    "methods": {},
    "version": 1
  },
  "userdoc": {
    "kind": "user",
    "methods": {},
    "version": 1
  },
  "storageLayout": {
    "storage": [
      {
        "astId": 2686,
        "contract": "contracts/Attestation.sol:Attestation",
        "label": "_erc1155Contract",
        "offset": 0,
        "slot": "0",
        "type": "t_contract(CarbonCredits)2899"
      }
    ],
    "types": {
      "t_contract(CarbonCredits)2899": {
        "encoding": "inplace",
        "label": "contract CarbonCredits",
        "numberOfBytes": "20"
      }
    }
  }
}