{
  "address": "0x876C7a614d49d5E973b08A46fe1D914Aab44d268",
  "abi": [
    {
      "inputs": [],
      "stateMutability": "nonpayable",
      "type": "constructor"
    },
    {
      "anonymous": false,
      "inputs": [
        {
          "indexed": true,
          "internalType": "address",
          "name": "owner",
          "type": "address"
        },
        {
          "indexed": true,
          "internalType": "address",
          "name": "spender",
          "type": "address"
        },
        {
          "indexed": false,
          "internalType": "uint256",
          "name": "value",
          "type": "uint256"
        }
      ],
      "name": "Approval",
      "type": "event"
    },
    {
      "anonymous": false,
      "inputs": [
        {
          "indexed": true,
          "internalType": "address",
          "name": "previousOwner",
          "type": "address"
        },
        {
          "indexed": true,
          "internalType": "address",
          "name": "newOwner",
          "type": "address"
        }
      ],
      "name": "OwnershipTransferred",
      "type": "event"
    },
    {
      "anonymous": false,
      "inputs": [
        {
          "indexed": true,
          "internalType": "address",
          "name": "from",
          "type": "address"
        },
        {
          "indexed": true,
          "internalType": "address",
          "name": "to",
          "type": "address"
        },
        {
          "indexed": false,
          "internalType": "uint256",
          "name": "value",
          "type": "uint256"
        }
      ],
      "name": "Transfer",
      "type": "event"
    },
    {
      "inputs": [
        {
          "internalType": "address",
          "name": "owner",
          "type": "address"
        },
        {
          "internalType": "address",
          "name": "spender",
          "type": "address"
        }
      ],
      "name": "allowance",
      "outputs": [
        {
          "internalType": "uint256",
          "name": "",
          "type": "uint256"
        }
      ],
      "stateMutability": "view",
      "type": "function"
    },
    {
      "inputs": [
        {
          "internalType": "address",
          "name": "spender",
          "type": "address"
        },
        {
          "internalType": "uint256",
          "name": "amount",
          "type": "uint256"
        }
      ],
      "name": "approve",
      "outputs": [
        {
          "internalType": "bool",
          "name": "",
          "type": "bool"
        }
      ],
      "stateMutability": "nonpayable",
      "type": "function"
    },
    {
      "inputs": [
        {
          "internalType": "address",
          "name": "account",
          "type": "address"
        }
      ],
      "name": "balanceOf",
      "outputs": [
        {
          "internalType": "uint256",
          "name": "",
          "type": "uint256"
        }
      ],
      "stateMutability": "view",
      "type": "function"
    },
    {
      "inputs": [
        {
          "internalType": "address",
          "name": "account",
          "type": "address"
        },
        {
          "internalType": "uint256",
          "name": "amount",
          "type": "uint256"
        }
      ],
      "name": "burn",
      "outputs": [],
      "stateMutability": "nonpayable",
      "type": "function"
    },
    {
      "inputs": [],
      "name": "decimals",
      "outputs": [
        {
          "internalType": "uint8",
          "name": "",
          "type": "uint8"
        }
      ],
      "stateMutability": "view",
      "type": "function"
    },
    {
      "inputs": [
        {
          "internalType": "address",
          "name": "spender",
          "type": "address"
        },
        {
          "internalType": "uint256",
          "name": "subtractedValue",
          "type": "uint256"
        }
      ],
      "name": "decreaseAllowance",
      "outputs": [
        {
          "internalType": "bool",
          "name": "",
          "type": "bool"
        }
      ],
      "stateMutability": "nonpayable",
      "type": "function"
    },
    {
      "inputs": [
        {
          "internalType": "address",
          "name": "to",
          "type": "address"
        },
        {
          "internalType": "uint256",
          "name": "amount",
          "type": "uint256"
        }
      ],
      "name": "faucet",
      "outputs": [],
      "stateMutability": "nonpayable",
      "type": "function"
    },
    {
      "inputs": [
        {
          "internalType": "address",
          "name": "spender",
          "type": "address"
        },
        {
          "internalType": "uint256",
          "name": "addedValue",
          "type": "uint256"
        }
      ],
      "name": "increaseAllowance",
      "outputs": [
        {
          "internalType": "bool",
          "name": "",
          "type": "bool"
        }
      ],
      "stateMutability": "nonpayable",
      "type": "function"
    },
    {
      "inputs": [
        {
          "internalType": "address",
          "name": "account",
          "type": "address"
        },
        {
          "internalType": "uint256",
          "name": "amount",
          "type": "uint256"
        }
      ],
      "name": "mint",
      "outputs": [],
      "stateMutability": "nonpayable",
      "type": "function"
    },
    {
      "inputs": [],
      "name": "name",
      "outputs": [
        {
          "internalType": "string",
          "name": "",
          "type": "string"
        }
      ],
      "stateMutability": "view",
      "type": "function"
    },
    {
      "inputs": [],
      "name": "owner",
      "outputs": [
        {
          "internalType": "address",
          "name": "",
          "type": "address"
        }
      ],
      "stateMutability": "view",
      "type": "function"
    },
    {
      "inputs": [],
      "name": "renounceOwnership",
      "outputs": [],
      "stateMutability": "nonpayable",
      "type": "function"
    },
    {
      "inputs": [],
      "name": "s_maxSupply",
      "outputs": [
        {
          "internalType": "uint256",
          "name": "",
          "type": "uint256"
        }
      ],
      "stateMutability": "view",
      "type": "function"
    },
    {
      "inputs": [],
      "name": "symbol",
      "outputs": [
        {
          "internalType": "string",
          "name": "",
          "type": "string"
        }
      ],
      "stateMutability": "view",
      "type": "function"
    },
    {
      "inputs": [],
      "name": "totalSupply",
      "outputs": [
        {
          "internalType": "uint256",
          "name": "",
          "type": "uint256"
        }
      ],
      "stateMutability": "view",
      "type": "function"
    },
    {
      "inputs": [
        {
          "internalType": "address",
          "name": "to",
          "type": "address"
        },
        {
          "internalType": "uint256",
          "name": "amount",
          "type": "uint256"
        }
      ],
      "name": "transfer",
      "outputs": [
        {
          "internalType": "bool",
          "name": "",
          "type": "bool"
        }
      ],
      "stateMutability": "nonpayable",
      "type": "function"
    },
    {
      "inputs": [
        {
          "internalType": "address",
          "name": "from",
          "type": "address"
        },
        {
          "internalType": "address",
          "name": "to",
          "type": "address"
        },
        {
          "internalType": "uint256",
          "name": "amount",
          "type": "uint256"
        }
      ],
      "name": "transferFrom",
      "outputs": [
        {
          "internalType": "bool",
          "name": "",
          "type": "bool"
        }
      ],
      "stateMutability": "nonpayable",
      "type": "function"
    },
    {
      "inputs": [
        {
          "internalType": "address",
          "name": "newOwner",
          "type": "address"
        }
      ],
      "name": "transferOwnership",
      "outputs": [],
      "stateMutability": "nonpayable",
      "type": "function"
    }
  ],
  "transactionHash": "0xdbe53644d18dcbfdd07d0b19590376f929505e10f7aa033e131031ad86ead132",
  "args": [],
  "numDeployments": 1,
  "solcInputHash": "ec1f368e9ee607d18b47241bfe36db10",
  "bytecode": "0x6080604052670de0b6b3a76400006006553480156200001d57600080fd5b506040518060400160405280600e81526020017f436172626f6e69756d546f6b656e0000000000000000000000000000000000008152506040518060400160405280600281526020017f435400000000000000000000000000000000000000000000000000000000000081525081600390816200009b919062000866565b508060049081620000ad919062000866565b505050620000d0620000c46200010060201b60201c565b6200010860201b60201c565b620000e430600654620001ce60201b60201c565b620000fa3033620f42406200034660201b60201c565b62000c30565b600033905090565b6000600560009054906101000a900473ffffffffffffffffffffffffffffffffffffffff16905081600560006101000a81548173ffffffffffffffffffffffffffffffffffffffff021916908373ffffffffffffffffffffffffffffffffffffffff1602179055508173ffffffffffffffffffffffffffffffffffffffff168173ffffffffffffffffffffffffffffffffffffffff167f8be0079c531659141344cd1fd0a4f28419497f9722a3daafe3b4186f6b6457e060405160405180910390a35050565b600073ffffffffffffffffffffffffffffffffffffffff168273ffffffffffffffffffffffffffffffffffffffff160362000240576040517f08c379a00000000000000000000000000000000000000000000000000000000081526004016200023790620009ae565b60405180910390fd5b6200025460008383620005e260201b60201c565b8060026000828254620002689190620009ff565b92505081905550806000808473ffffffffffffffffffffffffffffffffffffffff1673ffffffffffffffffffffffffffffffffffffffff1681526020019081526020016000206000828254620002bf9190620009ff565b925050819055508173ffffffffffffffffffffffffffffffffffffffff16600073ffffffffffffffffffffffffffffffffffffffff167fddf252ad1be2c89b69c2b068fc378daa952ba7f163c4a11628f55a4df523b3ef8360405162000326919062000a4b565b60405180910390a36200034260008383620005e760201b60201c565b5050565b600073ffffffffffffffffffffffffffffffffffffffff168373ffffffffffffffffffffffffffffffffffffffff1603620003b8576040517f08c379a0000000000000000000000000000000000000000000000000000000008152600401620003af9062000ade565b60405180910390fd5b600073ffffffffffffffffffffffffffffffffffffffff168273ffffffffffffffffffffffffffffffffffffffff16036200042a576040517f08c379a0000000000000000000000000000000000000000000000000000000008152600401620004219062000b76565b60405180910390fd5b6200043d838383620005e260201b60201c565b60008060008573ffffffffffffffffffffffffffffffffffffffff1673ffffffffffffffffffffffffffffffffffffffff16815260200190815260200160002054905081811015620004c6576040517f08c379a0000000000000000000000000000000000000000000000000000000008152600401620004bd9062000c0e565b60405180910390fd5b8181036000808673ffffffffffffffffffffffffffffffffffffffff1673ffffffffffffffffffffffffffffffffffffffff16815260200190815260200160002081905550816000808573ffffffffffffffffffffffffffffffffffffffff1673ffffffffffffffffffffffffffffffffffffffff16815260200190815260200160002060008282546200055b9190620009ff565b925050819055508273ffffffffffffffffffffffffffffffffffffffff168473ffffffffffffffffffffffffffffffffffffffff167fddf252ad1be2c89b69c2b068fc378daa952ba7f163c4a11628f55a4df523b3ef84604051620005c1919062000a4b565b60405180910390a3620005dc848484620005e760201b60201c565b50505050565b505050565b505050565b600081519050919050565b7f4e487b7100000000000000000000000000000000000000000000000000000000600052604160045260246000fd5b7f4e487b7100000000000000000000000000000000000000000000000000000000600052602260045260246000fd5b600060028204905060018216806200066e57607f821691505b60208210810362000684576200068362000626565b5b50919050565b60008190508160005260206000209050919050565b60006020601f8301049050919050565b600082821b905092915050565b600060088302620006ee7fffffffffffffffffffffffffffffffffffffffffffffffffffffffffffffffff82620006af565b620006fa8683620006af565b95508019841693508086168417925050509392505050565b6000819050919050565b6000819050919050565b600062000747620007416200073b8462000712565b6200071c565b62000712565b9050919050565b6000819050919050565b620007638362000726565b6200077b62000772826200074e565b848454620006bc565b825550505050565b600090565b6200079262000783565b6200079f81848462000758565b505050565b5b81811015620007c757620007bb60008262000788565b600181019050620007a5565b5050565b601f8211156200081657620007e0816200068a565b620007eb846200069f565b81016020851015620007fb578190505b620008136200080a856200069f565b830182620007a4565b50505b505050565b600082821c905092915050565b60006200083b600019846008026200081b565b1980831691505092915050565b600062000856838362000828565b9150826002028217905092915050565b6200087182620005ec565b67ffffffffffffffff8111156200088d576200088c620005f7565b5b62000899825462000655565b620008a6828285620007cb565b600060209050601f831160018114620008de5760008415620008c9578287015190505b620008d5858262000848565b86555062000945565b601f198416620008ee866200068a565b60005b828110156200091857848901518255600182019150602085019450602081019050620008f1565b8683101562000938578489015162000934601f89168262000828565b8355505b6001600288020188555050505b505050505050565b600082825260208201905092915050565b7f45524332303a206d696e7420746f20746865207a65726f206164647265737300600082015250565b600062000996601f836200094d565b9150620009a3826200095e565b602082019050919050565b60006020820190508181036000830152620009c98162000987565b9050919050565b7f4e487b7100000000000000000000000000000000000000000000000000000000600052601160045260246000fd5b600062000a0c8262000712565b915062000a198362000712565b925082820190508082111562000a345762000a33620009d0565b5b92915050565b62000a458162000712565b82525050565b600060208201905062000a62600083018462000a3a565b92915050565b7f45524332303a207472616e736665722066726f6d20746865207a65726f20616460008201527f6472657373000000000000000000000000000000000000000000000000000000602082015250565b600062000ac66025836200094d565b915062000ad38262000a68565b604082019050919050565b6000602082019050818103600083015262000af98162000ab7565b9050919050565b7f45524332303a207472616e7366657220746f20746865207a65726f206164647260008201527f6573730000000000000000000000000000000000000000000000000000000000602082015250565b600062000b5e6023836200094d565b915062000b6b8262000b00565b604082019050919050565b6000602082019050818103600083015262000b918162000b4f565b9050919050565b7f45524332303a207472616e7366657220616d6f756e742065786365656473206260008201527f616c616e63650000000000000000000000000000000000000000000000000000602082015250565b600062000bf66026836200094d565b915062000c038262000b98565b604082019050919050565b6000602082019050818103600083015262000c298162000be7565b9050919050565b611dfa8062000c406000396000f3fe608060405234801561001057600080fd5b50600436106101165760003560e01c8063715018a6116100a25780639dc29fac116100715780639dc29fac146102d1578063a457c2d7146102ed578063a9059cbb1461031d578063dd62ed3e1461034d578063f2fde38b1461037d57610116565b8063715018a61461026f5780637b56c2b2146102795780638da5cb5b1461029557806395d89b41146102b357610116565b8063313ce567116100e9578063313ce567146101b757806339509351146101d557806340c10f19146102055780635d6418471461022157806370a082311461023f57610116565b806306fdde031461011b578063095ea7b31461013957806318160ddd1461016957806323b872dd14610187575b600080fd5b610123610399565b60405161013091906113eb565b60405180910390f35b610153600480360381019061014e91906114a6565b61042b565b6040516101609190611501565b60405180910390f35b61017161044e565b60405161017e919061152b565b60405180910390f35b6101a1600480360381019061019c9190611546565b610458565b6040516101ae9190611501565b60405180910390f35b6101bf610487565b6040516101cc91906115b5565b60405180910390f35b6101ef60048036038101906101ea91906114a6565b610490565b6040516101fc9190611501565b60405180910390f35b61021f600480360381019061021a91906114a6565b61053a565b005b6102296105c4565b604051610236919061152b565b60405180910390f35b610259600480360381019061025491906115d0565b6105ca565b604051610266919061152b565b60405180910390f35b610277610612565b005b610293600480360381019061028e91906114a6565b61069a565b005b61029d6106a9565b6040516102aa919061160c565b60405180910390f35b6102bb6106d3565b6040516102c891906113eb565b60405180910390f35b6102eb60048036038101906102e691906114a6565b610765565b005b610307600480360381019061030291906114a6565b6107ef565b6040516103149190611501565b60405180910390f35b610337600480360381019061033291906114a6565b6108d9565b6040516103449190611501565b60405180910390f35b61036760048036038101906103629190611627565b6108fc565b604051610374919061152b565b60405180910390f35b610397600480360381019061039291906115d0565b610983565b005b6060600380546103a890611696565b80601f01602080910402602001604051908101604052809291908181526020018280546103d490611696565b80156104215780601f106103f657610100808354040283529160200191610421565b820191906000526020600020905b81548152906001019060200180831161040457829003601f168201915b5050505050905090565b600080610436610a7a565b9050610443818585610a82565b600191505092915050565b6000600254905090565b600080610463610a7a565b9050610470858285610c4b565b61047b858585610cd7565b60019150509392505050565b60006012905090565b60008061049b610a7a565b905061052f818585600160008673ffffffffffffffffffffffffffffffffffffffff1673ffffffffffffffffffffffffffffffffffffffff16815260200190815260200160002060008973ffffffffffffffffffffffffffffffffffffffff1673ffffffffffffffffffffffffffffffffffffffff1681526020019081526020016000205461052a91906116f6565b610a82565b600191505092915050565b610542610a7a565b73ffffffffffffffffffffffffffffffffffffffff166105606106a9565b73ffffffffffffffffffffffffffffffffffffffff16146105b6576040517f08c379a00000000000000000000000000000000000000000000000000000000081526004016105ad90611776565b60405180910390fd5b6105c08282610f56565b5050565b60065481565b60008060008373ffffffffffffffffffffffffffffffffffffffff1673ffffffffffffffffffffffffffffffffffffffff168152602001908152602001600020549050919050565b61061a610a7a565b73ffffffffffffffffffffffffffffffffffffffff166106386106a9565b73ffffffffffffffffffffffffffffffffffffffff161461068e576040517f08c379a000000000000000000000000000000000000000000000000000000000815260040161068590611776565b60405180910390fd5b61069860006110b5565b565b6106a5308383610cd7565b5050565b6000600560009054906101000a900473ffffffffffffffffffffffffffffffffffffffff16905090565b6060600480546106e290611696565b80601f016020809104026020016040519081016040528092919081815260200182805461070e90611696565b801561075b5780601f106107305761010080835404028352916020019161075b565b820191906000526020600020905b81548152906001019060200180831161073e57829003601f168201915b5050505050905090565b61076d610a7a565b73ffffffffffffffffffffffffffffffffffffffff1661078b6106a9565b73ffffffffffffffffffffffffffffffffffffffff16146107e1576040517f08c379a00000000000000000000000000000000000000000000000000000000081526004016107d890611776565b60405180910390fd5b6107eb828261117b565b5050565b6000806107fa610a7a565b90506000600160008373ffffffffffffffffffffffffffffffffffffffff1673ffffffffffffffffffffffffffffffffffffffff16815260200190815260200160002060008673ffffffffffffffffffffffffffffffffffffffff1673ffffffffffffffffffffffffffffffffffffffff168152602001908152602001600020549050838110156108c0576040517f08c379a00000000000000000000000000000000000000000000000000000000081526004016108b790611808565b60405180910390fd5b6108cd8286868403610a82565b60019250505092915050565b6000806108e4610a7a565b90506108f1818585610cd7565b600191505092915050565b6000600160008473ffffffffffffffffffffffffffffffffffffffff1673ffffffffffffffffffffffffffffffffffffffff16815260200190815260200160002060008373ffffffffffffffffffffffffffffffffffffffff1673ffffffffffffffffffffffffffffffffffffffff16815260200190815260200160002054905092915050565b61098b610a7a565b73ffffffffffffffffffffffffffffffffffffffff166109a96106a9565b73ffffffffffffffffffffffffffffffffffffffff16146109ff576040517f08c379a00000000000000000000000000000000000000000000000000000000081526004016109f690611776565b60405180910390fd5b600073ffffffffffffffffffffffffffffffffffffffff168173ffffffffffffffffffffffffffffffffffffffff1603610a6e576040517f08c379a0000000000000000000000000000000000000000000000000000000008152600401610a659061189a565b60405180910390fd5b610a77816110b5565b50565b600033905090565b600073ffffffffffffffffffffffffffffffffffffffff168373ffffffffffffffffffffffffffffffffffffffff1603610af1576040517f08c379a0000000000000000000000000000000000000000000000000000000008152600401610ae89061192c565b60405180910390fd5b600073ffffffffffffffffffffffffffffffffffffffff168273ffffffffffffffffffffffffffffffffffffffff1603610b60576040517f08c379a0000000000000000000000000000000000000000000000000000000008152600401610b57906119be565b60405180910390fd5b80600160008573ffffffffffffffffffffffffffffffffffffffff1673ffffffffffffffffffffffffffffffffffffffff16815260200190815260200160002060008473ffffffffffffffffffffffffffffffffffffffff1673ffffffffffffffffffffffffffffffffffffffff168152602001908152602001600020819055508173ffffffffffffffffffffffffffffffffffffffff168373ffffffffffffffffffffffffffffffffffffffff167f8c5be1e5ebec7d5bd14f71427d1e84f3dd0314c0f7b2291e5b200ac8c7c3b92583604051610c3e919061152b565b60405180910390a3505050565b6000610c5784846108fc565b90507fffffffffffffffffffffffffffffffffffffffffffffffffffffffffffffffff8114610cd15781811015610cc3576040517f08c379a0000000000000000000000000000000000000000000000000000000008152600401610cba90611a2a565b60405180910390fd5b610cd08484848403610a82565b5b50505050565b600073ffffffffffffffffffffffffffffffffffffffff168373ffffffffffffffffffffffffffffffffffffffff1603610d46576040517f08c379a0000000000000000000000000000000000000000000000000000000008152600401610d3d90611abc565b60405180910390fd5b600073ffffffffffffffffffffffffffffffffffffffff168273ffffffffffffffffffffffffffffffffffffffff1603610db5576040517f08c379a0000000000000000000000000000000000000000000000000000000008152600401610dac90611b4e565b60405180910390fd5b610dc0838383611351565b60008060008573ffffffffffffffffffffffffffffffffffffffff1673ffffffffffffffffffffffffffffffffffffffff16815260200190815260200160002054905081811015610e46576040517f08c379a0000000000000000000000000000000000000000000000000000000008152600401610e3d90611be0565b60405180910390fd5b8181036000808673ffffffffffffffffffffffffffffffffffffffff1673ffffffffffffffffffffffffffffffffffffffff16815260200190815260200160002081905550816000808573ffffffffffffffffffffffffffffffffffffffff1673ffffffffffffffffffffffffffffffffffffffff1681526020019081526020016000206000828254610ed991906116f6565b925050819055508273ffffffffffffffffffffffffffffffffffffffff168473ffffffffffffffffffffffffffffffffffffffff167fddf252ad1be2c89b69c2b068fc378daa952ba7f163c4a11628f55a4df523b3ef84604051610f3d919061152b565b60405180910390a3610f50848484611356565b50505050565b600073ffffffffffffffffffffffffffffffffffffffff168273ffffffffffffffffffffffffffffffffffffffff1603610fc5576040517f08c379a0000000000000000000000000000000000000000000000000000000008152600401610fbc90611c4c565b60405180910390fd5b610fd160008383611351565b8060026000828254610fe391906116f6565b92505081905550806000808473ffffffffffffffffffffffffffffffffffffffff1673ffffffffffffffffffffffffffffffffffffffff168152602001908152602001600020600082825461103891906116f6565b925050819055508173ffffffffffffffffffffffffffffffffffffffff16600073ffffffffffffffffffffffffffffffffffffffff167fddf252ad1be2c89b69c2b068fc378daa952ba7f163c4a11628f55a4df523b3ef8360405161109d919061152b565b60405180910390a36110b160008383611356565b5050565b6000600560009054906101000a900473ffffffffffffffffffffffffffffffffffffffff16905081600560006101000a81548173ffffffffffffffffffffffffffffffffffffffff021916908373ffffffffffffffffffffffffffffffffffffffff1602179055508173ffffffffffffffffffffffffffffffffffffffff168173ffffffffffffffffffffffffffffffffffffffff167f8be0079c531659141344cd1fd0a4f28419497f9722a3daafe3b4186f6b6457e060405160405180910390a35050565b600073ffffffffffffffffffffffffffffffffffffffff168273ffffffffffffffffffffffffffffffffffffffff16036111ea576040517f08c379a00000000000000000000000000000000000000000000000000000000081526004016111e190611cde565b60405180910390fd5b6111f682600083611351565b60008060008473ffffffffffffffffffffffffffffffffffffffff1673ffffffffffffffffffffffffffffffffffffffff1681526020019081526020016000205490508181101561127c576040517f08c379a000000000000000000000000000000000000000000000000000000000815260040161127390611d70565b60405180910390fd5b8181036000808573ffffffffffffffffffffffffffffffffffffffff1673ffffffffffffffffffffffffffffffffffffffff1681526020019081526020016000208190555081600260008282546112d39190611d90565b92505081905550600073ffffffffffffffffffffffffffffffffffffffff168373ffffffffffffffffffffffffffffffffffffffff167fddf252ad1be2c89b69c2b068fc378daa952ba7f163c4a11628f55a4df523b3ef84604051611338919061152b565b60405180910390a361134c83600084611356565b505050565b505050565b505050565b600081519050919050565b600082825260208201905092915050565b60005b8381101561139557808201518184015260208101905061137a565b60008484015250505050565b6000601f19601f8301169050919050565b60006113bd8261135b565b6113c78185611366565b93506113d7818560208601611377565b6113e0816113a1565b840191505092915050565b6000602082019050818103600083015261140581846113b2565b905092915050565b600080fd5b600073ffffffffffffffffffffffffffffffffffffffff82169050919050565b600061143d82611412565b9050919050565b61144d81611432565b811461145857600080fd5b50565b60008135905061146a81611444565b92915050565b6000819050919050565b61148381611470565b811461148e57600080fd5b50565b6000813590506114a08161147a565b92915050565b600080604083850312156114bd576114bc61140d565b5b60006114cb8582860161145b565b92505060206114dc85828601611491565b9150509250929050565b60008115159050919050565b6114fb816114e6565b82525050565b600060208201905061151660008301846114f2565b92915050565b61152581611470565b82525050565b6000602082019050611540600083018461151c565b92915050565b60008060006060848603121561155f5761155e61140d565b5b600061156d8682870161145b565b935050602061157e8682870161145b565b925050604061158f86828701611491565b9150509250925092565b600060ff82169050919050565b6115af81611599565b82525050565b60006020820190506115ca60008301846115a6565b92915050565b6000602082840312156115e6576115e561140d565b5b60006115f48482850161145b565b91505092915050565b61160681611432565b82525050565b600060208201905061162160008301846115fd565b92915050565b6000806040838503121561163e5761163d61140d565b5b600061164c8582860161145b565b925050602061165d8582860161145b565b9150509250929050565b7f4e487b7100000000000000000000000000000000000000000000000000000000600052602260045260246000fd5b600060028204905060018216806116ae57607f821691505b6020821081036116c1576116c0611667565b5b50919050565b7f4e487b7100000000000000000000000000000000000000000000000000000000600052601160045260246000fd5b600061170182611470565b915061170c83611470565b9250828201905080821115611724576117236116c7565b5b92915050565b7f4f776e61626c653a2063616c6c6572206973206e6f7420746865206f776e6572600082015250565b6000611760602083611366565b915061176b8261172a565b602082019050919050565b6000602082019050818103600083015261178f81611753565b9050919050565b7f45524332303a2064656372656173656420616c6c6f77616e63652062656c6f7760008201527f207a65726f000000000000000000000000000000000000000000000000000000602082015250565b60006117f2602583611366565b91506117fd82611796565b604082019050919050565b60006020820190508181036000830152611821816117e5565b9050919050565b7f4f776e61626c653a206e6577206f776e657220697320746865207a65726f206160008201527f6464726573730000000000000000000000000000000000000000000000000000602082015250565b6000611884602683611366565b915061188f82611828565b604082019050919050565b600060208201905081810360008301526118b381611877565b9050919050565b7f45524332303a20617070726f76652066726f6d20746865207a65726f2061646460008201527f7265737300000000000000000000000000000000000000000000000000000000602082015250565b6000611916602483611366565b9150611921826118ba565b604082019050919050565b6000602082019050818103600083015261194581611909565b9050919050565b7f45524332303a20617070726f766520746f20746865207a65726f20616464726560008201527f7373000000000000000000000000000000000000000000000000000000000000602082015250565b60006119a8602283611366565b91506119b38261194c565b604082019050919050565b600060208201905081810360008301526119d78161199b565b9050919050565b7f45524332303a20696e73756666696369656e7420616c6c6f77616e6365000000600082015250565b6000611a14601d83611366565b9150611a1f826119de565b602082019050919050565b60006020820190508181036000830152611a4381611a07565b9050919050565b7f45524332303a207472616e736665722066726f6d20746865207a65726f20616460008201527f6472657373000000000000000000000000000000000000000000000000000000602082015250565b6000611aa6602583611366565b9150611ab182611a4a565b604082019050919050565b60006020820190508181036000830152611ad581611a99565b9050919050565b7f45524332303a207472616e7366657220746f20746865207a65726f206164647260008201527f6573730000000000000000000000000000000000000000000000000000000000602082015250565b6000611b38602383611366565b9150611b4382611adc565b604082019050919050565b60006020820190508181036000830152611b6781611b2b565b9050919050565b7f45524332303a207472616e7366657220616d6f756e742065786365656473206260008201527f616c616e63650000000000000000000000000000000000000000000000000000602082015250565b6000611bca602683611366565b9150611bd582611b6e565b604082019050919050565b60006020820190508181036000830152611bf981611bbd565b9050919050565b7f45524332303a206d696e7420746f20746865207a65726f206164647265737300600082015250565b6000611c36601f83611366565b9150611c4182611c00565b602082019050919050565b60006020820190508181036000830152611c6581611c29565b9050919050565b7f45524332303a206275726e2066726f6d20746865207a65726f2061646472657360008201527f7300000000000000000000000000000000000000000000000000000000000000602082015250565b6000611cc8602183611366565b9150611cd382611c6c565b604082019050919050565b60006020820190508181036000830152611cf781611cbb565b9050919050565b7f45524332303a206275726e20616d6f756e7420657863656564732062616c616e60008201527f6365000000000000000000000000000000000000000000000000000000000000602082015250565b6000611d5a602283611366565b9150611d6582611cfe565b604082019050919050565b60006020820190508181036000830152611d8981611d4d565b9050919050565b6000611d9b82611470565b9150611da683611470565b9250828203905081811115611dbe57611dbd6116c7565b5b9291505056fea26469706673582212208f57067345714dff520aacca9ef41d2d6700b4581153980f5da40206aab6bd1664736f6c63430008130033",
  "devdoc": {
    "events": {
      "Approval(address,address,uint256)": {
        "details": "Emitted when the allowance of a `spender` for an `owner` is set by a call to {approve}. `value` is the new allowance."
      },
      "Transfer(address,address,uint256)": {
        "details": "Emitted when `value` tokens are moved from one account (`from`) to another (`to`). Note that `value` may be zero."
      }
    },
    "kind": "dev",
    "methods": {
      "allowance(address,address)": {
        "details": "See {IERC20-allowance}."
      },
      "approve(address,uint256)": {
        "details": "See {IERC20-approve}. NOTE: If `amount` is the maximum `uint256`, the allowance is not updated on `transferFrom`. This is semantically equivalent to an infinite approval. Requirements: - `spender` cannot be the zero address."
      },
      "balanceOf(address)": {
        "details": "See {IERC20-balanceOf}."
      },
      "decimals()": {
        "details": "Returns the number of decimals used to get its user representation. For example, if `decimals` equals `2`, a balance of `505` tokens should be displayed to a user as `5.05` (`505 / 10 ** 2`). Tokens usually opt for a value of 18, imitating the relationship between Ether and Wei. This is the value {ERC20} uses, unless this function is overridden; NOTE: This information is only used for _display_ purposes: it in no way affects any of the arithmetic of the contract, including {IERC20-balanceOf} and {IERC20-transfer}."
      },
      "decreaseAllowance(address,uint256)": {
        "details": "Atomically decreases the allowance granted to `spender` by the caller. This is an alternative to {approve} that can be used as a mitigation for problems described in {IERC20-approve}. Emits an {Approval} event indicating the updated allowance. Requirements: - `spender` cannot be the zero address. - `spender` must have allowance for the caller of at least `subtractedValue`."
      },
      "increaseAllowance(address,uint256)": {
        "details": "Atomically increases the allowance granted to `spender` by the caller. This is an alternative to {approve} that can be used as a mitigation for problems described in {IERC20-approve}. Emits an {Approval} event indicating the updated allowance. Requirements: - `spender` cannot be the zero address."
      },
      "name()": {
        "details": "Returns the name of the token."
      },
      "owner()": {
        "details": "Returns the address of the current owner."
      },
      "renounceOwnership()": {
        "details": "Leaves the contract without owner. It will not be possible to call `onlyOwner` functions anymore. Can only be called by the current owner. NOTE: Renouncing ownership will leave the contract without an owner, thereby removing any functionality that is only available to the owner."
      },
      "symbol()": {
        "details": "Returns the symbol of the token, usually a shorter version of the name."
      },
      "totalSupply()": {
        "details": "See {IERC20-totalSupply}."
      },
      "transfer(address,uint256)": {
        "details": "See {IERC20-transfer}. Requirements: - `to` cannot be the zero address. - the caller must have a balance of at least `amount`."
      },
      "transferFrom(address,address,uint256)": {
        "details": "See {IERC20-transferFrom}. Emits an {Approval} event indicating the updated allowance. This is not required by the EIP. See the note at the beginning of {ERC20}. NOTE: Does not update the allowance if the current allowance is the maximum `uint256`. Requirements: - `from` and `to` cannot be the zero address. - `from` must have a balance of at least `amount`. - the caller must have allowance for ``from``'s tokens of at least `amount`."
      },
      "transferOwnership(address)": {
        "details": "Transfers ownership of the contract to a new account (`newOwner`). Can only be called by the current owner."
      }
    },
    "version": 1
  },
  "userdoc": {
    "kind": "user",
    "methods": {},
    "version": 1
  },
  "storageLayout": {
    "storage": [
      {
        "astId": 1940,
        "contract": "contracts/CarboniumToken.sol:CarboniumToken",
        "label": "_balances",
        "offset": 0,
        "slot": "0",
        "type": "t_mapping(t_address,t_uint256)"
      },
      {
        "astId": 1946,
        "contract": "contracts/CarboniumToken.sol:CarboniumToken",
        "label": "_allowances",
        "offset": 0,
        "slot": "1",
        "type": "t_mapping(t_address,t_mapping(t_address,t_uint256))"
      },
      {
        "astId": 1948,
        "contract": "contracts/CarboniumToken.sol:CarboniumToken",
        "label": "_totalSupply",
        "offset": 0,
        "slot": "2",
        "type": "t_uint256"
      },
      {
        "astId": 1950,
        "contract": "contracts/CarboniumToken.sol:CarboniumToken",
        "label": "_name",
        "offset": 0,
        "slot": "3",
        "type": "t_string_storage"
      },
      {
        "astId": 1952,
        "contract": "contracts/CarboniumToken.sol:CarboniumToken",
        "label": "_symbol",
        "offset": 0,
        "slot": "4",
        "type": "t_string_storage"
      },
      {
        "astId": 468,
        "contract": "contracts/CarboniumToken.sol:CarboniumToken",
        "label": "_owner",
        "offset": 0,
        "slot": "5",
        "type": "t_address"
      },
      {
        "astId": 3536,
        "contract": "contracts/CarboniumToken.sol:CarboniumToken",
        "label": "s_maxSupply",
        "offset": 0,
        "slot": "6",
        "type": "t_uint256"
      }
    ],
    "types": {
      "t_address": {
        "encoding": "inplace",
        "label": "address",
        "numberOfBytes": "20"
      },
      "t_mapping(t_address,t_mapping(t_address,t_uint256))": {
        "encoding": "mapping",
        "key": "t_address",
        "label": "mapping(address => mapping(address => uint256))",
        "numberOfBytes": "32",
        "value": "t_mapping(t_address,t_uint256)"
      },
      "t_mapping(t_address,t_uint256)": {
        "encoding": "mapping",
        "key": "t_address",
        "label": "mapping(address => uint256)",
        "numberOfBytes": "32",
        "value": "t_uint256"
      },
      "t_string_storage": {
        "encoding": "bytes",
        "label": "string",
        "numberOfBytes": "32"
      },
      "t_uint256": {
        "encoding": "inplace",
        "label": "uint256",
        "numberOfBytes": "32"
      }
    }
  }
}