{
  "address": "0xbD383b495c5b2CB51d2345941CA442d5fa94a34d",
  "abi": [
    {
      "inputs": [
        {
          "internalType": "address",
          "name": "_erc1155Token",
          "type": "address"
        },
        {
          "internalType": "address",
          "name": "_erc20Token",
          "type": "address"
        }
      ],
      "stateMutability": "nonpayable",
      "type": "constructor"
    },
    {
      "anonymous": false,
      "inputs": [
        {
          "indexed": true,
          "internalType": "address",
          "name": "account",
          "type": "address"
        },
        {
          "indexed": false,
          "internalType": "uint256",
          "name": "tokenId",
          "type": "uint256"
        },
        {
          "indexed": false,
          "internalType": "uint256",
          "name": "amount",
          "type": "uint256"
        }
      ],
      "name": "Deposit",
      "type": "event"
    },
    {
      "anonymous": false,
      "inputs": [
        {
          "indexed": true,
          "internalType": "address",
          "name": "previousOwner",
          "type": "address"
        },
        {
          "indexed": true,
          "internalType": "address",
          "name": "newOwner",
          "type": "address"
        }
      ],
      "name": "OwnershipTransferred",
      "type": "event"
    },
    {
      "anonymous": false,
      "inputs": [
        {
          "indexed": true,
          "internalType": "address",
          "name": "user",
          "type": "address"
        },
        {
          "indexed": false,
          "internalType": "uint256",
          "name": "tokenId",
          "type": "uint256"
        },
        {
          "indexed": false,
          "internalType": "uint256",
          "name": "erc1155Amount",
          "type": "uint256"
        },
        {
          "indexed": false,
          "internalType": "uint256",
          "name": "erc20Amount",
          "type": "uint256"
        }
      ],
      "name": "SwapERC1155ForERC20",
      "type": "event"
    },
    {
      "anonymous": false,
      "inputs": [
        {
          "indexed": true,
          "internalType": "address",
          "name": "user",
          "type": "address"
        },
        {
          "indexed": false,
          "internalType": "uint256",
          "name": "erc20Amount",
          "type": "uint256"
        },
        {
          "indexed": false,
          "internalType": "uint256",
          "name": "tokenId",
          "type": "uint256"
        },
        {
          "indexed": false,
          "internalType": "uint256",
          "name": "erc1155Amount",
          "type": "uint256"
        }
      ],
      "name": "SwapERC20ForERC1155",
      "type": "event"
    },
    {
      "anonymous": false,
      "inputs": [
        {
          "indexed": true,
          "internalType": "address",
          "name": "account",
          "type": "address"
        },
        {
          "indexed": false,
          "internalType": "uint256",
          "name": "tokenId",
          "type": "uint256"
        },
        {
          "indexed": false,
          "internalType": "uint256",
          "name": "amount",
          "type": "uint256"
        }
      ],
      "name": "Withdrawal",
      "type": "event"
    },
    {
      "inputs": [
        {
          "internalType": "uint256",
          "name": "tokenId",
          "type": "uint256"
        },
        {
          "internalType": "uint256",
          "name": "amount",
          "type": "uint256"
        }
      ],
      "name": "deposit",
      "outputs": [],
      "stateMutability": "nonpayable",
      "type": "function"
    },
    {
      "inputs": [],
      "name": "erc1155Token",
      "outputs": [
        {
          "internalType": "contract IERC1155",
          "name": "",
          "type": "address"
        }
      ],
      "stateMutability": "view",
      "type": "function"
    },
    {
      "inputs": [],
      "name": "erc20Token",
      "outputs": [
        {
          "internalType": "contract IERC20",
          "name": "",
          "type": "address"
        }
      ],
      "stateMutability": "view",
      "type": "function"
    },
    {
      "inputs": [
        {
          "internalType": "uint256",
          "name": "erc1155Amount",
          "type": "uint256"
        },
        {
          "internalType": "uint256",
          "name": "tokenId",
          "type": "uint256"
        }
      ],
      "name": "getQuoteERC1155ToERC20",
      "outputs": [
        {
          "internalType": "uint256",
          "name": "erc20Amount",
          "type": "uint256"
        }
      ],
      "stateMutability": "view",
      "type": "function"
    },
    {
      "inputs": [
        {
          "internalType": "uint256",
          "name": "erc20Amount",
          "type": "uint256"
        },
        {
          "internalType": "uint256",
          "name": "tokenId",
          "type": "uint256"
        }
      ],
      "name": "getQuoteERC20ToERC1155",
      "outputs": [
        {
          "internalType": "uint256",
          "name": "erc1155Amount",
          "type": "uint256"
        }
      ],
      "stateMutability": "view",
      "type": "function"
    },
    {
      "inputs": [
        {
          "internalType": "address",
          "name": "",
          "type": "address"
        },
        {
          "internalType": "address",
          "name": "",
          "type": "address"
        },
        {
          "internalType": "uint256[]",
          "name": "",
          "type": "uint256[]"
        },
        {
          "internalType": "uint256[]",
          "name": "",
          "type": "uint256[]"
        },
        {
          "internalType": "bytes",
          "name": "",
          "type": "bytes"
        }
      ],
      "name": "onERC1155BatchReceived",
      "outputs": [
        {
          "internalType": "bytes4",
          "name": "",
          "type": "bytes4"
        }
      ],
      "stateMutability": "nonpayable",
      "type": "function"
    },
    {
      "inputs": [
        {
          "internalType": "address",
          "name": "",
          "type": "address"
        },
        {
          "internalType": "address",
          "name": "",
          "type": "address"
        },
        {
          "internalType": "uint256",
          "name": "",
          "type": "uint256"
        },
        {
          "internalType": "uint256",
          "name": "",
          "type": "uint256"
        },
        {
          "internalType": "bytes",
          "name": "",
          "type": "bytes"
        }
      ],
      "name": "onERC1155Received",
      "outputs": [
        {
          "internalType": "bytes4",
          "name": "",
          "type": "bytes4"
        }
      ],
      "stateMutability": "nonpayable",
      "type": "function"
    },
    {
      "inputs": [],
      "name": "owner",
      "outputs": [
        {
          "internalType": "address",
          "name": "",
          "type": "address"
        }
      ],
      "stateMutability": "view",
      "type": "function"
    },
    {
      "inputs": [],
      "name": "renounceOwnership",
      "outputs": [],
      "stateMutability": "nonpayable",
      "type": "function"
    },
    {
      "inputs": [
        {
          "internalType": "bytes4",
          "name": "interfaceId",
          "type": "bytes4"
        }
      ],
      "name": "supportsInterface",
      "outputs": [
        {
          "internalType": "bool",
          "name": "",
          "type": "bool"
        }
      ],
      "stateMutability": "view",
      "type": "function"
    },
    {
      "inputs": [
        {
          "internalType": "uint256",
          "name": "tokenId",
          "type": "uint256"
        },
        {
          "internalType": "uint256",
          "name": "erc1155Amount",
          "type": "uint256"
        }
      ],
      "name": "swapERC1155ForERC20",
      "outputs": [],
      "stateMutability": "nonpayable",
      "type": "function"
    },
    {
      "inputs": [
        {
          "internalType": "uint256",
          "name": "erc20Amount",
          "type": "uint256"
        },
        {
          "internalType": "uint256",
          "name": "tokenId",
          "type": "uint256"
        }
      ],
      "name": "swapERC20ForERC1155",
      "outputs": [],
      "stateMutability": "nonpayable",
      "type": "function"
    },
    {
      "inputs": [
        {
          "internalType": "address",
          "name": "newOwner",
          "type": "address"
        }
      ],
      "name": "transferOwnership",
      "outputs": [],
      "stateMutability": "nonpayable",
      "type": "function"
    },
    {
      "inputs": [
        {
          "internalType": "uint256",
          "name": "tokenId",
          "type": "uint256"
        },
        {
          "internalType": "uint256",
          "name": "amount",
          "type": "uint256"
        }
      ],
      "name": "withdraw",
      "outputs": [],
      "stateMutability": "nonpayable",
      "type": "function"
    }
  ],
  "transactionHash": "0x67266118721ba810f75c9bc678170eee7203c1775391b001e85e7de00462011c",
  "args": [
    "0xe7f1725E7734CE288F8367e1Bb143E90bb3F0512",
    "0x5FbDB2315678afecb367f032d93F642f64180aa3"
  ],
  "numDeployments": 1,
  "solcInputHash": "5916e0ace3ae587358031703262215f2",
  "bytecode": "0x60806040523480156200001157600080fd5b50604051620020ad380380620020ad833981810160405281019062000037919062000217565b620000576200004b620000e160201b60201c565b620000e960201b60201c565b81600160006101000a81548173ffffffffffffffffffffffffffffffffffffffff021916908373ffffffffffffffffffffffffffffffffffffffff16021790555080600260006101000a81548173ffffffffffffffffffffffffffffffffffffffff021916908373ffffffffffffffffffffffffffffffffffffffff16021790555050506200025e565b600033905090565b60008060009054906101000a900473ffffffffffffffffffffffffffffffffffffffff169050816000806101000a81548173ffffffffffffffffffffffffffffffffffffffff021916908373ffffffffffffffffffffffffffffffffffffffff1602179055508173ffffffffffffffffffffffffffffffffffffffff168173ffffffffffffffffffffffffffffffffffffffff167f8be0079c531659141344cd1fd0a4f28419497f9722a3daafe3b4186f6b6457e060405160405180910390a35050565b600080fd5b600073ffffffffffffffffffffffffffffffffffffffff82169050919050565b6000620001df82620001b2565b9050919050565b620001f181620001d2565b8114620001fd57600080fd5b50565b6000815190506200021181620001e6565b92915050565b60008060408385031215620002315762000230620001ad565b5b6000620002418582860162000200565b9250506020620002548582860162000200565b9150509250929050565b611e3f806200026e6000396000f3fe608060405234801561001057600080fd5b50600436106100ea5760003560e01c8063bc124c581161008c578063d769599011610066578063d769599014610237578063e2bbb15814610267578063f23a6e6114610283578063f2fde38b146102b3576100ea565b8063bc124c58146101cf578063bc197c81146101eb578063c215a97c1461021b576100ea565b8063715018a6116100c8578063715018a6146101595780638a13eea7146101635780638da5cb5b1461018157806393068df21461019f576100ea565b806301ffc9a7146100ef57806321f422681461011f578063441a3e701461013d575b600080fd5b61010960048036038101906101049190611283565b6102cf565b60405161011691906112cb565b60405180910390f35b610127610349565b6040516101349190611365565b60405180910390f35b610157600480360381019061015291906113b6565b61036f565b005b610161610535565b005b61016b6105bd565b6040516101789190611417565b60405180910390f35b6101896105e3565b6040516101969190611453565b60405180910390f35b6101b960048036038101906101b491906113b6565b61060c565b6040516101c6919061147d565b60405180910390f35b6101e960048036038101906101e491906113b6565b6107c0565b005b610205600480360381019061020091906116d2565b6109ec565b60405161021291906117b0565b60405180910390f35b610235600480360381019061023091906113b6565b610a01565b005b610251600480360381019061024c91906113b6565b610c2f565b60405161025e919061147d565b60405180910390f35b610281600480360381019061027c91906113b6565b610de3565b005b61029d600480360381019061029891906117cb565b610fa9565b6040516102aa91906117b0565b60405180910390f35b6102cd60048036038101906102c89190611862565b610fbe565b005b60007f4e2312e0000000000000000000000000000000000000000000000000000000007bffffffffffffffffffffffffffffffffffffffffffffffffffffffff1916827bffffffffffffffffffffffffffffffffffffffffffffffffffffffff191614806103425750610341826110b5565b5b9050919050565b600160009054906101000a900473ffffffffffffffffffffffffffffffffffffffff1681565b80600160009054906101000a900473ffffffffffffffffffffffffffffffffffffffff1673ffffffffffffffffffffffffffffffffffffffff1662fdd58e30856040518363ffffffff1660e01b81526004016103cc92919061188f565b602060405180830381865afa1580156103e9573d6000803e3d6000fd5b505050506040513d601f19601f8201168201806040525081019061040d91906118cd565b101561044e576040517f08c379a000000000000000000000000000000000000000000000000000000000815260040161044590611957565b60405180910390fd5b600160009054906101000a900473ffffffffffffffffffffffffffffffffffffffff1673ffffffffffffffffffffffffffffffffffffffff1663f242432a303385856040518563ffffffff1660e01b81526004016104af94939291906119ae565b600060405180830381600087803b1580156104c957600080fd5b505af11580156104dd573d6000803e3d6000fd5b505050503373ffffffffffffffffffffffffffffffffffffffff167fdf273cb619d95419a9cd0ec88123a0538c85064229baa6363788f743fff90deb8383604051610529929190611a06565b60405180910390a25050565b61053d61111f565b73ffffffffffffffffffffffffffffffffffffffff1661055b6105e3565b73ffffffffffffffffffffffffffffffffffffffff16146105b1576040517f08c379a00000000000000000000000000000000000000000000000000000000081526004016105a890611a7b565b60405180910390fd5b6105bb6000611127565b565b600260009054906101000a900473ffffffffffffffffffffffffffffffffffffffff1681565b60008060009054906101000a900473ffffffffffffffffffffffffffffffffffffffff16905090565b6000808311610650576040517f08c379a000000000000000000000000000000000000000000000000000000000815260040161064790611ae7565b60405180910390fd5b6000600260009054906101000a900473ffffffffffffffffffffffffffffffffffffffff1673ffffffffffffffffffffffffffffffffffffffff166370a08231306040518263ffffffff1660e01b81526004016106ad9190611453565b602060405180830381865afa1580156106ca573d6000803e3d6000fd5b505050506040513d601f19601f820116820180604052508101906106ee91906118cd565b90506000600160009054906101000a900473ffffffffffffffffffffffffffffffffffffffff1673ffffffffffffffffffffffffffffffffffffffff1662fdd58e30866040518363ffffffff1660e01b815260040161074e92919061188f565b602060405180830381865afa15801561076b573d6000803e3d6000fd5b505050506040513d601f19601f8201168201806040525081019061078f91906118cd565b90506107b6826107a883886111eb90919063ffffffff16565b61120190919063ffffffff16565b9250505092915050565b60008111610803576040517f08c379a00000000000000000000000000000000000000000000000000000000081526004016107fa90611b53565b60405180910390fd5b600061080f8284610c2f565b9050600160009054906101000a900473ffffffffffffffffffffffffffffffffffffffff1673ffffffffffffffffffffffffffffffffffffffff1663f242432a333086866040518563ffffffff1660e01b815260040161087294939291906119ae565b600060405180830381600087803b15801561088c57600080fd5b505af11580156108a0573d6000803e3d6000fd5b50505050600260009054906101000a900473ffffffffffffffffffffffffffffffffffffffff1673ffffffffffffffffffffffffffffffffffffffff1663a9059cbb33836040518363ffffffff1660e01b815260040161090192919061188f565b6020604051808303816000875af1158015610920573d6000803e3d6000fd5b505050506040513d601f19601f820116820180604052508101906109449190611b9f565b503373ffffffffffffffffffffffffffffffffffffffff167fdf273cb619d95419a9cd0ec88123a0538c85064229baa6363788f743fff90deb848460405161098d929190611a06565b60405180910390a23373ffffffffffffffffffffffffffffffffffffffff167f048b2ef2f7efb11fef3b83a2e524d39e3d9366a7cd9a756981f750e5ab527db48484846040516109df93929190611bcc565b60405180910390a2505050565b600063bc197c8160e01b905095945050505050565b60008211610a44576040517f08c379a0000000000000000000000000000000000000000000000000000000008152600401610a3b90611ae7565b60405180910390fd5b6000610a50838361060c565b9050600260009054906101000a900473ffffffffffffffffffffffffffffffffffffffff1673ffffffffffffffffffffffffffffffffffffffff166323b872dd3330866040518463ffffffff1660e01b8152600401610ab193929190611c03565b6020604051808303816000875af1158015610ad0573d6000803e3d6000fd5b505050506040513d601f19601f82011682018060405250810190610af49190611b9f565b50600160009054906101000a900473ffffffffffffffffffffffffffffffffffffffff1673ffffffffffffffffffffffffffffffffffffffff1663f242432a333085856040518563ffffffff1660e01b8152600401610b5694939291906119ae565b600060405180830381600087803b158015610b7057600080fd5b505af1158015610b84573d6000803e3d6000fd5b505050503373ffffffffffffffffffffffffffffffffffffffff167f90890809c654f11d6e72a28fa60149770a0d11ec6c92319d6ceb2bb0a4ea1a158383604051610bd0929190611a06565b60405180910390a23373ffffffffffffffffffffffffffffffffffffffff167f72d229d9b6fbfec38d163ea1310b2549d831f540e79b7194a93fe94b84378987848484604051610c2293929190611bcc565b60405180910390a2505050565b6000808311610c73576040517f08c379a0000000000000000000000000000000000000000000000000000000008152600401610c6a90611b53565b60405180910390fd5b6000600260009054906101000a900473ffffffffffffffffffffffffffffffffffffffff1673ffffffffffffffffffffffffffffffffffffffff166370a08231306040518263ffffffff1660e01b8152600401610cd09190611453565b602060405180830381865afa158015610ced573d6000803e3d6000fd5b505050506040513d601f19601f82011682018060405250810190610d1191906118cd565b90506000600160009054906101000a900473ffffffffffffffffffffffffffffffffffffffff1673ffffffffffffffffffffffffffffffffffffffff1662fdd58e30866040518363ffffffff1660e01b8152600401610d7192919061188f565b602060405180830381865afa158015610d8e573d6000803e3d6000fd5b505050506040513d601f19601f82011682018060405250810190610db291906118cd565b9050610dd981610dcb84886111eb90919063ffffffff16565b61120190919063ffffffff16565b9250505092915050565b80600160009054906101000a900473ffffffffffffffffffffffffffffffffffffffff1673ffffffffffffffffffffffffffffffffffffffff1662fdd58e33856040518363ffffffff1660e01b8152600401610e4092919061188f565b602060405180830381865afa158015610e5d573d6000803e3d6000fd5b505050506040513d601f19601f82011682018060405250810190610e8191906118cd565b1015610ec2576040517f08c379a0000000000000000000000000000000000000000000000000000000008152600401610eb990611c86565b60405180910390fd5b600160009054906101000a900473ffffffffffffffffffffffffffffffffffffffff1673ffffffffffffffffffffffffffffffffffffffff1663f242432a333085856040518563ffffffff1660e01b8152600401610f2394939291906119ae565b600060405180830381600087803b158015610f3d57600080fd5b505af1158015610f51573d6000803e3d6000fd5b505050503373ffffffffffffffffffffffffffffffffffffffff167f90890809c654f11d6e72a28fa60149770a0d11ec6c92319d6ceb2bb0a4ea1a158383604051610f9d929190611a06565b60405180910390a25050565b600063f23a6e6160e01b905095945050505050565b610fc661111f565b73ffffffffffffffffffffffffffffffffffffffff16610fe46105e3565b73ffffffffffffffffffffffffffffffffffffffff161461103a576040517f08c379a000000000000000000000000000000000000000000000000000000000815260040161103190611a7b565b60405180910390fd5b600073ffffffffffffffffffffffffffffffffffffffff168173ffffffffffffffffffffffffffffffffffffffff16036110a9576040517f08c379a00000000000000000000000000000000000000000000000000000000081526004016110a090611d18565b60405180910390fd5b6110b281611127565b50565b60007f01ffc9a7000000000000000000000000000000000000000000000000000000007bffffffffffffffffffffffffffffffffffffffffffffffffffffffff1916827bffffffffffffffffffffffffffffffffffffffffffffffffffffffff1916149050919050565b600033905090565b60008060009054906101000a900473ffffffffffffffffffffffffffffffffffffffff169050816000806101000a81548173ffffffffffffffffffffffffffffffffffffffff021916908373ffffffffffffffffffffffffffffffffffffffff1602179055508173ffffffffffffffffffffffffffffffffffffffff168173ffffffffffffffffffffffffffffffffffffffff167f8be0079c531659141344cd1fd0a4f28419497f9722a3daafe3b4186f6b6457e060405160405180910390a35050565b600081836111f99190611d67565b905092915050565b6000818361120f9190611dd8565b905092915050565b6000604051905090565b600080fd5b600080fd5b60007fffffffff0000000000000000000000000000000000000000000000000000000082169050919050565b6112608161122b565b811461126b57600080fd5b50565b60008135905061127d81611257565b92915050565b60006020828403121561129957611298611221565b5b60006112a78482850161126e565b91505092915050565b60008115159050919050565b6112c5816112b0565b82525050565b60006020820190506112e060008301846112bc565b92915050565b600073ffffffffffffffffffffffffffffffffffffffff82169050919050565b6000819050919050565b600061132b611326611321846112e6565b611306565b6112e6565b9050919050565b600061133d82611310565b9050919050565b600061134f82611332565b9050919050565b61135f81611344565b82525050565b600060208201905061137a6000830184611356565b92915050565b6000819050919050565b61139381611380565b811461139e57600080fd5b50565b6000813590506113b08161138a565b92915050565b600080604083850312156113cd576113cc611221565b5b60006113db858286016113a1565b92505060206113ec858286016113a1565b9150509250929050565b600061140182611332565b9050919050565b611411816113f6565b82525050565b600060208201905061142c6000830184611408565b92915050565b600061143d826112e6565b9050919050565b61144d81611432565b82525050565b60006020820190506114686000830184611444565b92915050565b61147781611380565b82525050565b6000602082019050611492600083018461146e565b92915050565b6114a181611432565b81146114ac57600080fd5b50565b6000813590506114be81611498565b92915050565b600080fd5b6000601f19601f8301169050919050565b7f4e487b7100000000000000000000000000000000000000000000000000000000600052604160045260246000fd5b611512826114c9565b810181811067ffffffffffffffff82111715611531576115306114da565b5b80604052505050565b6000611544611217565b90506115508282611509565b919050565b600067ffffffffffffffff8211156115705761156f6114da565b5b602082029050602081019050919050565b600080fd5b600061159961159484611555565b61153a565b905080838252602082019050602084028301858111156115bc576115bb611581565b5b835b818110156115e557806115d188826113a1565b8452602084019350506020810190506115be565b5050509392505050565b600082601f830112611604576116036114c4565b5b8135611614848260208601611586565b91505092915050565b600080fd5b600067ffffffffffffffff82111561163d5761163c6114da565b5b611646826114c9565b9050602081019050919050565b82818337600083830152505050565b600061167561167084611622565b61153a565b9050828152602081018484840111156116915761169061161d565b5b61169c848285611653565b509392505050565b600082601f8301126116b9576116b86114c4565b5b81356116c9848260208601611662565b91505092915050565b600080600080600060a086880312156116ee576116ed611221565b5b60006116fc888289016114af565b955050602061170d888289016114af565b945050604086013567ffffffffffffffff81111561172e5761172d611226565b5b61173a888289016115ef565b935050606086013567ffffffffffffffff81111561175b5761175a611226565b5b611767888289016115ef565b925050608086013567ffffffffffffffff81111561178857611787611226565b5b611794888289016116a4565b9150509295509295909350565b6117aa8161122b565b82525050565b60006020820190506117c560008301846117a1565b92915050565b600080600080600060a086880312156117e7576117e6611221565b5b60006117f5888289016114af565b9550506020611806888289016114af565b9450506040611817888289016113a1565b9350506060611828888289016113a1565b925050608086013567ffffffffffffffff81111561184957611848611226565b5b611855888289016116a4565b9150509295509295909350565b60006020828403121561187857611877611221565b5b6000611886848285016114af565b91505092915050565b60006040820190506118a46000830185611444565b6118b1602083018461146e565b9392505050565b6000815190506118c78161138a565b92915050565b6000602082840312156118e3576118e2611221565b5b60006118f1848285016118b8565b91505092915050565b600082825260208201905092915050565b7f496e73756666696369656e74206c697175696469747900000000000000000000600082015250565b60006119416016836118fa565b915061194c8261190b565b602082019050919050565b6000602082019050818103600083015261197081611934565b9050919050565b600082825260208201905092915050565b50565b6000611998600083611977565b91506119a382611988565b600082019050919050565b600060a0820190506119c36000830187611444565b6119d06020830186611444565b6119dd604083018561146e565b6119ea606083018461146e565b81810360808301526119fb8161198b565b905095945050505050565b6000604082019050611a1b600083018561146e565b611a28602083018461146e565b9392505050565b7f4f776e61626c653a2063616c6c6572206973206e6f7420746865206f776e6572600082015250565b6000611a656020836118fa565b9150611a7082611a2f565b602082019050919050565b60006020820190508181036000830152611a9481611a58565b9050919050565b7f496e76616c696420455243323020616d6f756e74000000000000000000000000600082015250565b6000611ad16014836118fa565b9150611adc82611a9b565b602082019050919050565b60006020820190508181036000830152611b0081611ac4565b9050919050565b7f496e76616c6964204552433131353520616d6f756e7400000000000000000000600082015250565b6000611b3d6016836118fa565b9150611b4882611b07565b602082019050919050565b60006020820190508181036000830152611b6c81611b30565b9050919050565b611b7c816112b0565b8114611b8757600080fd5b50565b600081519050611b9981611b73565b92915050565b600060208284031215611bb557611bb4611221565b5b6000611bc384828501611b8a565b91505092915050565b6000606082019050611be1600083018661146e565b611bee602083018561146e565b611bfb604083018461146e565b949350505050565b6000606082019050611c186000830186611444565b611c256020830185611444565b611c32604083018461146e565b949350505050565b7f496e73756666696369656e7420455243313135352062616c616e636500000000600082015250565b6000611c70601c836118fa565b9150611c7b82611c3a565b602082019050919050565b60006020820190508181036000830152611c9f81611c63565b9050919050565b7f4f776e61626c653a206e6577206f776e657220697320746865207a65726f206160008201527f6464726573730000000000000000000000000000000000000000000000000000602082015250565b6000611d026026836118fa565b9150611d0d82611ca6565b604082019050919050565b60006020820190508181036000830152611d3181611cf5565b9050919050565b7f4e487b7100000000000000000000000000000000000000000000000000000000600052601160045260246000fd5b6000611d7282611380565b9150611d7d83611380565b9250828202611d8b81611380565b91508282048414831517611da257611da1611d38565b5b5092915050565b7f4e487b7100000000000000000000000000000000000000000000000000000000600052601260045260246000fd5b6000611de382611380565b9150611dee83611380565b925082611dfe57611dfd611da9565b5b82820490509291505056fea26469706673582212209d50681fc87c04efaa431baa6e09b771b36cf41e06118e0a8aadbad1720a094f64736f6c63430008130033",
  "devdoc": {
    "kind": "dev",
    "methods": {
      "owner()": {
        "details": "Returns the address of the current owner."
      },
      "renounceOwnership()": {
        "details": "Leaves the contract without owner. It will not be possible to call `onlyOwner` functions anymore. Can only be called by the current owner. NOTE: Renouncing ownership will leave the contract without an owner, thereby removing any functionality that is only available to the owner."
      },
      "supportsInterface(bytes4)": {
        "details": "See {IERC165-supportsInterface}."
      },
      "transferOwnership(address)": {
        "details": "Transfers ownership of the contract to a new account (`newOwner`). Can only be called by the current owner."
      }
    },
    "version": 1
  },
  "userdoc": {
    "kind": "user",
    "methods": {},
    "version": 1
  },
  "storageLayout": {
    "storage": [
      {
        "astId": 7,
        "contract": "contracts/LiquidityPool.sol:LiquidityPool",
        "label": "_owner",
        "offset": 0,
        "slot": "0",
        "type": "t_address"
      },
      {
        "astId": 820,
        "contract": "contracts/LiquidityPool.sol:LiquidityPool",
        "label": "erc1155Token",
        "offset": 0,
        "slot": "1",
        "type": "t_contract(IERC1155)226"
      },
      {
        "astId": 823,
        "contract": "contracts/LiquidityPool.sol:LiquidityPool",
        "label": "erc20Token",
        "offset": 0,
        "slot": "2",
        "type": "t_contract(IERC20)430"
      }
    ],
    "types": {
      "t_address": {
        "encoding": "inplace",
        "label": "address",
        "numberOfBytes": "20"
      },
      "t_contract(IERC1155)226": {
        "encoding": "inplace",
        "label": "contract IERC1155",
        "numberOfBytes": "20"
      },
      "t_contract(IERC20)430": {
        "encoding": "inplace",
        "label": "contract IERC20",
        "numberOfBytes": "20"
      }
    }
  }
}